:100000000C9457020C94A82F0C94812F0C947F020F
:100010000C947F020C947F020C9427300C947F0286
:100020000C947F020C947F020C947F020C947F024C
:100030000C947F020C947F020C947F020C947F023C
:100040000C94372F0C947F020C94F52F0C94CF2F27
:100050000C947F020C947F020C947F020C947F021C
:100060000C947F020C947F02556E6B6E6F776E203E
:100070006576656E743A200045565F4A4F494E5F7B
:100080005458434F4D504C4554453A206E6F204ACA
:100090006F696E4163636570740045565F545843E1
:1000A000414E43454C45440045565F5458535441D6
:1000B00052540045565F4C494E4B5F414C495645A2
:1000C0000045565F4C494E4B5F4445414400455600
:1000D0005F5258434F4D504C4554450045565F5272
:1000E000455345540045565F4C4F53545F54535944
:1000F0004E4300206279746573206F6620706179C9
:100100006C6F6164005265636569766564200052B6
:10011000656365697665642061636B004469666642
:100120002028736563293A200045565F5458434F91
:100130004D504C4554452028696E636C7564657359
:100140002077616974696E6720666F72205258204B
:1001500077696E646F7773290045565F52454A4F41
:10016000494E5F4641494C45440045565F4A4F4918
:100170004E5F4641494C4544002D004E776B534B32
:1001800065793A20002D00417070534B65793A2013
:1001900000646576616464723A20006E6574696417
:1001A0003A200045565F4A4F494E45440045565F48
:1001B0004A4F494E494E470045565F424541434FDD
:1001C0004E5F545241434B45440045565F424541C2
:1001D000434F4E5F4D49535345440045565F42459A
:1001E00041434F4E5F464F554E440045565F534383
:1001F000414E5F54494D454F5554005D3A20005BD8
:1002000000465245513D005061636B657420717525
:1002100065756564003A20004F505F54585258503D
:10022000454E442C206E6F742073656E64696E6752
:100230000020005061796C6F616420686578203A15
:10024000200053656E64696E67203A2000496E7421
:10025000206F6E2070696E20320A000000000023BB
:100260000026002900030502050106020205000020
:10027000060000010504042020200E11140C0F12AA
:10028000090C0F06090C030609000306100E0C0AE0
:1002900008060402F7ECC38830DB06F40000000017
:1002A0000000000040404080FFFFFFFF000400000E
:1002B000000200000001000080000000400000007B
:1002C000200000001000000005000000A027BE3341
:1002D000E034C1332042C433A127BE33E134C133FB
:1002E0002142C433FF0605040302010900FFC04098
:1002F000008025DB33A191D63350CED533C2FDD15A
:1003000033C0C8C53341DA8E335374617274696E79
:100310006700310032003400380000000000670040
:10032000CC00B80154039D070A57616B696E6720C2
:100330007570202100456E746572696E6720736C5C
:10034000656570206D6F64652E2E2E000000000024
:10035000240027002A0000000000250028002B00B0
:10036000040404040404040402020202020203035B
:100370000303030301020408102040800102040863
:1003800010200102040810200000000800020100F3
:10039000000304070000000000000000D1D23A452D
:1003A000037C2058F59B2C5F27EFF84D637C777B0F
:1003B000F26B6FC53001672BFED7AB76CA82C97D61
:1003C000FA5947F0ADD4A2AF9CA472C0B7FD9326F2
:1003D000363FF7CC34A5E5F171D8311504C723C3F6
:1003E0001896059A071280E2EB27B27509832C1A3A
:1003F0001B6E5AA0523BD6B329E32F8453D100ED94
:1004000020FCB15B6ACBBE394A4C58CFD0EFAAFB77
:10041000434D338545F9027F503C9FA851A3408F3F
:10042000929D38F5BCB6DA2110FFF3D2CD0C13EC57
:100430005F974417C4A77E3D645D197360814FDCEC
:10044000222A908846EEB814DE5E0BDBE0323A0AD0
:100450004906245CC2D3AC629195E479E7C8376D54
:100460008DD54EA96C56F4EA657AAE08BA78252E79
:100470001CA6B4C6E8DD741F4BBD8B8A703EB56602
:100480004803F60E613557B986C11D9EE1F89811F3
:1004900069D98E949B1E87E9CE5528DF8CA1890DE2
:1004A000BFE6426841992D0FB054BB163E3011246F
:1004B0001FBECFEFD8E0DEBFCDBF11E0A0E0B1E0BE
:1004C000ECE5F5E702C005900D92A43DB107D9F720
:1004D00026E0A4EDB1E001C01D92AC38B207E1F70F
:1004E00012E0C7E5D2E004C02197FE010E94443625
:1004F000C635D107C9F70E9471300C94AC3A0C9400
:100500000000FC0120E1215008F4089580E0211151
:1005100081819081990F87FD91609193F4CF8091B3
:100520006503909166039C01369527952575357571
:10053000821B930B9C012373337396958795969535
:10054000879583739373820F931F9C01207F307F65
:100550008F709F7064E0880F991F6A95E1F7820F92
:10056000931F9C013327892F9927820F931F08958A
:10057000BC01E3ECF4E090E080E030E020E0419169
:10058000942748E0DC01880F991FB7FF04C051E2AF
:10059000852750E195274150A9F72F5F3F4F261738
:1005A000370769F70895833081F028F4813099F096
:1005B0008230A9F008958730A9F08830C9F08430DE
:1005C000B1F4809180008F7D03C0809180008F778F
:1005D00080938000089584B58F7784BD089584B595
:1005E0008F7DFBCF8091B0008F778093B00008950E
:1005F0008091B0008F7DF9CF1F93CF93DF93282F89
:1006000030E0F901E857FC4F8491F901EC58FC4FB8
:10061000D491F901E05AFC4FC491CC23A9F0162FD4
:1006200081110E94D302EC2FF0E0EE0FFF1FEA5A77
:10063000FC4FA591B4918FB7F894EC91111108C0BB
:10064000D095DE23DC938FBFDF91CF911F9108956A
:10065000DE2BF8CFCF93DF9390E0FC01EC58FC4FFA
:100660002491805A9C4FFC0184918823C9F090E02A
:10067000880F991FFC01E45BFC4FA591B491FC012C
:10068000EA5AFC4FC591D49161110DC09FB7F894FF
:100690008C91209582238C938881282328839FBF67
:1006A000DF91CF910895623051F49FB7F8943C9157
:1006B000822F809583238C93E8812E2BEFCF8FB7E9
:1006C000F894EC912E2B2C938FBFEACF3FB7F89480
:1006D00080913C0290913D02A0913E02B0913F0278
:1006E00026B5A89B05C02F3F19F00196A11DB11D8D
:1006F0003FBFBA2FA92F982F8827BC01CD01620FC9
:10070000711D811D911D43E0660F771F881F991F82
:100710004A95D1F708958F929F92AF92BF92CF9250
:10072000DF92EF92FF926B017C010E9466034B0106
:100730005C01C114D104E104F104B9F00E94660324
:10074000681979098A099B09683E734081059105FA
:1007500080F321E0C21AD108E108F10888EE880E82
:1007600083E0981EA11CB11CE4CFFF90EF90DF90B6
:10077000CF90BF90AF909F908F9008950895AF92C3
:10078000BF92CF92DF92EF92FF920F931F93CF937E
:10079000DF936C017B018B01040F151FEB015E01E0
:1007A000AE18BF08C017D10759F06991D601ED9175
:1007B000FC910190F081E02DC6010995892B79F714
:1007C000C501DF91CF911F910F91FF90EF90DF90C6
:1007D000CF90BF90AF900895FC01538D448D252F8D
:1007E00030E0842F90E0821B930B541710F0CF96CB
:1007F000089501970895FC01918D828D981761F0FD
:10080000A28DAE0FBF2FB11D5D968C91928D9F5F13
:100810009F73928F90E008958FEF9FEF0895FC01F2
:10082000918D828D981731F0828DE80FF11D858DA5
:1008300090E008958FEF9FEF0895FC01918D228D38
:10084000892F90E0805C9F4F821B91098F739927BD
:10085000089589EE95E00E941D0421E0892B09F49A
:1008600020E0822F089580E090E0892B29F00E94FB
:10087000290481110C9400000895FC01A48DA80F97
:10088000B92FB11DA35ABF4F2C91848D90E00196D2
:100890008F739927848FA689B7892C93A089B189F2
:1008A0008C91837080648C93938D848D981306C093
:1008B0000288F389E02D80818F7D80830895EF92F7
:1008C000FF920F931F93CF93DF93EC0181E0888F0A
:1008D0009B8D8C8D98131AC0E889F989808185FFDA
:1008E00015C09FB7F894EE89FF896083E889F9897C
:1008F00080818370806480839FBF81E090E0DF917E
:10090000CF911F910F91FF90EF900895F62E0B8DD0
:1009100010E00F5F1F4F0F731127E02E8C8D8E118B
:100920000CC00FB607FCFACFE889F989808185FFF2
:10093000F5CFCE010E943D04F1CFEB8DEC0FFD2FE2
:10094000F11DE35AFF4FF0829FB7F8940B8FEA89AD
:10095000FB8980818062CFCF682F89EE95E00C946F
:100960005F040F931F93CF93DF938C01D0E0C0E01F
:10097000F801EC0FFD1F6491662341F089EE95E0CC
:100980000E945F04892B11F02196F2CFCE01DF91F6
:10099000CF911F910F910895CF93DF93EC01888D34
:1009A0008823B9F0AA89BB89E889F9898C9185FDEA
:1009B00003C0808186FD0DC00FB607FCF7CF8C9178
:1009C00085FFF2CF808185FFEDCFCE010E943D04EF
:1009D000E9CFDF91CF910895E5EDF5E08481958130
:1009E000948396819583978196838783808592856A
:1009F0009087828781859385918783878785968570
:100A00009787958596879485958784870895CF9352
:100A100025ED35E0BC01605F7F4FDC01F90140E06E
:100A2000CD9150815C2750834F5F34964430C1F79D
:100A30002F5F3F4F04968617970779F7CF91089558
:100A40000F931F936115710581059105F9F00091D0
:100A50006B0210916C0220916D0230916E02DC01EC
:100A6000CB01800F911FA21FB31F80936B02909345
:100A70006C02A0936D02B0936E0280916F02909110
:100A8000700201969093700280936F021F910F91F4
:100A90000895FC01208131812115310519F490E080
:100AA00080E008952617370749F4FB012081318142
:100AB000FC013183208381E090E00895C901E9CFF2
:100AC000609163037091640321E030E002C0220F63
:100AD000331F8A95E2F790E080E0A1E0B0E0AD013D
:100AE000082E02C0440F551F0A94E2F746235723ED
:100AF000452B59F0FC01EE0FFF1FED5BFC4F4081D1
:100B0000518142235323452B31F4019680319105C5
:100B100031F780E0089581E00895982F6038C1F0A2
:100B2000809183036817A1F06093830381E0209193
:100B30008403291761F09093840380916903909155
:100B40006A03986090936A038093690381E0089533
:100B500080E0EDCF4F925F926F927F928F929F9243
:100B6000AF92BF92CF92DF92EF92FF920F931F93BB
:100B7000CF93DF936B017C0149015A01E801609139
:100B80004C0270914D026115710531F0673041E002
:100B9000740710F066E071E090E080E0A701960134
:100BA0000E945836722E032F142FB52FF62FE72FE1
:100BB000582E692EA0E00E949F3784F421503109FD
:100BC0004F4F5F4F6F4F7F4F8F4F9F4F722E032FAF
:100BD000142FB52FF62FE72F582E692E272D302FE3
:100BE000412F5B2F6F2F7E2F852D962D00E10E94C8
:100BF000823729013A01A5019401220F331F441FB6
:100C0000551FC301B201660F771F881F991F620F1E
:100C1000731F841F951F64587F4F8F4F9F4F0E94F3
:100C2000AD352C0F3D1F63E87FEF8FEF9FEF641909
:100C3000750986099709211544E0340710F02FEF54
:100C400033E030937B0320937A036C0D7D1D8E1D62
:100C50009F1DDF91CF911F910F91FF90EF90DF903B
:100C6000CF90BF90AF909F908F907F906F905F904C
:100C70004F90089520916D0330916E0320383F4FBF
:100C800021F090936E0380936D030895982F8091C7
:100C90008004E0917F04882361F0EF30A0F481E0CC
:100CA0008E0F80937F04F0E0EF57FB4F908381E03D
:100CB0000895E33F48F481E08E0F80937F04F0E0D5
:100CC000E457FC4FF3CF80E00895CF93DF93C62F16
:100CD000D0917F040E944606811106C0D0937F0404
:100CE00080E0DF91CF9108958C2F0E9446068823E3
:100CF000A9F381E0F6CF1092B8041092B90488E00D
:100D000096EEA3EDB3E380939B0290939C02A09395
:100D10009D02B0939E020895FC01608171818281E1
:100D2000938108950F931F9301970E948C06272F9C
:100D3000382F492F5527A4E6B0E00E94CC358B010F
:100D40009C01005C154520473343013C1F4C2A465B
:100D5000310518F060E070E0CB011F910F9108950C
:100D60000F931F93CF938091C204813109F088C003
:100D7000C091CA0487E090E00E94B802C81709F445
:100D80007FC083EC94E00E948C06992700918B022F
:100D900010918C0220918D0230918E020617170758
:100DA0002807390709F06EC0C0916902CC7FC09353
:100DB000690280917903809368028091780380931F
:100DC000670280917B0290917C02A0917D02B0919C
:100DD0007E0280549342A109B109809357029093F7
:100DE0005802A0935902B0935A0286EC94E00E94F4
:100DF0008C0660935B0270935C0280935D0290931B
:100E00005E028C2F8160809369020091D204109160
:100E1000D3048FE090E00E94B80280179107A1F5FB
:100E20008BEC94E00E948C06672F782F892F9927EE
:100E300087FD9A9560935F027093600280936102D0
:100E4000909362028EEC94E00E948C06672F782FBC
:100E5000892F992787FD9A956093630270936402A6
:100E600080936502909366028091CB0480936A021E
:100E7000C360C093690281E0CF911F910F910895E3
:100E80008EEFFACF8FEFF8CF80E0F6CFF894809115
:100E9000F4018F5F8093F40108950F931F93AB01CA
:100EA000BC012091F001DC01CA013CE1B695A79597
:100EB000979587953A95D1F782278870820F80930E
:100EC000F001E4E07695679557954795EA95D1F757
:100ED0009B01382BC901BA011F910F9108954F92C0
:100EE0005F926F927F928F929F92AF92BF92CF92BA
:100EF000DF92EF92FF922B013C010E9466034B01AF
:100F00005C01C090EC01D090ED01E090EE01F0901A
:100F1000EF01C701B601680D791D8A1D9B1D0E9456
:100F20004D07C40CD51CE61CF71CC092EC01D092F6
:100F3000ED01E092EE01F092EF01C701B601680DFC
:100F4000791D8A1D9B1DFF90EF90DF90CF90BF9081
:100F5000AF909F908F907F906F905F904F900C9488
:100F60004D070F931F930E9466030091EC011091AF
:100F7000ED012091EE013091EF01600F711F821F92
:100F8000931F1F910F910C944D078F929F92AF92D8
:100F9000BF92CF92DF92EF92FF92E0913602F091F2
:100FA0003702309791F06B017C0182809380A4809E
:100FB000B5800E94B107861A970AA80AB90A81E08B
:100FC0008C149D04AE04BF040CF080E0FF90EF9001
:100FD000DF90CF90BF90AF909F908F900895AF9289
:100FE000BF92CF92DF92EF92FF920F931F93CF9316
:100FF000DF938091F40181508093F401811169C0E5
:10100000789401EF11E0D0E0C0E0BB24B394E0910C
:101010003402F0913502EC0FFD1F23812F3F09F4BC
:1010200051C0F801D080ED2CF12C30E0F901E857E7
:10103000FC4F8491F901EC58FC4FC490F901E05A3F
:10104000FC4FA490AA2009F44FC081110E94D30242
:10105000EA2DF0E0EE0FFF1FE55AFD4FA591B49188
:10106000EC91CE2231E020E009F430E0832F922F82
:10107000E816F90639F1DB24F801D082DD2011F100
:10108000CE01880F991F880F991F9C01285D3D4F45
:101090007901F90180819181A281B381892B8A2B09
:1010A0008B2B81F40E94B1076115710581059105B3
:1010B00021F461E070E080E090E0F70160837183EB
:1010C0008283938321960F5F1F4FC330D10509F0B0
:1010D0009ECFDF91CF911F910F91FF90EF90DF9006
:1010E000CF90BF90AF90089590E080E0C1CFCF92B5
:1010F000DF92EF92FF920F931F93CF93DF93EC0158
:101100006A017B018901C114D104E104F10421F4D5
:10111000C12CD12C7601C3940E9446078A819B8101
:10112000AC81BD81892B8A2B8B2B89F588E392E0DA
:10113000BE010E94490519821882CA82DB82EC82B4
:10114000FD821F830E83E0913602F091370226E381
:1011500032E0309779F082819381A481B5818C1936
:101160009D09AE09BF09181619061A061B0694F444
:10117000F983E883F901D183C083DF91CF911F9177
:101180000F91FF90EF90DF90CF900C94EF0786E3E4
:1011900092E0CECF9F010190F081E02DDACF0F9346
:1011A0001F93CF93DF93EC018B010E9446078A8146
:1011B0009B81AC81BD81892B8A2B8B2BE9F488E341
:1011C00092E0BE010E944905198218821A821B8290
:1011D0001C821D821F830E83E0913802F091390238
:1011E000A8E3B2E0309759F4CD93DC93DF91CF912F
:1011F0001F910F910C94EF0786E392E0E2CFDF019D
:101200000190F081E02DEECFCF93DF93EC010E94AF
:1012100046078A819B81AC81BD81892B8A2B8B2BD0
:1012200049F488E392E0BE010E944905DF91CF9125
:101230000C94EF0786E392E0F6CFCF92DF92EF9225
:10124000FF926B017C010E94B107A7019601261B4A
:10125000370B480B590BDA01C901B7FF0CC06627E1
:101260007727CB01621B730B840B950BFF90EF90DC
:10127000DF90CF900895833332E09307A105B10545
:101280008CF068E070E080E090E00E948B030E94A8
:10129000B107A7019601261B370B480B590BDA0142
:1012A000C901E9CF181619061A061B0654F424E0E2
:1012B000880F991F2A95E1F7880F991F04970197C6
:1012C000F1F760E070E0CB01D1CFCF92DF92EF92E7
:1012D000FF92A0911602B0911702682F6170ED91F4
:1012E000FC9111970190F081E02DCD0109956B01E2
:1012F0007C01C114D104E104F10461F00E94B10742
:101300006C0D7D1D8E1D9F1DFF90EF90DF90CF9087
:101310000C941D09FF90EF90DF90CF900895982FC7
:10132000E0913402F091350281818F3F39F061E024
:101330002681291301C060E00C94FC02089581E02D
:10134000089580E00895089560E070E0CB0108956D
:101350004115510529F4EAE7F0E080818F77808319
:101360006A307105B9F0CB01880F991F880F991F5A
:10137000807267706860682B88E10FB6F894A89552
:10138000809360000FBE60936000E0E6F0E0808133
:1013900080648083232BD9F483B7817F846083BFEB
:1013A000F89483B7816083BF85B7806685BF8F7DE2
:1013B00085BF7894889583B78E7F83BF7894452BBB
:1013C00029F4EAE7F0E0808180688083089583B79C
:1013D000817F846083BFF89483B7816083BF7894F2
:1013E000889583B78E7F83BF7894E9CF8091270259
:1013F00081608093270288E192E00E94040962E5FF
:1014000077E288E192E00C94CF0860E070E0CB01D5
:1014100008950895FC018481811103C08285882389
:1014200029F04387548765877687089580E090E0A8
:10143000A0E8BFEB83879487A587B68708958F922E
:101440009F92AF92BF92CF92DF92EF92FF92CF9393
:10145000DC011796CC91179750E061115C2F18961C
:101460002C91189730E0220F331F255A3D4F60E032
:1014700070E0CB01F901E590F490F70140814C2335
:10148000451315C04B015C01FFEF8F1A9F0AAF0A8D
:10149000BF0A1D96CD90DD90ED90FC9050976C1595
:1014A0007D058E059F0568F060E070E0CB01CF916F
:1014B000FF90EF90DF90CF90BF90AF909F908F9074
:1014C0000895C501B401D6CF8F929F92AF92BF927B
:1014D000CF92DF92EF92FF920F931F93CF93DF9300
:1014E000CDB7DEB7C054D1400FB6F894DEBF0FBE03
:1014F000CDBF2FB7F8944091E5055091E605609176
:10150000E7057091E8052FBFFC0101851285238551
:1015100034856A017B01C01AD10AE20AF30A9701F5
:101520008601003D174021053105B0F4FC01818999
:10153000C05CDE4F0FB6F894DEBF0FBECDBFDF91AB
:10154000CF911F910F91FF90EF90DF90CF90BF90C0
:10155000AF909F908F9008958C01FC014187528736
:10156000638774871482138212821182108261E071
:1015700085810E94FC026AEF70E080E090E00E94AA
:101580008B0361E0F80185810E942A0360E0F80185
:1015900085810E94FC0264E170E080E090E00E949E
:1015A0008B03F89461E0F80185810E94FC028CE4D1
:1015B00090E00197F1F762E0F80185810E942A032B
:1015C00080E190E00197F1F760E0C8010E941F0AF6
:1015D000672B682B692B29F4F801118A789480E035
:1015E000A7CF61E0C8010E941F0A672B682B692BF7
:1015F00099F3CE0101967C015E019FEBA91A9EEF43
:10160000B90A670160E0C8010E941F0AF601608301
:1016100071838283938361E0C8010E941F0AF601EF
:101620006483758386839783F8E0CF0ED11CCA1438
:10163000DB0441F7789430E020E0F701808091806E
:10164000A280B380448155816681778181149104A1
:10165000A104B10429F0411551056105710519F482
:10166000F801118ABCCFF90183E0F595E7958A95D9
:10167000E1F7E00FF11F8081880F84169506A6061A
:10168000B706F0F080832F5F3F4FF8E0EF0EF11CBC
:101690002832310591F6F801448120818181280F9B
:1016A0003327331F8281280F311D8381820F932FAF
:1016B000911D99274817190699F681E0818B38CF3B
:1016C0008160E0CFFC0101900020E9F73197AF0184
:1016D000481B590BBC0189EE95E00C94BF038CE5C7
:1016E00091E00C94620BCF93DF930E94B104EC0164
:1016F0000E946F0B8C0F9D1FDF91CF9108958F92E9
:101700009F92AF92BF920F931F93CF93DF93CDB76A
:10171000DEB7A1970FB6F894DEBF0FBECDBF19A2FA
:10172000423008F44AE08E010F5D1F4F842E912C49
:10173000B12CA12CA50194010E94DF35E62FB9013F
:10174000CA01EA30F4F4E05DD801EE938D01232B59
:10175000242B252B79F790E080E0109719F0CD012C
:101760000E94620BA1960FB6F894DEBF0FBECDBFEC
:10177000DF91CF911F910F91BF90AF909F908F906D
:101780000895E95CE1CFCF93DF930E94620BEC01F7
:101790000E946F0B8C0F9D1FDF91CF9108954F9288
:1017A0005F926F927F928F929F92AF92BF92CF92F1
:1017B000DF92EF92FF926B017C01AC019B010E94D2
:1017C00079398823B1F08FE591E00E94620B7C01AA
:1017D0000E946F0B8E0D9F1DFF90EF90DF90CF90BA
:1017E000BF90AF909F908F907F906F905F904F9041
:1017F000089546015701E894B7F82FEF3FEF4FE700
:101800005FE7C501B4010E94793981110DC02FEF46
:101810003FEF4FE75FE7C501B4010E94213818167A
:101820001CF483E691E0D1CF2FEF3FEF4FE75FE469
:10183000C701B6010E94073918161CF487E691E02B
:10184000C4CF2FEF3FEF4FE75FECC701B6010E9417
:10185000213887FDF3CF20E030E0A901C701B601B0
:101860000E942138B12CA12C87FF08C08DE20E9474
:10187000AC045C01F7FAF094F7F8F0942AE037ED45
:1018800043EA5BE3C701B6010E94B5372B013C0177
:101890000E9426386B017C010E9455389B01AC01E7
:1018A000C301B2010E94B4372B013C014AE0C701D9
:1018B000B6010E947F0B7C01EA0CFB1C8EE20E94A9
:1018C000AC04E80EF91E20E030E040E251E4C30130
:1018D000B2010E940C392B013C010E9426384B01B9
:1018E000B12CA12C4AE0C501B4010E947F0BE80E87
:1018F000F91EC501B4010E9455389B01AC01C3011A
:10190000B2010E94B43720E030E040E251E40E948E
:101910000C390E94263890E080E04AE00E947F0B5C
:10192000E80EF91E55CF1F93CF93DF93EC0114E01F
:10193000E881F9810190F081E02DCE0109956B8558
:101940007C858D859E850E94CF0B115061F020E033
:1019500030E040E85FEB6B857C858D859E850E943D
:101960002138882329F36B857C858D859E85DF91C1
:10197000CF911F9108950F931F93CF93DF93EC01A5
:101980008BE691E00E94C30B8D81882321F061E0FA
:101990008F810E94FC020A891B8962E0F80185811F
:1019A0000E942A0380E398EFAFEFBFEFF801818731
:1019B0009287A387B48714E06F85788990E080E0F0
:1019C0000E948B03E881F9810190F081E02DCE0126
:1019D00009956B857C858D859E850E94CF0B115066
:1019E00061F020E030E040E85FEB6B857C858D8521
:1019F0009E850E9421388823F9F28D81882321F069
:101A000060E08F810E94FC026B857C858D859E85C0
:101A1000DF91CF911F910F9108950F931F93CF9353
:101A2000DF93EC0180E791E00E94C30B8D81882356
:101A300021F061E08F810E94FC020A891B8962E02B
:101A4000F80185810E942A0380E398EFAFEFBFEF92
:101A5000F80181879287A387B48714E06F8578891E
:101A600090E080E00E948B03E881F9810190F08191
:101A7000E02DCE0109956B857C858D859E850E9424
:101A8000CF0B115061F020E030E040E85FEB6B8558
:101A90007C858D859E850E9421388823F9F28D8171
:101AA000882321F060E08F810E94FC026B857C8599
:101AB0008D859E85DF91CF911F910F910895CF92D3
:101AC000DF92EF92FF92CF93DF9397FF19C06B01E4
:101AD0007C018DE20E94AC04EC0166277727CB01E4
:101AE0006C197D098E099F094AE00E947F0B8C0FBB
:101AF0009D1FDF91CF91FF90EF90DF90CF900895E1
:101B00004AE0DF91CF91FF90EF90DF90CF900C945F
:101B10007F0B8C01EB0184E791E00E94C30BC801AD
:101B20000E94620B8AE30E94AC04BE0190E080E058
:101B30004AE00E947F0B0E946F0B89EE95E00E94A5
:101B4000CC040E944607FFCFCF93DF93EC01409770
:101B500018F480E30E94AC04BE0190E080E040E114
:101B6000DF91CF910C947F0B8F929F92AF92BF9297
:101B7000CF92DF92EF92FF920F931F93CF93DF9359
:101B8000CDB7DEB7A0970FB6F894DEBF0FBECDBFBE
:101B90004C010E94B1076093D4017093D5018093EA
:101BA000D6019093D7010E945F0D8FEF91E00E94C4
:101BB000B1046091D4017091D5018091D6019091CA
:101BC000D70128EE33E040E050E00E945836A4E20E
:101BD000AA2EB4EFBB2EC12CD12CE12CF12C00E0AD
:101BE00010E00E949436B901CA010E945F0D8BEF8C
:101BF00091E00E94B104F4013197E431F10508F05D
:101C00005AC1EB5FF14F0C944436190E2F0E320E71
:101C1000350E380E3B0E5B0FCD0ED00ED30E430F9C
:101C2000460F490F4C0F4F0F5B0F520F550FB00E61
:101C3000580F8BEE91E0A0960FB6F894DEBF0FBE62
:101C4000CDBFDF91CF911F910F91FF90EF90DF906B
:101C5000CF90BF90AF909F908F900C94730B8BEDB3
:101C600091E0E9CF8AEC91E0E6CF88EB91E0E3CF19
:101C70008DEA91E0E0CF83EA91E00E94730BC0907F
:101C80008B02D0908C02E0908D02F0908E028090BA
:101C90008F0290909002A0909102B090920280E109
:101CA000E0EAF4E0DE01119601900D928A95E1F7E9
:101CB00080E1E0E9F4E0DE01519601900D928A9511
:101CC000E1F78BE991E00E94B1044AE0C701B60157
:101CD0000E947F0B0E946F0B81E991E00E94B1048A
:101CE00040E1C501B4010E947F0B0E946F0B87E8A1
:101CF00091E00E94B1048E010F5F1F4F912C812C47
:101D0000F80181918F0190E00E94A40DFFEF8F1ADE
:101D10009F0A80E188169104B1F58EE591E00E945A
:101D2000C30B8BE791E00E94B1044E01E1E18E0EFE
:101D3000911C10E000E0F40181914F0190E00E94BD
:101D4000A40D0F5F1F4F0031110511F50E946F0B9D
:101D50001092B20480E89FEF90936E0380936D031E
:101D6000A0960FB6F894DEBF0FBECDBFDF91CF9126
:101D70001F910F91FF90EF90DF90CF90BF90AF90A9
:101D80009F908F90089585E891E00E94B104B8CFAC
:101D900089E791E00E94B104CECF8AE691E04BCF73
:101DA00089E591E048CF89E291E00E94730B8CE1D4
:101DB00091E00E94B1046091D4017091D5018091AD
:101DC000D6019091D7010091D8011091D9012091AD
:101DD000DA013091DB01601B710B820B930B28EE53
:101DE00033E040E050E00E945836E4E2AE2EF4EFDB
:101DF000BF2EC12CD12CE12CF12C00E010E00E9470
:101E00009436B901CA0128EE33E040E050E00E9468
:101E1000AD35CA01B9010E945F0D0E946F0B8EE5BE
:101E200091E00E94C30B8091C00487FF04C08FE043
:101E300091E00E94730B8091C204882391F085E0A9
:101E400091E00E94730B6091C20470E090E080E02A
:101E50004AE00E947F0B0E946F0B83EF90E00E948C
:101E6000730B0E94B107AB01BC0140535D4E6C4E39
:101E70007F4F22E537E288E192E00E94770881E017
:101E800080933A026DCF85EE90E0D5CE8CED90E058
:101E9000D2CE8EEC90E0CFCE81EC90E0CCCE83EB36
:101EA00090E0C9CE88EA90E0C6CE8AE990E0C3CE41
:101EB00088E790E0C0CE88E690E00E94B104B401CB
:101EC00090E080E04AE00E947F0BA0960FB6F89465
:101ED000DEBF0FBECDBFDF91CF911F910F91FF905D
:101EE000EF90DF90CF90BF90AF909F908F900C9429
:101EF0006F0BCF92DF92EF92FF92CF93DF93EC01C3
:101F0000C12CD12C7601C3940C2E04C0CC0CDD1C4A
:101F1000EE1CFF1C0A94D2F7E3FC03C0CE010E9422
:101F2000B40DD701C60188279472AA27BB27892B35
:101F30008A2B8B2B01F1E0914402F09145023097FE
:101F4000D1F02091C2044091C104211102C0442368
:101F500091F08091C00450E060E084FF04C0DA0199
:101F6000AE53BB4F6C9130E04D535B4F80914602B6
:101F7000909147020995CC2484E0D822E822FF24DE
:101F8000CD28CE28CF2819F1E0914802F0914902DE
:101F90003097E9F01092490210924802C231D105FF
:101FA00041F18091C00483FD24C090918A0361E0D7
:101FB000992339F0082E000C990B692F661F6627AC
:101FC000661F70E080914A0290914B020995E09162
:101FD0004002F0914102309771F0BE0180914202BF
:101FE00090914302DF91CF91FF90EF90DF90CF90DF
:101FF000099460E0E6CFDF91CF91FF90EF90DF9002
:10200000CF9008950F931F93CF93DF9300D000D00C
:10201000CDB7DEB7DB011C969C911C971E963C91B8
:102020001E971F962C911F971D964C911D974983C3
:102030003A832B839C83BE016B5F7F4F9E012F5F92
:102040003F4FF90111919F01412F42954F70F0E1EF
:102050004F9FA0011124E12FEF70E40FF52FF11D28
:10206000E455FC4F9491A90141505109FA01908324
:102070002617370731F791E05BE1813039F0492FBE
:10208000440F97FD45278150942FF7CF89819827DA
:1020900099838D0194E0FE013196A801DA018D91BA
:1020A000AD0161918627BD0161507109DB018C93FF
:1020B000BF0161507109DB018C93E217F30771F7DF
:1020C00091500C5F1F4F9111E6CF0F900F900F9022
:1020D0000F90DF91CF911F910F9108953F924F92F2
:1020E0005F926F927F928F929F92AF92BF92CF92A8
:1020F000DF92EF92FF920F931F93CF93DF93CDB7B1
:10210000DEB768970FB6F894DEBF0FBECDBF8C0167
:1021100025EDC22E25E0D22EAC01405F5F4FC601F7
:102120007801FC01D70120E03D9130832F5F349688
:102130002430D1F724E0E20EF11C01964E155F0524
:1021400081F7A5ECB5E0FE01319685ED95E05E2EB8
:102150006F2E2D9121938A179B07D9F7852D962DE8
:102160000E9407054424439489EDA82E85E0B82EEB
:102170004E0139E1830E911C9BE1392E85ED95E0EE
:1021800024E0DC01712CEC914E2F42954F7030E130
:10219000439FA0011124EF70E40FF52FF11DE455CA
:1021A000FC4FE491EC937394149654E07512EBCFCA
:1021B000215001962111E5CF0E94EC04E5EDF5E0F8
:1021C000CE014596BE016F5E7F4F9F01D9015C91A4
:1021D000DC015D93CD01452F440F57FD83C0DB012A
:1021E0004C932C5F3F4F6F5F7F4F8816990671F7B6
:1021F0008E89398938272F89688D9A899227962761
:10220000432F492741934D895B89942795279383D1
:102210009C89862784278527892787832427292740
:1022200032273387AE16BF0659F6652D762D842DDD
:102230000E940210852D962D0E9407054394BAE056
:102240004B129CCF85ED95E0DC0140E0EC912E2F08
:1022500022952F7050E1259F90011124EF70E20F1D
:10226000F32FF11DE455FC4FE491EC934F5F14966E
:10227000443061F77A9401967110E6CF0E94EC0425
:10228000652D762D8AE00E940210852D962D0E94E4
:102290000705D801F60180E090819D938F5F349609
:1022A0008430D1F78FEFC81AD80A0C5F1F4FE016A1
:1022B000F10679F768960FB6F894DEBF0FBECDBF72
:1022C000DF91CF911F910F91FF90EF90DF90CF9012
:1022D000BF90AF909F908F907F906F905F904F9046
:1022E0003F90089543257BCFE82FF0E0EC51FD4F60
:1022F000E491EF3F09F0815008951092C204E091FB
:10230000C20584E0E89FF0011124ED53FD4F808168
:102310009181A281B3818C7F809383029093840208
:10232000A0938502B093860283E891E190936803BD
:102330008093670308958F929F92AF92BF92CF923E
:10234000DF92EF92FF920F931F93CF93DF93E901F8
:102350009DEF980F9D3008F06DC06A017B019CEFE6
:10236000C9220F3FA1F441EF52E0A9E0B3E0FA0126
:102370000591159125913491480159016CEF862200
:10238000C814D904EA04FB0408F447C00370E82F1A
:10239000F0E0DF01AA0FBB1FAA0FBB1FAD53BD4F5B
:1023A000002E000C110B220B330B0C291D292E299A
:1023B0003F290D931D932D933C931397209711F470
:1023C000CFE3D0E0EE0FFF1FED5BFC4FD183C08366
:1023D000409163035091640321E030E0B90102C0F1
:1023E000660F771F8A95E2F7CB01CD28CE28CF283C
:1023F000E1F0842B952B909364038093630381E039
:10240000DF91CF911F910F91FF90EF90DF90CF90D0
:10241000BF90AF909F908F9008954C5F5F4FA4172F
:10242000B50709F0A4CF00E0B2CF80959095842342
:102430009523E1CF80E0E4CF94E0899FF00111245F
:10244000E455FD4F659175918591949108958F9212
:102450009F92AF92BF92CF92DF92EF92FF9288232A
:1024600079F01092700310926F031092740310921F
:1024700073031092BD04809169028C60809369029D
:1024800083E00E941C124B015C016DE273E080E06E
:1024900090E0A50194010E94AD35C9010596909385
:1024A000760380937503C0905702D0905802E09055
:1024B0005902F0905A0282E1D80E8AE7E81EF11C18
:1024C000D9011397A50194010E94CC35C61AD70AE9
:1024D000E80AF90AC0929F02D092A002E092A102FB
:1024E000F092A202FF90EF90DF90CF90BF90AF905C
:1024F0009F908F9008954F925F926F927F928F92EC
:102500009F92AF92BF92EF92FF920F931F93CF9340
:10251000DF932B013C017A01822F0E941C129B0148
:10252000AC01C0E4D2E08FA898ACA9ACBAAC06E08C
:1025300010E0C301B2010E94AA05AB01BC01480D25
:10254000591D6A1D7B1D4BAF5CAF6DAF7EAF415710
:1025500052406109710997018FE492E0DF91CF91B8
:102560001F910F91FF90EF90BF90AF909F908F9031
:102570007F906F905F904F900C947708CF92DF928E
:10258000EF92FF920F931F93CF93DF9330917C03D1
:10259000E091800324E0E29FF0011124ED5FFC4F05
:1025A000C080D180E280F380C114D104E104F10441
:1025B00041F0C0928302D0928402E0928502F092B0
:1025C00086022091B804263008F025E0321B232F24
:1025D00038300CF027E027FD20E020937C03E22F29
:1025E000022E000CFF0BEB51FD4FE491F0E0EF7772
:1025F000E068F0936803E09367033730A4F1EA01E1
:10260000C0907702D0907802E0907902F0907A0240
:102610006A5071098109910900E410E021E030E07D
:1026200040E050E00E94AA05AB01BC014C0D5D1DCD
:102630006E1D7F1D40937B0250937C0260937D0250
:1026400070937E0241575240610971099E018FE4E7
:1026500092E0DF91CF911F910F91FF90EF90DF906B
:10266000CF900C947708DF91CF911F910F91FF903D
:10267000EF90DF90CF900C947B124DEE56E164EB1F
:1026800074EC84E090E00C94BE122091B30430E02E
:10269000A4E2B4EF0E94013649EE56E10C94BE125A
:1026A000883040F4E82FF0E0EB51FD4FE49181E0F9
:1026B000EF3F09F480E008958F929F92AF92BF920E
:1026C000DF92EF92FF920F931F93CF93DF93D82E59
:1026D000EB018A01E22EE0913402F0913502F080A4
:1026E00080849184A284B38481149104A104B104F0
:1026F00039F420E4822E22E4922E2FE0A22EB12C77
:1027000040E059E06DE370E080E084169506A6068F
:10271000B70640F476956795579547958F5F863055
:10272000A1F787E0982F906A9695809581709CBD5F
:102730008DBD60E08F2D0E94FC02DEBC00000DB458
:1027400007FEFDCF8EB50C0F1D1FC017D10771F00E
:1027500080E0E11001C088818EBD00000DB407FE4D
:10276000FDCF8EB5E11088832196EFCF61E08F2DEC
:10277000DF91CF911F910F91FF90EF90DF90BF906D
:10278000AF909F908F900C94FC02CF93DF931F9299
:10279000CDB7DEB721E041E050E0BE016F5F7F4F73
:1027A0000E945C1389810F90DF91CF910895CF93A0
:1027B000DF931F92CDB7DEB7698320E041E050E0A0
:1027C000BE016F5F7F4F80680E945C130F90DF91A6
:1027D000CF910895CF93C82F62E082E00E94D71373
:1027E00060E883E00E94D71361E084E00E94D71381
:1027F00069E985E00E94D71362E187E20E94D7135E
:1028000060EDC11168ED80E30E94D71360E481E3BD
:102810000E94D71361EC88E20E94D71364E989E231
:102820000E94D71361EC8AE2CF910C94D7130F93D7
:102830001F93CF93DF93C0917E03C4310CF040C04F
:10284000CE30CCF1C2310CF0C1E161E080911602D2
:1028500090911702009183021091840220918502C9
:1028600030918602DC01ED91FC910084F185E02D30
:102870004C2F0995813059F18230E1F1CF301CF5B0
:10288000CC301CF1C067D7E014E06C2F89E00E94C7
:10289000D7138DE40E94C513887F682F612B8DE4C8
:1028A0000E94D7136D2F60628BE0DF91CF911F9153
:1028B0000F910C94D713CC3F0CF4CCEF60E0C6CF53
:1028C00062E0C4E1C3CFCEE0DDCFCC5FDCCF80914E
:1028D0006703877011F4CB305CF0C2302CF4C2E097
:1028E000C250C068DBE0D0CFC231D4F3C1E1F8CF31
:1028F000CBE0F6CFD0E117E0CFE8C7CFAF92BF92E1
:10290000CF92DF92EF92FF920F931F93CF93DF93BB
:102910008091830290918402A0918502B0918602F9
:102920009C01AD0160E070E080E090E003E10E9476
:102930006937A12CE8E4BE2EF8EECF2EDD24D39427
:10294000E12CF12C00E010E00E94C536C22FB32E1E
:102950006A017B01182FD92F00E10E948437622F72
:1029600086E00E94D7132C2F3B2DA601B701812FA3
:102970009D2F08E00E948437622F87E00E94D713C2
:102980006C2F88E0DF91CF911F910F91FF90EF9016
:10299000DF90CF90BF90AF900C94D7131F93CF933D
:1029A000DF936091670370916803162F1770CB0156
:1029B00033E0969587953A95E1F7D82FD370D130CB
:1029C00059F008F466C0D23009F465C066EC71E0D5
:1029D0008DE791E00E94890DC0E8CB0125E0969536
:1029E00087952A95E1F78370823009F458C08330C7
:1029F00009F457C0813009F450C0C260672F7727AF
:102A00006115710521F0C16082E20E94D7136C2F1D
:102A10008DE10E94D71360917B03637060598FEF43
:102A2000810F8295807F680F8091670387FF6460C4
:102A30008EE10E94D7138BEF810F823010F4DD23DB
:102A400091F1163011F4D13071F164E086E20E9408
:102A5000D713C0E063E0D23081F48091830290917B
:102A60008402A0918502B0918602CFE781349D4D0A
:102A7000AA44BF4108F0C4E662E086E30E94D7138F
:102A8000CC2399F06C2F8AE3DF91CF911F910C94A6
:102A9000D713C0E7A2CFC0E9A0CFC460AFCFC66054
:102AA000ADCFC860ABCF6CE0D1CFDF91CF911F919C
:102AB0000895CF93DF93D82FC82FC77019F081E006
:102AC0000E9465096D2F81E00E94D713C11105C0D6
:102AD00080E0DF91CF910C946509DF91CF9108954B
:102AE0008091830290918402A0918502B091860228
:102AF00081349D4DAA44BF4118F488E00C945915C7
:102B000080E0FCCF8091830290918402A0918502A5
:102B1000B091860281349D4DAA44BF4118F488E8E3
:102B20000C94591580E8FCCFCF93C82F81E00E9408
:102B3000C513887F8C2BCF910C945915CF92DF92BF
:102B4000EF92FF92CF93DF93D82F0E94821581E0FE
:102B50000E94C51387FD06C06BE973E08DE791E025
:102B60000E94890D81E00E949415D23009F07CC04A
:102B70006AE08DE10E94D71360E78EE10E94D713CF
:102B800063E28CE00E94D7136FEF83E20E94D713B9
:102B90008091C305882309F46CC083E30E94C513A8
:102BA000682F6F7B83E30E94D71380916703909116
:102BB000680323E0969587952A95E1F7C82FC3709F
:102BC00081E30E94C5138877682F6360C23008F0E4
:102BD00056C081E30E94D71360E48FE20E94D713AE
:102BE00060E480E30E94D71360917A038FE10E9432
:102BF000D71364E389E30E94D7136CE080E40E945A
:102C0000D7136FEF82E10E94D713ED2FF0E0E2516E
:102C1000FD4F6491609581E10E94D71380E00E948E
:102C20008F0960E08DE00E94D71360E08FE00E9482
:102C3000D713D11128C060917B0270917C028091E2
:102C40007D0290917E020E941D096B017C0186E04D
:102C50000E949415C701B601DF91CF91FF90EF90CC
:102C6000DF90CF900C9420050E94CE140E947E1419
:102C700087CF83E30E94C513682F606493CF682FCA
:102C8000636881E3AFCF85E0DF91CF91FF90EF9054
:102C9000DF90CF900C949415CF92DF92EF92FF9239
:102CA000CF93C82F81E00E94C513877069E274E05A
:102CB000D1F480916703877009F062C0C13051F48C
:102CC0001092C20460915502709156028FE492E016
:102CD0000E94CF080E94701581E00E94C51387FFF3
:102CE00006C062E074E08DE791E00E94890D81E00A
:102CF0000E9494150E947E1463E28CE00E94D71318
:102D00006EE18DE00E94D7136BE082E10E94D71341
:102D100062E183E10E94D7136AEA8FE10E94D71330
:102D20006FEF81E20E94D71381E00E94EA1368E30B
:102D300080E40E94D71380E00E948F09C11118C05F
:102D400060917B0270917C0280917D0290917E0265
:102D50000E941D096B017C0185E00E949415C7014A
:102D6000B601CF91FF90EF90DF90CF900C942005AB
:102D700085E0CF91FF90EF90DF90CF900C94941569
:102D80008C2FCF91FF90EF90DF90CF900C949E15F9
:102D900083E190E00E94790F80E00C944C168FE65E
:102DA00092E290935602809355020C94C81621E04B
:102DB0002093C004E7E6F3E020813181206831836D
:102DC00020831092C20490935602809355020C9473
:102DD000C8168FE59DE20C94D71687E397E20C9412
:102DE000D71682E08093C004E091B904F0E0EB5183
:102DF000FD4FE491F0E0EF77E068F0936803E09333
:102E0000670380919B0290919C02A0919D02B091DA
:102E10009E028093830290938402A0938502B093D4
:102E200086021092C2040C94C81686E79DE2909325
:102E30005602809355020C94F1168AE497E290931F
:102E40005602809355020C94F11640E150E06CE973
:102E500073E085EC95E00C94A4356F927F928F928D
:102E60009F92AF92BF92CF92DF92EF92FF920F9319
:102E70001F93CF93DF93CDB7DEB760970FB6F8946B
:102E8000DEBF0FBECDBF7B018A01282F30E0277F38
:102E90002230310549F02430310509F4CBC0232B11
:102EA00009F09FC0D12C98C083FD32C085EF91E01E
:102EB0000E946E1090E1692EFE0131966F0125E0AF
:102EC000822E22E0922E37E8732E0115110509F0AB
:102ED00060C06091F5017091F6018091F7019091C9
:102EE000F8010E944A3660960FB6F894DEBF0FBE16
:102EF000CDBFDF91CF911F910F91FF90EF90DF90A9
:102F0000CF90BF90AF909F908F907F906F900895DB
:102F1000E5EFF1E080E1DF011D928A95E9F7CACF84
:102F200001151105E9F5E62FF0E0EB50FE4F808129
:102F30008058808311E0D601E62D1D92EA95E9F7CD
:102F4000C6010E946E100981C6010E94810207FF1E
:102F500003C088898725888B112349F01981C60110
:102F60000E94810217FF03C088898725888BF6019C
:102F7000D5018D915D019191119789278C938A14C8
:102F80009B04B1F710E000E085EF91E00E946E1025
:102F90009CCF85EFA82E81E0B82ED701950160E087
:102FA000F90181919F019D91AF01415051098927FC
:102FB000FA0180836F5F7D0101501109603109F0D2
:102FC000AFCF0115110501F710E0B5CF8E0D9F1D94
:102FD0000E946E10B0E1DB0E8D2D90E080179107FE
:102FE000A8F360E070E0CB017ECF80E1E5EFF1E097
:102FF000DE01119601900D928A95E1F7CE010196BE
:103000000E946E10FE0131969701205F3F4F919113
:10301000D7018C9189278D937D0101501109A21749
:10302000B30719F00115110591F7809104028F5F24
:103030008093040201151105C1F6D3CF90910502CA
:10304000911106C06CE874E08DE791E00E94890D53
:10305000903141F440E150E065E072E080E00E9490
:103060002D1790E0E92FF0E0EB5FFD4F80819F5F2F
:10307000909305020895DF92EF92FF920F931F93B2
:10308000CF93DF938C01EB018091650390916603F0
:10309000F8012081318182239323909366038093EA
:1030A00065030E948F027C01892B09F08DC0F80115
:1030B0008081918190936603809365030E948F02C3
:1030C0007C018FEF9FEFE114F10409F4D6C0F1E128
:1030D000EF16F10408F478C010E000E0CF3FDC0701
:1030E00051F1C131D1050CF06FC09E012F70332713
:1030F00081E090E002C0880F991F2A95E2F7FE0157
:1031000044E0F595E7954A95E1F7EE0FFF1FEB597F
:10311000FC4F208131818C010223132380959095EF
:1031200082239323918380830115110509F44EC0F6
:1031300070E1E71AF1080E941E18D82E0E941E188E
:103140009D2DB70124E0769567952A95E1F70E94B9
:103150001C3634E0880F991F3A95E1F7A5E6B3E0F5
:10316000F0E0E0E04D915D914115510559F19A0172
:103170003695279525753575BA01621B730B9B0132
:103180006373737336952795369527952373337339
:10319000620F731F9B01207F307F6F707F7062957D
:1031A0007295707F7627607F7627620F731F9B0171
:1031B0003327672F7727620F731F8617970778F0DB
:1031C000861B970B7096CECF10E000E0CFEFDFEFBD
:1031D000B2CF9A01215031094223532340970097DF
:1031E000C1F788279927841B950B482359239A01F7
:1031F0002575357581E090E0232B11F090E080E09B
:103200009A0123733373232B09F03FC022E030E08F
:10321000280F391FCA018F709F70892BC9F584E070
:1032200090E0280F391F88E090E0442311F090E0EF
:1032300080E0280F391F2E0F3F1FF90144E0F6955B
:10324000E7954A95E1F7EE0FFF1FEB59FC4FA901F7
:103250004F70552781E090E0BC0102C0660F771FD8
:103260004A95E2F7AB01808191818627952791836A
:103270008083CF3FDC0779F4C901DF91CF911F91A3
:103280000F91FF90EF90DF90089530E020E0C0CFE5
:1032900090E080E0C6CF84E0D595C7958A95E1F7A8
:1032A000CC0FDD1FCB59DC4F88819981082B192B5E
:1032B00019830883E1CFCF93DF9398E0899FE001E2
:1032C0001124C05CDD4FFE01EB59FF4F6083329744
:1032D000518340830E94B107FE01E959FF4F60838B
:1032E0007183828393830E941E18CA59DF4F8F70A7
:1032F000888381E0DF91CF910895CF92DF92EF92A2
:10330000FF92CF93C82F0E941E18F82E0E941E18FD
:103310009F2D6C01853224EF920720F024E2C21A1F
:1033200024EFD20AF12CE12CCC2369F06C2F0E94FF
:103330001036292F30E0A4E2B4EF0E940136C60E09
:10334000D71EE81EF91EC701B601CF91FF90EF907E
:10335000DF90CF900895CF92DF92EF92FF926B01B2
:103360007C01842F442331F00E947D19C60ED71EA4
:10337000E81EF91E809181038823A9F080918702BD
:1033800090918802A0918902B0918A02A7019601CA
:10339000281B390B4A0B5B0BDA01C90118161906F9
:1033A0001A061B068CF4C0928702D0928802E09223
:1033B0008902F0928A028091690390916A03916078
:1033C00090936A0380936903FF90EF90DF90CF9012
:1033D0000895CF93DF9390E4E3ECF2E0DF01292F2F
:1033E0001D922A95E9F7E3E0F3E0DF011D929A953B
:1033F000E9F790E2E3E4F3E0DF01292F1D922A953B
:10340000E9F7E3EAF2E0DF011D929A95E9F727E098
:1034100030E03093640320936303811130C083E074
:10342000C3ECD2E0A3E4B3E093E0980F2FE330E0E5
:1034300044E0849FF0011124E453FD4F45915591E0
:103440006591749149935993699379932D933D9321
:103450008F5F8913EDCF48EE53E06EE080E00E946D
:103460005B1944E650E06EE081E00E945B194AE09F
:1034700050E06BE182E0DF91CF910C945B1980E02A
:10348000CFCFCF92DF92EF92FF92CF93DF9300D016
:10349000CDB7DEB780918F0290919002A0919102FA
:1034A000B0919202892B8A2B8B2B09F063C08091FB
:1034B000690390916A03109281038E7C977A9093AE
:1034C0006A03809369031092BF04109286030E94DE
:1034D0007B0687E090E09A838983909366038093CC
:1034E00065036FEF7FEFCE0101960E943B1880933A
:1034F000800380E18093830385E08093840381E0EF
:103500000E94E9198091690390916A0393FF06C0B4
:103510006CE870E087E991E00E94890D0E94B10794
:103520006B017C0188E00E947D19C60ED71EE81E43
:10353000F91EC0927702D0927802E0927902F0925E
:103540007A028091690390916A03846090936A0380
:10355000809369036FEE74E28FE492E00E94CF08DB
:1035600081E00F900F90DF91CF91FF90EF90DF906F
:10357000CF90089580E0F5CF1F93CF93DF93CDB721
:10358000DEB72F970FB6F894DEBF0FBECDBF80E039
:103590000E9494158FE492E00E9404098FE0E0E419
:1035A000F2E0DE01119601900D928A95E1F7E0E4D8
:1035B000F2E085E893E0DF019C011D92215030404C
:1035C000E1F78FE0FE013196A0E4B2E001900D92A8
:1035D0008A95E1F70E941E18182F0E941E18912F3D
:1035E00090936C0380936B0310926A0310926903AB
:1035F0001092850380E88093B6040E947B0681E0E8
:103600008093B3042F960FB6F894DEBF0FBECDBFE4
:10361000DF91CF911F910895AF92BF92CF92DF9229
:10362000EF920F931F93CF93DF93DC011A141B04C7
:10363000A4F590E1E5EFF1E0EF01892F19928A9569
:10364000E9F7F1E0F0930402F093F501E092FA015A
:103650004093FB015093FC016093FD017093FE01C8
:103660000093FF01109300022093010230930202A5
:10367000FD01A5ECB5E001900D929A95E1F7A50149
:10368000B60184E0DF91CF911F910F91EF90DF9011
:10369000CF90BF90AF900C942D17DF91CF911F91D9
:1036A0000F91EF90DF90CF90BF90AF9008952F9241
:1036B0003F924F925F926F927F928F929F92AF92C2
:1036C000BF92CF92DF92EF92FF920F931F93CF930F
:1036D000DF93CDB7DEB72A970FB6F894DEBF0FBEE3
:1036E000CDBF809177038111ABC681E080937703D2
:1036F0008091690390916A031C0121EC22223324FA
:103700002114310481F440918F0250919002609114
:10371000910270919202452B462B472B21F582FD99
:1037200030C00E94411A80917703815080937703C3
:103730008111DECF2A960FB6F894DEBF0FBECDBF43
:10374000DF91CF911F910F91FF90EF90DF90CF907D
:10375000BF90AF909F908F907F906F905F904F90B1
:103760003F902F90089596FF0CC09F7B90936A0323
:103770008093690365E572E28FE492E00E94CF08CE
:10378000D2CF0E94B1072B013C0180916903909137
:103790006A03FC01E270FF2781FF25C000919F02B0
:1037A0001091A0022091A1023091A202B901A801BA
:1037B00041575240610971094B835C836D837E835D
:1037C00093018201041B150B260B370B37FF0FC02B
:1037D0008D7D997F90936A03809369038BE090E0DD
:1037E0000E94790FA0CF1B821C821D821E829C0129
:1037F0002C733327232B09F40FC6BC01647277277F
:1038000078876F8393FF61C1730162017EE2D71AEB
:1038100076EBE70A74E9F70AA0916303B0916403B9
:10382000809184038F7021E030E0F90102C0EE0F37
:10383000FF1F8A95E2F7FA87E98790E080E040E091
:1038400061E070E09B01082E02C0220F331F0A9432
:10385000E2F7A217B30708F443C02A233B23232B24
:10386000D1F1FC01EE0FFF1FED5BFC4F2081318198
:1038700089849A8428213921232B69F1FC01EE0FD8
:10388000FF1FEE0FFF1FED53FD4F50815370252F8B
:1038900030E0FB0101C0EE0F5A95EAF7542F5E238A
:1038A000D1F44E2BE3E0220F331FEA95E1F7F90143
:1038B000E955FD4F00811181228133814601570175
:1038C000801A910AA20AB30A181419041A041B04D4
:1038D00014F46801790101968031910509F0B2CFA5
:1038E00030E020E090E080E001E010E0A801082E48
:1038F00002C0440F551F0A94E2F7A417B507B8F1A8
:10390000BD0164237523672B69F1FC01EE0FFF1FD6
:10391000ED5BFC4F60817181A984BA846A217B21AF
:10392000672B01F1242A352AFC01EE0FFF1FEE0F51
:10393000FF1FED53FD4FE081E37068E0E69FF0016B
:103940001124E955FD4F80809180A280B3808C18AE
:103950009D08AE08BF08181419041A041B0414F0BB
:10396000242B352B01968031910509F0BFCF3A8386
:10397000298380906503909066036091800370E0D6
:103980006F3F11F46FEF7FEFCE0101960E943B185D
:1039900029813A812095309582229322282039204E
:1039A000809065039090660328283928309266033A
:1039B0002092650397FF80938003C0927702D09294
:1039C0007802E0927902F0927A02809169039091F4
:1039D0006A03977F90936A038093690380916903D8
:1039E00090916A0320918103211102C090FF12C0BF
:1039F00040918702509188026091890270918A02F9
:103A000097018601041B150B260B370B37FF02C0ED
:103A10006A017B019C012270332781FF5FC08F8088
:103A2000988444E455E968E070E0892821F448ED81
:103A300058EB65E070E04C0D5D1D6E1D7F1D8B80A9
:103A40009C80AD80BE80481959096A097B0914160B
:103A50001506160617060CF041C040E1C501B40179
:103A60006C567A4F8D4F9F4F0E94AB190E947D116B
:103A7000809175039091760390937B0380937A03F2
:103A800080919F029091A002A091A102B091A20208
:103A900080937B0290937C02A0937D02B0937E0280
:103AA0008B809C80AD80BE80481859086A087B08CE
:103AB00077FCBBC48FE6A82E82E2B82EB0925602E5
:103AC000A09255020E94C8162ECEC0907702D090C8
:103AD0007802E0907902F0907A0280CFB301A201DF
:103AE0004F585D4F6F4F7F4F46015701841A950A1B
:103AF000A60AB70AB501A40177FF72C43090840307
:103B0000AF80B884AB2809F455C11091860385FDB8
:103B10004EC11092C30448E050E06CE972E084ECBE
:103B200094E00E94A43548E050E064E972E08CEC37
:103B300094E00E94A43590916B0380916C03909364
:103B4000D4048093D5040E94251743E150E063EC30
:103B500074E08AE00E942D176093D9047093D80412
:103B60008093D7049093D60487E18093C204809118
:103B70006B0390916C03019690936C0380936B039D
:103B80008DE393E19093560280935502E32DF0E08C
:103B9000EB51FD4F8491E091850320E2E29FF0011B
:103BA00011248F79E82BF0936803E0936703309238
:103BB0007C038091690390916A038F76967F806879
:103BC000986090936A0380936903A091800334E026
:103BD000A39FD0011124AD53BD4FCD90DD90ED904A
:103BE000FC908091C2044E2F477090E009F0CBC248
:103BF0000B96DC0103E0AA0FBB1F0A95E1F724E254
:103C000034EF0E94513620E533EC40E050E00E9452
:103C1000AD3549015A01D701C60183709927AA27FA
:103C2000BB272CEFC222C0928302D0928402E09282
:103C30008502F092860223E0880F991F2A95E1F70A
:103C4000805C9D4FFC01EB59FF4F108110937D0369
:103C50007C0137E6E30EF11C8D599F4FFC01A081DA
:103C6000B18194010E94CC35640D751D861D971D90
:103C7000D7016D937D938D939C93139780918103CE
:103C8000882399F004C0880C991CAA1CBB1C8A9537
:103C9000D2F7480C591C6A1C7B1C40928702509238
:103CA00088026092890270928A02809183031817B9
:103CB0000CF4812F80937E0381E190E00E94790FC4
:103CC00010927702109278021092790210927A0282
:103CD00081E00E94C513877059F080E00E9494151E
:103CE0000E94B107625C7F4F8F4F9F4F0E941D095A
:103CF00080907F0290908002A0908102B09082021A
:103D0000181419041A041B040CF0C5C281E00E94A7
:103D10009E158091830290918402A0918502B091BA
:103D2000860281349D4DAA44BF4108F4B1C283E6A6
:103D30009FEFE0913402F091350227817C01E20E81
:103D4000F11C27FDFA940E94B107615E7F4F8F4FEF
:103D50009F4F0E941D090E94B10710E0860E971E1A
:103D6000A81EB91E8BE10E94C513181708F4182F5E
:103D70000E94B107681979098A099B0997FDF2CF5A
:103D800080E00E94941580917F03082E000C990B0F
:103D9000E10EF11CE816F9060CF47DC260915502A3
:103DA00070915602E9CC832D0E947411382E115067
:103DB000D0F7AFCE4091930250919402609195025A
:103DC0007091960240385F4F6F4F7F4F18F06BE451
:103DD00072E2D2CC2091BF0421110DC04091970214
:103DE000509198026091990270919A024F3F5F4FF3
:103DF0006F4F7F4F61F37C0148E1E422FF2450E1E3
:103E0000E516F10409F457C1A0908B038091890352
:103E1000882309F452C180918004882309F44DC19C
:103E200000917F04002309F448C110E0A80161E873
:103E300074E08BEC94E00E94A33A085F1F4F10924D
:103E40007F04109280048091BA04882331F086FFA9
:103E500037C190E489278093BA048091BB048823FA
:103E600031F086FF3DC190E489278093BB048091A7
:103E7000BC04823009F044C181E08093BC04093164
:103E800011050CF061C18091B204882361F080912A
:103E90006D0390916E0397FF04C090E080E00E9454
:103EA0003A061092B2048A2C912C25E0820E911CC5
:103EB000F0E1EF16F10419F4E4E08E2E912C800E5F
:103EC000911E3FEF8316910411F00CF024C191E094
:103ED00040E1E416F10409F490E0E0918403E83055
:103EE00008F01EC1F0E0EC55FD4FE491E81519040F
:103EF00008F42AC180E48093C3048091B004409107
:103F0000B604482B20916D0330916E0337FD0AC132
:103F100021523109203B324008F404C120E488EFEB
:103F2000800F842B822B8093C80440918F023091A4
:103F3000900220919102809192024093C4043093A8
:103F4000C5042093C6048093C7048091BF048111E7
:103F500018C020918703211114C0409197025091FD
:103F600098026091990270919A024F5F5F4F6F4F74
:103F70007F4F4093970250939802609399027093F9
:103F80009A02209197023091980221503109209392
:103F9000C9043093CA041092B0049923D9F19091C6
:103FA0008A03992309F4C0C090E89093C304811157
:103FB00003C081E08093BF04F801ED53FB4F809173
:103FC00089038083C8018C539B4F6C01B12CA501E0
:103FD0006CE873E00E94A33A009197021091980256
:103FE0002091990230919A02015011092109310959
:103FF00040918F02509190026091910270919202D3
:104000008091890381119DC080E994E0F12CE12C1D
:104010000E940C1B84010450110980919702909119
:104020009802A0919902B0919A020197A109B10951
:1040300060918F02509190024091910230919202D2
:1040400020E175EFE72E71E0F72EF701A22E119215
:10405000AA94E9F779E47093F5011092FA010093BC
:1040600004026093FB015093FC014093FD013093E7
:10407000FE018093FF0190930002A0930102B09390
:104080000202E0E9F4E0A5ECB5E001900D922A957A
:10409000E1F7A80163EC74E082E00E942D17F801BB
:1040A000ED53FB4F63837283818390838092C204BC
:1040B00085E493E167CDA12CAECE08E010E0BFCE41
:1040C0009801205C3D4FF901ED57FD4F95E090833D
:1040D0002C573D4F8770D9018C930E5F1F4FBDCE7B
:1040E0009801205C3D4FF901ED57FD4F9AE0908318
:1040F0002C573D4F8370F90180830E5F1F4FB7CE61
:10410000882309F4BCCEF801ED53FB4F88E080838F
:104110000F5F1F4FB4CE480154E0850E911CDCCEDA
:10412000E0E0E4CE20E0FBCE80918203882309F416
:1041300043CF8091870381113FCF81E08093870334
:104140003BCF80EA94E062CF88E08093C004809106
:104150008A03811104C08091BF04882319F088E488
:104160008093C0048091690390916A0387769E7F53
:1041700090936A03809369031092C2041092C10461
:104180008AE090E02DCB66E0640F660F660F58E082
:10419000453008F450E013E0880F991F1A95E1F7B5
:1041A000861B91094C9620E130E0E7FF02C030E029
:1041B00020E0820F931F2F2F3327232B09F465C094
:1041C00024E130E0821B930B28E030E0181619063A
:1041D000CCF4651B70E0860F971F01970E94303664
:1041E000CF01A5E096958795AA95E1F7837090E0B9
:1041F0000596869F9001879F300D969F300D112464
:10420000285F3F4F220F331F220F331F2F5C3F4F7A
:104210004F5F63E0F695E7956A95E1F7E3704E1B13
:10422000E9E0FDE3453050F04450550BE9E0FDE393
:1042300002C0F595E7954A95E2F744E0C901330FCE
:10424000AA0BBB0B4C015D0104C0880C991CAA1C75
:10425000BB1C4A95D2F7A5019401A4E2B4EF0E94D9
:10426000CC359F01F7FF02C02F5F3F4F3595279553
:104270008901330F220B330B600F711F821F931FB5
:104280009F01FF0F440B550BC2CC30E020E09ACFCA
:104290008CE59FEF4ECD80916703877009F06AC06F
:1042A0000E94701581E00E94941580E00E94EA133C
:1042B00060E085E20E94D71365E086E20E94D71392
:1042C0000E947E140E94171469E28AE00E94D713AC
:1042D00064E380E40E94D7136091C2046F5F82E3BD
:1042E0000E94D7136091C20480E00E94D7134091CE
:1042F000C20450E020E063EC74E080E80E945C13AC
:1043000081E00E948F09609177027091780280911C
:10431000790290917A02611571058105910531F15B
:104320000E941D096115710581059105F9F0009143
:104330007102109172022091730230917402DC01BB
:10434000CB01800F911FA21FB31F80937102909326
:104350007202A0937302B0937402809175029091DF
:1043600076020196909376028093750283E00E9414
:104370009415D9C90E94821581E00E94C51387FD5A
:1043800006C061E273E08DE791E00E94890D81E053
:104390000E9494150E94CE140E947E1468E08AE068
:1043A0000E94D7130E94171464E389E30E94D71375
:1043B0006CE780E40E94D7136FEF82E10E94D7136D
:1043C00067EF81E10E94D71360E08EE00E94D7136F
:1043D00060E08DE00E94D7136091C20482E285CF35
:1043E000232B89F0C114D104E104F104C9F0D701F1
:1043F000C6018B809C80AD80BE8088199909AA096E
:10440000BB09B7FF33CBB701A60141575240610941
:10441000710929E632E20FC0EF2B09F027CB83C9DF
:10442000C12CD12C7601C394E2CF2FEC36E14B8125
:104430005C816D817E818FE492E00E94770873C970
:1044400082E08093770376C98091690390916A0333
:1044500083FF20C010928B0382FF1AC0877E909347
:104460006A038093690382E190E00E94790F809152
:10447000690390916A0385709927892B59F48FE419
:1044800092E00E94040980E00E9494150C94571B4E
:104490008776E5CF08950E9424220E94BC1A8CE002
:1044A00090E00E94790F0C94411AE9E6F3E08081D4
:1044B00091818E7D9F7B9183808310928F021092D9
:1044C000900210929102109292020E9424220C9467
:1044D000411A0C94571B0E94790F0C94571B4F9252
:1044E0005F926F927F928F929F92AF92BF92CF9284
:1044F000DF92EF92FF92CF93DF938091C2048823E3
:1045000009F4A8C0C0905702D0905802E090590218
:10451000F0905A02C09169020E94B00687FF9AC0CB
:10452000C37039F480E00E942712C4E0D0E0CE01CD
:10453000F0C02EEED21A8091570290915802C81AFC
:10454000D90A6091BD04662379F020916F03309100
:104550007003C601821B930B70E06F5F7F4F0E9458
:1045600030366901C60ED71E2091690222FD1DC09A
:10457000409173035091740380916F039091700385
:104580008C199D0997FF03C091958195910990938E
:104590007203809371034817590724F490937403AE
:1045A00080937303277F20936902D0927003C09297
:1045B0006F03109286031092BD04809169028B7F75
:1045C00080936902C4E0D0E0C0905702D0905802B6
:1045D000E0905902F0905A0282E1D80E8AE7E81E74
:1045E000F11C80906F0390907003092C000CAA08B6
:1045F000BB084090710350907203052C000C6608B4
:1046000077082091BD04A0917303B091740330E04A
:104610000E945136460E571E681E791E83E00E9486
:104620001C129B01AC01C301B2010E94AD35DA013D
:10463000C9010596A11DB11D811524E09207A105B0
:10464000B1050CF476C08FEF93E090937B038093D9
:104650007A0375C0C0906F03D09070030D2C000CCE
:10466000EE08FF0860E072E18AE790E06C197D09CE
:104670008E099F09C0905702D0905802E0905902CD
:10468000F0905A026C0D7D1D8E1D9F1D6093570288
:10469000709358028093590290935A02C0905B0223
:1046A000D0905C02E0905D02F0905E0220E8C20EC5
:1046B000D11CE11CF11CC0925B02D0925C02E09222
:1046C0005D02F0925E022091BD042F5F2093BD0435
:1046D0006C567A4F8D4F9F4F44E00E94AB198091EA
:1046E000BD048A3350F48091750390917603C3E042
:1046F000D0E08F35914008F467CF809169039091A5
:104700006A038D7D997F90936A03809369038BE0A0
:1047100090E0DF91CF91FF90EF90DF90CF90BF902E
:10472000AF909F908F907F906F905F904F900C9480
:104730006B22B7FF8ACF10927B0310927A0383E03B
:104740000E941C129B01AC01ADEFBFEF0E94CC3563
:10475000860E971EA81EB91EC818D908EA08FB08BD
:10476000C0929F02D092A002E092A102F092A20217
:1047700080917A0390917B039093760380937503E5
:10478000D6CECF938091690390916A0387779093F7
:104790006A0380936903109287031092BF042091EB
:1047A0007F04222351F030918004332309F471C037
:1047B000806190936A03809369030E94B1076E5EE3
:1047C00075488F4F9F4F40E00E94AB198091C00405
:1047D000877079F08091690390916A0394FF09C012
:1047E0009F7E90936A03809369038FE090E00E941C
:1047F000790F8AE090E00E946B2280916D03909186
:104800006E0381979CF1809184030E947411C82FDC
:104810000E94600590918403811101C0C92F9C13EF
:1048200042C080916D0390916E03813F92404CF0A5
:104830008091690390916A03906490936A038093D6
:10484000690360E18C2F0E948D058091690390912E
:104850006A039C01306130936A032093690328172F
:10486000390721F08EE090E00E94790F2091BE047C
:10487000222361F08091690390916A0381FF1AC03D
:1048800082E090E00E94790F1092BE0481E0CF9107
:10489000089510928A031092890320938B0310923B
:1048A0007F04886086CFCC2361F290E080E00E9494
:1048B0003A06C7CF21502093BE042111E7CF409183
:1048C0008F02509190026091910270919202452B5B
:1048D000462B472BD9F29C0124743327232BB1F6A6
:1048E000109269021092B0041092BF048E7781601A
:1048F00090936A03809369030E947D110E94B1071F
:10490000AB01BC014C5D594F64487F4F4093570247
:10491000509358026093590270935A0240937B025D
:1049200050937C0260937D0270937E022AEF34E202
:104930008FE492E00E94770881E00E944C16A6CF97
:104940008091BF048823B1F1883020F58F5F809378
:10495000BF0480FF07C0809184030E94741160E847
:104960000E948D0560917B0270917C0280917D0296
:1049700090917E0243E00E94AB198091690390916F
:104980006A038F7790936A03809369030E94571B91
:1049900081E0089580E68093C00480916D0390913A
:1049A0006E0301960E943A061092C2041092C1044E
:1049B0000C94C12380918703882379F0909182031E
:1049C000891758F48F5F809387030E94B1076E5E4A
:1049D00075488F4F9F4F40E0CECF80E2DCCF809173
:1049E0008803811103C081E08093880385E090E013
:1049F0000C946B2280E00E9494158FE492E00E9458
:104A000004098091C20481110DC0809169039091C5
:104A10006A038C7F90936A038093690381E090E03E
:104A20000C946B220E94B00687FD13C01092C20442
:104A300081E00E944C1640915702509158026091BB
:104A4000590270915A022AEF34E28FE492E00C94FA
:104A5000770881E00E9427128091690390916A0390
:104A60008E7F826090936A038093690382E090E076
:104A7000D7CFCF92DF92EF92FF920F931F93CF93F6
:104A8000DF9300D0CDB7DEB78091690390916A03C0
:104A900082FD24C085FD11C08F7790936A038093B7
:104AA000690381E00F900F90DF91CF911F910F91DB
:104AB000FF90EF90DF90CF9008958F7590936A03E9
:104AC00080936903809186038A3018F48F5F809306
:104AD000860389E090E00E946B22E3CF8F7790936A
:104AE0006A038093690384E190E00E94790F87E074
:104AF00090E09A8389838091650390916603892B66
:104B000049F48091840311E0882329F00E947411F4
:104B10008093840310E06091800370E0CE010196E1
:104B20000E943B1897FF80938003809169039091C6
:104B30006A03977F90936A03809369030E94B10789
:104B40006B017C018091A7029091A802A091A9021B
:104B5000B091AA02B701A601481B590B6A0B7B0B47
:104B600077FF02C06C017D01209184038FEF90E0FC
:104B700002C0959587952A95E2F70E947D196459A0
:104B800073428D4F9F4FC60ED71EE81EF91EC0926E
:104B90007702D0927802E0927902F0927A02C12EE6
:104BA000D12CF12CE12C112381F00FEE15E20E94A3
:104BB000B107AB01BC014C0D5D1D6E1D7F1D980141
:104BC0008FE492E00E9477086CCF09E612E2EFCF03
:104BD0008091C00480FF0C94392580E0089588E01E
:104BE00090E00C946B22CF92DF92EF92FF920F93A2
:104BF0001F93CF93DF938091C00480FF05C0809105
:104C0000C204882309F429C18091690390916A0341
:104C100087FF1CC184729927892B51F4DF91CF91B2
:104C20001F910F91FF90EF90DF90CF900C94E825AB
:104C30001091C20411110AC0DF91CF911F910F9101
:104C4000FF90EF90DF90CF900C943925113111F047
:104C5000113221F78091C304837E8032F9F6C12F8F
:104C6000D0E00E942517AE014150510964EC74E078
:104C700080E00E942D170E9425172497AE0163EC57
:104C800074E08AE00E942D176B017C01CD53DB4F4D
:104C9000688179818A819B810E944A36C616D7062F
:104CA000E806F90609F0BACF8AEC94E00E948C0677
:104CB00060938F027093900280939102909392027E
:104CC00087EC94E00E948C06992760938B02709386
:104CD0008C0280938D0290938E0280E00E94E919ED
:104CE0001132F9F48091DF0481111BC080EDE82EB0
:104CF00084E0F82EC3E0C7010E949206AB01BC011C
:104D0000411551056105710531F00FEF30E020E0EC
:104D10008C2F0E949B11CF5F83E0E80EF11CC830FE
:104D200051F780916B0390916C030197E8E9F4E0EF
:104D300028E0DF011D922A95E9F721E020939004F5
:104D400026E0E4ECF4E0A1E9B4E001900D922A95AC
:104D5000E1F7809397049093980480E1E0E9F4E010
:104D6000A0EAB4E001900D928A95E1F782E0809389
:104D7000A0040E94251740E150E060E974E080E063
:104D80000E942D170E94251740E150E060EA74E070
:104D900080E00E942D178091690385FF09C0C091B2
:104DA000860380918403C15008F052C0809384032D
:104DB0008091690390916A0389759D7F98609093B3
:104DC0006A03809369031092BF04109297021092B5
:104DD00098021092990210929A02109293021092E5
:104DE00094021092950210929602109286031092ED
:104DF000B2041092B1041092B00410928203109287
:104E000087031092BA041092BC041092BB04109253
:104E1000B7040E947B0685E08093C20580EC9FEF7B
:104E20000E943A068091CE04982F9F709093B90407
:104E3000829587708093B8048091CF04882359F0BD
:104E40008093B30486E090E00E946B2281E006C06C
:104E50000E947411A8CF81E0F3CF80E0DF91CF9161
:104E60001F910F91FF90EF90DF90CF900895809168
:104E7000C20481110AC02091B9044DE157E168EDE7
:104E800078EB85E090E00C947B120E94F325882358
:104E900091F308958091C204811102C01092C00460
:104EA0000C94F325AF92BF92CF92DF92EF92FF92D4
:104EB0000F931F93CF93DF93E8988EEB93E090933B
:104EC0000101809300018091270280FF84C08DE45E
:104ED00092E00E94B10489E48093DC01D0E0C0E05C
:104EE00080E2C82E82E0D82E9CEDE92E91E0F92ECA
:104EF00026E2A22E22E0B22E8701F601A191B19105
:104F00006F0114968C911497811105C01A968C919B
:104F10001A97882391F012968C911297F801818349
:104F2000ED91FC9111970280F381E02DCD0109955F
:104F3000F80162837383848395830B5F1F4FAC14E6
:104F4000BD04D9F682E492E00E94B104CE018452FD
:104F50009E4F009711F00E94620B8EE591E00E9437
:104F6000C30B83E392E00E94B104F70181917F01BA
:104F700090E00E94A40D81E392E00E94B104FCEE57
:104F8000EF16F1E0FF0689F78EE591E00E94C30B72
:104F90008091690390916A0387FF22C088E192E0C3
:104FA0000E94730B1092270286EF99E09093010103
:104FB0008093000180916900836080936900E89A82
:104FC000DF91CF911F910F91FF90EF90DF90CF90E5
:104FD000BF90AF9008951092DC01C1E0D0E080CF87
:104FE0008C799927892BD9F400918403C02FD0E0C4
:104FF0008C2F0E946005882391F0C83080F4FE0158
:10500000EC55FD4FE491EE2351F0ED3108F056C020
:10501000FE01EA51FD4FE4912196EF3F49F780915F
:10502000690390916A039C012C793327232BF9F4AF
:1050300020E1ECEDF1E0ACE8B3E001900D922A95AF
:10504000E1F710928A0321E02093890320E1209365
:105050008B039C01286030936A032093690382FDCF
:1050600004C01092BF04109287030E94571B0E9435
:10507000B1076093D8017093D9018093DA019093BE
:10508000DB014AE00E947F0B85E192E00E94B104BF
:1050900087E092E00E94730B81E092E00E94B104ED
:1050A00060918302709184028091850290918602C2
:1050B0004AE00E947F0B0E946F0B74CF0C1709F41B
:1050C000AECF60E88C2F0E948D05A9CF2F923F9222
:1050D0004F925F926F927F928F929F92AF92BF9208
:1050E000CF92DF92EF92FF920F931F93CF93DF93B4
:1050F000CDB7DEB7C754D1090FB6F894DEBF0FBEE7
:10510000CDBF26969FAF8EAF26974B0110927F049E
:10511000452B11F510928004F12CE12CE814F904D0
:10512000FCF0C701C95BDF4F0FB6F894DEBF0FBEBE
:10513000CDBFDF91CF911F910F91FF90EF90DF9046
:10514000CF90BF90AF909F908F907F906F905F9027
:105150004F903F902F90089581E080938004DCCFA2
:105160002696CEACDFAC2697CE0CDF1CF6018081F4
:10517000823060F1282F2250330BF90122313105A2
:1051800028F5EB59FD4FE4912E2F30E028963FAFE4
:105190002EAF28972115310521F25401AE18BF0812
:1051A000A216B3060CF4BDCF8250893088F4E82FE4
:1051B000F0E0E352F74D0C944436E928F328952AA1
:1051C0003B2A0F2AA62A862AE828FA2AE0E0DCCF22
:1051D00047012896EEADFFAD2897EE0DFF1D740137
:1051E00047017F019BCF360107E0512C412CC501BF
:1051F0008419950905970CF493C0F3011181312EA0
:105200003294AFE03A229481907731F0903649F1B0
:105210000E7F27C02901EBCF6281738140E452E009
:1052200030E020E0E1E0F0E0022E02C0EE0FFF1FD0
:105230000A94E2F7E623F723EF2B61F0FA01ED572A
:10524000FF4F80819181A281B3818C7F892B8A2B32
:105250008B2BF1F22F5F3F4F4C5F5F4F20313105B9
:1052600009F7832D0E945013811101C00D7F1F701B
:10527000183038F4E12FF0E0E457FD4FE491E038C6
:1052800009F40B7F92012B5F3F4FF5E06F0E711C0D
:10529000F3018081833009F4BDCF3201F5E06F0E58
:1052A000711C80E4E3ECF2E0DE01119601900D92B6
:1052B0008A95E1F7A0906303B0906403073009F08A
:1052C000A9C01301F60141E024961FAE249710E017
:1052D00025E0221631040CF44EC01181348124964D
:1052E0003FAF2497832F8077E9F0803611F18091CA
:1052F00063039091640325E0221A3108359641E05A
:10530000009709F440E09F012C193D092615370547
:10531000FCF2892B91F1312E32948FE0382234C087
:1053200000E0BBCF828193819093640380936303F9
:10533000DECFA3ECB2E090E080E030E020E04D91E1
:105340005D916D917D914C7F452B462B472B51F004
:1053500041E050E0082E02C0440F551F0A94E2F7C6
:10536000242B352B01968031910549F73093640346
:1053700020936303BCCF411101C006E0312E32946B
:10538000EFE03E22073039F4832D0E94600507E0EC
:1053900081110EC005E080E4FE013196A3ECB2E07D
:1053A00001900D928A95E1F7B0926403A092630395
:1053B000AA24A394D12CC12CC3018C199D09059753
:1053C0006CF0602F83E00E946506A82E35E0C30EC6
:1053D000D11CC614D70414F48111EECF0730A9F400
:1053E00024968FAD24978F709091820389138093B8
:1053F00082031F7060E8183028F4E12FF0E0E457D2
:10540000FD4F6491832D0E948D05E40CF51CAA20AC
:1054100029F1DFCE24961FAE249710E0AFCF209164
:105420007903022E000C330BC901029697FD0396F7
:105430009595879595958795182F1F734F970CF025
:105440001FE11093B504D0904E0200917F0486E0D6
:105450000E944606811104C000937F04F701C0CE6C
:105460008D2D0E9446068823B9F3812F0E9446069F
:10547000882391F3AECEF6018181082F0F7090E062
:1054800064E0959587956A95E1F7182F1770C70125
:10549000029626962EAD3FAD2697820F931F0E944F
:1054A00092062B013C0130EC3093BA04802F0E940D
:1054B0005013882329F08091BA0482608093BA0443
:1054C000411451046104710429F08091BA0481608F
:1054D0008093BA04143028F48091BA0484608093D5
:1054E000BA046091BA04673C61F40093B904409235
:1054F0009B0250929C0260929D0270929E021093B9
:10550000B804677085E00E9465060DC0F6018181D0
:105510008F7009F481E08093B304F2E0F093BC044F
:1055200088E00E944606A82E72CFF60181818F7016
:10553000809381030E94B107609387027093880271
:105540008093890290938A0284E0EBCFC701029690
:1055500026962EAD3FAD2697820F931FFC0110813A
:10556000F601A380B4800E9492062B013C01F60153
:105570000581411451046104710421F41A29B12AEE
:1055800012E009F413E0B02EB2945FE0B5220F7080
:10559000B01620F41D7F612F87E0B5CFF601D180D2
:1055A0008B2D0E9450138823A9F3802F0E94501343
:1055B000882381F31330E1F48FE090E08B19910997
:1055C0002FEF3FEF02C0369527958A95E2F78FEFD0
:1055D0009FEF02C0880F991F0A95E2F7282339230D
:1055E0000FEFB301A2018D2D0E949B118111D3CF2A
:1055F00012E0D1CFF6010181C701029626962EADA9
:105600003FAD2697820F931F0E94920613E061150B
:1056100071058105910509F412E0013150F5E02F83
:10562000F0E041E050E002C0440F551F0A95E2F758
:10563000209163033091640324233523232B51F4F9
:105640001D7F612F8AE00E946506A82E106C1093C2
:10565000BB04DDCE133079F49F01220F331F220FDC
:10566000331FF901ED5FFC4F608371838283938365
:10567000E8CF10E0E6CF12E0E4CF2F923F924F92B6
:105680005F926F927F928F929F92AF92BF92CF92D2
:10569000DF92EF92FF920F931F93CF93DF9300D08F
:1056A00000D000D0CDB7DEB78091690387FFE7C196
:1056B000F090C204F1101AC026960FB6F894DEBF1F
:1056C0000FBECDBFDF91CF911F910F91FF90EF9053
:1056D000DF90CF90BF90AF909F908F907F906F9012
:1056E0005F904F903F902F900C94A0242F2D30E08E
:1056F0003E832D832C30310544F41092C2048091F6
:10570000C00480FFD9CF80E0BBC18091C304982F33
:10571000937099F7807E8983803611F0803A69F71B
:1057200084EC94E00E948C0600918F02109190020C
:1057300020919102309192026017710782079307BE
:10574000E1F63091C8043B833F70E32EC32ED12C89
:105750001601A8E02A0E311C2D813E81245031090A
:105760003E832D832215330544F288248A94982C95
:10577000221633064CF4F101ED53FB4F2081822EAB
:10578000912CD60119961D014090930250909402DD
:1057900060909502709096020091C9041091CA041D
:1057A000041915090F3F100709F078C021E0421ACB
:1057B00051086108710820E1E5EFF1E0DF01322FC7
:1057C0001D923A95E9F739E43093F50131E03093D1
:1057D000FA01ACEFAF0DAC83A09304026093FB0120
:1057E0007093FC018093FD019093FE014092FF01B4
:1057F000509200026092010270920202E0E9F4E02D
:10580000A5ECB5E001900D922A95E1F74D815E81FE
:1058100063EC74E082E00E942D179B01AC01ED81E6
:10582000FE81ED53FB4F60817181828193810E94E3
:105830004A36261737074807590709F05ECF809187
:10584000930290919402A0919502B091960248160D
:1058500059066A067B0638F584159505A605B70531
:105860000CF44BCF0197A109B109481659066A06F5
:105870007B0609F042CF8091B104882309F43DCF23
:10588000B981B03A09F039CF80E28093B004811435
:10589000910409F40EC101E010E033C0400E511E26
:1058A000611C711C88CF0130104408F026CFD30151
:1058B000C2010196A11DB11D8093930290939402A1
:1058C000A0939502B0939602398180E2303A09F0B4
:1058D00080E08093B1048093B00410E000E0811474
:1058E000910441F4EE2031F08D819E812816390615
:1058F0000CF403CF8091B004811103C09B8194FF0D
:1059000009C08091690390916A03806190936A0352
:1059100080936903109286031092B20480EC9FEF8B
:105920000E943A061092BA041092BC041092BB0472
:10593000E0916703F09168038E2F877033E0F6954E
:10594000E7953A95E1F7E370F0E0A3E08A9FE00D78
:10595000F11D1124E958FD4FE49180917803082E40
:10596000000C990B80549109ED58FF0B8E1B9F0B77
:1059700097FD80E08093B404A401B6018BEC94E021
:105980000E946628012B09F0B8CEBFEF8B169B064C
:1059900099F12D813E81221933093E832D83121600
:1059A000130654F5C1018D539B4F9A83898340910F
:1059B0008F0250919002609191027091920280E961
:1059C00094E08114910411F080EA94E0AD80BE80EF
:1059D000C980DA80EE24E394F12C930182010E94C5
:1059E0000C1B8114910441F450E040E06D817E81F4
:1059F00089819A810E9466289091BF04992349F079
:105A0000AB8120E8A5FF20E48091C004822B809325
:105A1000C0048091C004181419043CF18062809382
:105A2000C0042092C1041092C204992321F08091F5
:105A3000C00486FD41CE26960FB6F894DEBF0FBE99
:105A4000CDBFDF91CF911F910F91FF90EF90DF902D
:105A5000CF90BF90AF909F908F907F906F905F900E
:105A60004F903F902F900C94C12380618093C0048D
:105A70002092C104FC80F218F092C204D6CF81E0DB
:105A800026960FB6F894DEBF0FBECDBFDF91CF9143
:105A90001F910F91FF90EF90DF90CF90BF90AF904C
:105AA0009F908F907F906F905F904F903F902F903E
:105AB0000895EE2009F4EFCE01E010E015CF8091BB
:105AC000C20481110EC0A091B304B0E0119624E28B
:105AD00034EF0E9451362091B90445E157E10C940E
