:100000000C9457020C94112F0C94EA2E0C947F023E
:100010000C947F020C947F020C94902F0C947F021E
:100020000C947F020C947F020C947F020C947F024C
:100030000C947F020C947F020C947F020C947F023C
:100040000C94A02E0C947F020C945E2F0C94382FED
:100050000C947F020C947F020C947F020C947F021C
:100060000C947F020C947F02556E6B6E6F776E203E
:100070006576656E743A200045565F4A4F494E5F7B
:100080005458434F4D504C4554453A206E6F204ACA
:100090006F696E4163636570740045565F545843E1
:1000A000414E43454C45440045565F5458535441D6
:1000B00052540045565F4C494E4B5F414C495645A2
:1000C0000045565F4C494E4B5F4445414400455600
:1000D0005F5258434F4D504C4554450045565F5272
:1000E000455345540045565F4C4F53545F54535944
:1000F0004E4300206279746573206F6620706179C9
:100100006C6F6164005265636569766564200052B6
:10011000656365697665642061636B004469666642
:100120002028736563293A200045565F5458434F91
:100130004D504C4554452028696E636C7564657359
:100140002077616974696E6720666F72205258204B
:1001500077696E646F7773290045565F52454A4F41
:10016000494E5F4641494C45440045565F4A4F4918
:100170004E5F4641494C4544002D004E776B534B32
:1001800065793A20002D00417070534B65793A2013
:1001900000646576616464723A20006E6574696417
:1001A0003A200045565F4A4F494E45440045565F48
:1001B0004A4F494E494E470045565F424541434FDD
:1001C0004E5F545241434B45440045565F424541C2
:1001D000434F4E5F4D49535345440045565F42459A
:1001E00041434F4E5F464F554E440045565F534383
:1001F000414E5F54494D454F5554005D3A20005BD8
:1002000000465245513D005061636B657420717525
:1002100065756564003A20004F505F54585258503D
:10022000454E442C206E6F742073656E64696E6752
:100230000020005061796C6F616420686578203A15
:10024000200053656E64696E67203A2000496E7421
:10025000206F6E2070696E20320A000000000023BB
:100260000026002900030502050106020205000020
:10027000060000010504042020200E11140C0F12AA
:10028000090C0F06090C030609000306100E0C0AE0
:1002900008060402F7ECC38830DB06F40000000017
:1002A0000000000040404080FFFFFFFF000400000E
:1002B000000200000001000080000000400000007B
:1002C000200000001000000005000000A027BE3341
:1002D000E034C1332042C433A127BE33E134C133FB
:1002E0002142C433FF0605040302010900FFC04098
:1002F000008025DB33A191D63350CED533C2FDD15A
:1003000033C0C8C53341DA8E335374617274696E79
:100310006700310032003400380000000000670040
:10032000CC00B80154039D070A57616B696E6720C2
:100330007570202100456E746572696E6720736C5C
:10034000656570206D6F64652E2E2E000000000024
:10035000240027002A0000000000250028002B00B0
:10036000040404040404040402020202020203035B
:100370000303030301020408102040800102040863
:1003800010200102040810200000000800020100F3
:10039000000304070000000000000000D1D23A452D
:1003A000037C2058F59B2C5F27EFF84D637C777B0F
:1003B000F26B6FC53001672BFED7AB76CA82C97D61
:1003C000FA5947F0ADD4A2AF9CA472C0B7FD9326F2
:1003D000363FF7CC34A5E5F171D8311504C723C3F6
:1003E0001896059A071280E2EB27B27509832C1A3A
:1003F0001B6E5AA0523BD6B329E32F8453D100ED94
:1004000020FCB15B6ACBBE394A4C58CFD0EFAAFB77
:10041000434D338545F9027F503C9FA851A3408F3F
:10042000929D38F5BCB6DA2110FFF3D2CD0C13EC57
:100430005F974417C4A77E3D645D197360814FDCEC
:10044000222A908846EEB814DE5E0BDBE0323A0AD0
:100450004906245CC2D3AC629195E479E7C8376D54
:100460008DD54EA96C56F4EA657AAE08BA78252E79
:100470001CA6B4C6E8DD741F4BBD8B8A703EB56602
:100480004803F60E613557B986C11D9EE1F89811F3
:1004900069D98E949B1E87E9CE5528DF8CA1890DE2
:1004A000BFE6426841992D0FB054BB16A72F112407
:1004B0001FBECFEFD8E0DEBFCDBF11E0A0E0B1E0BE
:1004C000EEEBF4E702C005900D92AC3CB107D9F712
:1004D00026E0ACECB1E001C01D92AD37B207E1F708
:1004E00012E0C7E5D2E004C02197FE010E948335E7
:1004F000C635D107C9F70E94DA2F0C945D3A0C94E7
:100500000000FC0120E1215008F4089580E0211151
:1005100081819081990F87FD91609193F4CF8091B3
:100520005603909157039C0136952795257535758F
:10053000821B930B9C012373337396958795969535
:10054000879583739373820F931F9C01207F307F65
:100550008F709F7064E0880F991F6A95E1F7820F92
:10056000931F9C013327892F9927820F931F08958A
:10057000BC01E4EBF4E090E080E030E020E0419169
:10058000942748E0DC01880F991FB7FF04C051E2AF
:10059000852750E195274150A9F72F5F3F4F261738
:1005A000370769F70895833081F028F4813099F096
:1005B0008230A9F008958730A9F08830C9F08430DE
:1005C000B1F4809180008F7D03C0809180008F778F
:1005D00080938000089584B58F7784BD089584B595
:1005E0008F7DFBCF8091B0008F778093B00008950E
:1005F0008091B0008F7DF9CF1F93CF93DF93282F89
:1006000030E0F901E857FC4F8491F901EC58FC4FB8
:10061000D491F901E05AFC4FC491CC23A9F0162FD4
:1006200081110E94D302EC2FF0E0EE0FFF1FEA5A77
:10063000FC4FA591B4918FB7F894EC91111108C0BB
:10064000D095DE23DC938FBFDF91CF911F9108956A
:10065000DE2BF8CFCF93DF9390E0FC01EC58FC4FFA
:100660002491805A9C4FFC0184918823C9F090E02A
:10067000880F991FFC01E45BFC4FA591B491FC012C
:10068000EA5AFC4FC591D49161110DC09FB7F894FF
:100690008C91209582238C938881282328839FBF67
:1006A000DF91CF910895623051F49FB7F8943C9157
:1006B000822F809583238C93E8812E2BEFCF8FB7E9
:1006C000F894EC912E2B2C938FBFEACF3FB7F89480
:1006D00080912D0290912E02A0912F02B0913002B4
:1006E00026B5A89B05C02F3F19F00196A11DB11D8D
:1006F0003FBFBA2FA92F982F8827BC01CD01620FC9
:10070000711D811D911D43E0660F771F881F991F82
:100710004A95D1F708958F929F92AF92BF92CF9250
:10072000DF92EF92FF926B017C010E9466034B0106
:100730005C01C114D104E104F104B9F00E94660324
:10074000681979098A099B09683E734081059105FA
:1007500080F321E0C21AD108E108F10888EE880E82
:1007600083E0981EA11CB11CE4CFFF90EF90DF90B6
:10077000CF90BF90AF909F908F9008950895AF92C3
:10078000BF92CF92DF92EF92FF920F931F93CF937E
:10079000DF936C017B018B01040F151FEB015E01E0
:1007A000AE18BF08C017D10759F06991D601ED9175
:1007B000FC910190F081E02DC6010995892B79F714
:1007C000C501DF91CF911F910F91FF90EF90DF90C6
:1007D000CF90BF90AF900895FC01538D448D252F8D
:1007E00030E0842F90E0821B930B541710F0CF96CB
:1007F000089501970895FC01918D828D981761F0FD
:10080000A28DAE0FBF2FB11D5D968C91928D9F5F13
:100810009F73928F90E008958FEF9FEF0895FC01F2
:10082000918D828D981731F0828DE80FF11D858DA5
:1008300090E008958FEF9FEF0895FC01918D228D38
:10084000892F90E0805C9F4F821B91098F739927BD
:1008500008958AED95E00E941D0421E0892B09F49A
:1008600020E0822F089580E090E0892B29F00E94FB
:10087000290481110C9400000895FC01A48DA80F97
:10088000B92FB11DA35ABF4F2C91848D90E00196D2
:100890008F739927848FA689B7892C93A089B189F2
:1008A0008C91837080648C93938D848D981306C093
:1008B0000288F389E02D80818F7D80830895EF92F7
:1008C000FF920F931F93CF93DF93EC0181E0888F0A
:1008D0009B8D8C8D98131AC0E889F989808185FFDA
:1008E00015C09FB7F894EE89FF896083E889F9897C
:1008F00080818370806480839FBF81E090E0DF917E
:10090000CF911F910F91FF90EF900895F62E0B8DD0
:1009100010E00F5F1F4F0F731127E02E8C8D8E118B
:100920000CC00FB607FCFACFE889F989808185FFF2
:10093000F5CFCE010E943D04F1CFEB8DEC0FFD2FE2
:10094000F11DE35AFF4FF0829FB7F8940B8FEA89AD
:10095000FB8980818062CFCF682F8AED95E00C946F
:100960005F040F931F93CF93DF938C01D0E0C0E01F
:10097000F801EC0FFD1F6491662341F08AED95E0CC
:100980000E945F04892B11F02196F2CFCE01DF91F6
:10099000CF911F910F910895CF93DF93EC01888D34
:1009A0008823B9F0AA89BB89E889F9898C9185FDEA
:1009B00003C0808186FD0DC00FB607FCF7CF8C9178
:1009C00085FFF2CF808185FFEDCFCE010E943D04EF
:1009D000E9CFDF91CF910895E6ECF5E08481958130
:1009E000948396819583978196838783808592856A
:1009F0009087828781859385918783878785968570
:100A00009787958596879485958784870895CF9352
:100A100026EC35E0BC01605F7F4FDC01F90140E06E
:100A2000CD9150815C2750834F5F34964430C1F79D
:100A30002F5F3F4F04968617970779F7CF91089558
:100A40000F931F936115710581059105F9F00091D0
:100A50005C0210915D0220915E0230915F02DC0128
:100A6000CB01800F911FA21FB31F80935C02909354
:100A70005D02A0935E02B0935F028091600290914C
:100A80006102019690936102809360021F910F9121
:100A90000895FC01208131812115310519F490E080
:100AA00080E008952617370749F4FB012081318142
:100AB000FC013183208381E090E00895C901E9CFF2
:100AC000609154037091550321E030E002C0220F81
:100AD000331F8A95E2F790E080E0A1E0B0E0AD013D
:100AE000082E02C0440F551F0A94E2F746235723ED
:100AF000452B59F0FC01EE0FFF1FEC5CFC4F4081D1
:100B0000518142235323452B31F4019680319105C5
:100B100031F780E0089581E00895982F6038C1F0A2
:100B2000809174036817A1F06093740381E02091B1
:100B30007503291761F09093750380915A03909182
:100B40005B03986090935B0380935A0381E0089560
:100B500080E0EDCF4F925F926F927F928F929F9243
:100B6000AF92BF92CF92DF92EF92FF920F931F93BB
:100B7000CF93DF936B017C0149015A01E801609139
:100B80003D0270913E026115710531F0673041E020
:100B9000740710F066E071E090E080E0A701960134
:100BA0000E949735722E032F142FB52FF62FE72FA3
:100BB000582E692EA0E00E94DE3684F421503109BF
:100BC0004F4F5F4F6F4F7F4F8F4F9F4F722E032FAF
:100BD000142FB52FF62FE72F582E692E272D302FE3
:100BE000412F5B2F6F2F7E2F852D962D00E10E94C8
:100BF000C13629013A01A5019401220F331F441F78
:100C0000551FC301B201660F771F881F991F620F1E
:100C1000731F841F951F64587F4F8F4F9F4F0E94F3
:100C2000EC342C0F3D1F63E87FEF8FEF9FEF6419CB
:100C3000750986099709211544E0340710F02FEF54
:100C400033E030936C0320936B036C0D7D1D8E1D80
:100C50009F1DDF91CF911F910F91FF90EF90DF903B
:100C6000CF90BF90AF909F908F907F906F905F904C
:100C70004F90089520915E0330915F0320383F4FDD
:100C800021F090935F0380935E030895982F8091E5
:100C90007104E0917004882361F0EF30A0F481E0EA
:100CA0008E0F80937004F0E0EE58FB4F908381E04C
:100CB0000895E33F48F481E08E0F80937004F0E0E4
:100CC000E358FC4FF3CF80E00895CF93DF93C62F16
:100CD000D09170040E944606811106C0D093700422
:100CE00080E0DF91CF9108958C2F0E9446068823E3
:100CF000A9F381E0F6CF1092A9041092AA0488E02B
:100D000096EEA3EDB3E380938C0290938D02A093B3
:100D10008E02B0938F020895FC01608171818281FF
:100D2000938108950F931F9301970E948C06272F9C
:100D3000382F492F5527A4E6B0E00E940B358B01D0
:100D40009C01005C154520473343013C1F4C2A465B
:100D5000310518F060E070E0CB011F910F9108950C
:100D60000F931F93CF938091B304813109F088C012
:100D7000C091BB0487E090E00E94B802C81709F454
:100D80007FC084EB94E00E948C06992700917C023E
:100D900010917D0220917E0230917F020617170785
:100DA0002807390709F06EC0C0915A02CC7FC09362
:100DB0005A0280916A03809359028091690380935B
:100DC000580280916C0290916D02A0916E02B091D8
:100DD0006F0280549342A109B10980934802909315
:100DE0004902A0934A02B0934B0287EB94E00E9421
:100DF0008C0660934C0270934D0280934E02909348
:100E00004F028C2F816080935A020091C30410918D
:100E1000C4048FE090E00E94B80280179107A1F50A
:100E20008CEB94E00E948C06672F782F892F9927EE
:100E300087FD9A95609350027093510280935202FD
:100E4000909353028FEB94E00E948C06672F782FCB
:100E5000892F992787FD9A956093540270935502C4
:100E600080935602909357028091BC0480935B025A
:100E7000C360C0935A0281E0CF911F910F910895F2
:100E80008EEFFACF8FEFF8CF80E0F6CFF894809115
:100E9000E7018F5F8093E70108950F931F93AB01E4
:100EA000BC012091E301DC01CA013CE1B695A795A4
:100EB000979587953A95D1F782278870820F80930E
:100EC000E301E4E07695679557954795EA95D1F764
:100ED0009B01382BC901BA011F910F9108954F92C0
:100EE0005F926F927F928F929F92AF92BF92CF92BA
:100EF000DF92EF92FF922B013C010E9466034B01AF
:100F00005C01C090DF01D090E001E090E101F09041
:100F1000E201C701B601680D791D8A1D9B1D0E9463
:100F20004D07C40CD51CE61CF71CC092DF01D09203
:100F3000E001E092E101F092E201C701B601680D23
:100F4000791D8A1D9B1DFF90EF90DF90CF90BF9081
:100F5000AF909F908F907F906F905F904F900C9488
:100F60004D070F931F930E9466030091DF011091BC
:100F7000E0012091E1013091E201600F711F821FB9
:100F8000931F1F910F910C944D078F929F92AF92D8
:100F9000BF92CF92DF92EF92FF92E0912702F09101
:100FA0002802309791F06B017C0182809380A480AD
:100FB000B5800E94B107861A970AA80AB90A81E08B
:100FC0008C149D04AE04BF040CF080E0FF90EF9001
:100FD000DF90CF90BF90AF909F908F900895AF9289
:100FE000BF92CF92DF92EF92FF920F931F93CF9316
:100FF000DF938091E70181508093E701811169C0FF
:10100000789404EE11E0D0E0C0E0BB24B394E0910A
:101010002502F0912602EC0FFD1F23812F3F09F4DA
:1010200051C0F801D080ED2CF12C30E0F901E857E7
:10103000FC4F8491F901EC58FC4FC490F901E05A3F
:10104000FC4FA490AA2009F44FC081110E94D30242
:10105000EA2DF0E0EE0FFF1FE55AFD4FA591B49188
:10106000EC91CE2231E020E009F430E0832F922F82
:10107000E816F90639F1DB24F801D082DD2011F100
:10108000CE01880F991F880F991F9C01275E3D4F45
:101090007901F90180819181A281B381892B8A2B09
:1010A0008B2B81F40E94B1076115710581059105B3
:1010B00021F461E070E080E090E0F70160837183EB
:1010C0008283938321960F5F1F4FC330D10509F0B0
:1010D0009ECFDF91CF911F910F91FF90EF90DF9006
:1010E000CF90BF90AF90089590E080E0C1CFCF92B5
:1010F000DF92EF92FF920F931F93CF93DF93EC0158
:101100006A017B018901C114D104E104F10421F4D5
:10111000C12CD12C7601C3940E9446078A819B8101
:10112000AC81BD81892B8A2B8B2B89F589E292E0DA
:10113000BE010E94490519821882CA82DB82EC82B4
:10114000FD821F830E83E0912702F091280227E29F
:1011500032E0309779F082819381A481B5818C1936
:101160009D09AE09BF09181619061A061B0694F444
:10117000F983E883F901D183C083DF91CF911F9177
:101180000F91FF90EF90DF90CF900C94EF0787E2E4
:1011900092E0CECF9F010190F081E02DDACF0F9346
:1011A0001F93CF93DF93EC018B010E9446078A8146
:1011B0009B81AC81BD81892B8A2B8B2BE9F489E241
:1011C00092E0BE010E944905198218821A821B8290
:1011D0001C821D821F830E83E0912902F0912A0256
:1011E000A9E2B2E0309759F4CD93DC93DF91CF912F
:1011F0001F910F910C94EF0787E292E0E2CFDF019D
:101200000190F081E02DEECFCF93DF93EC010E94AF
:1012100046078A819B81AC81BD81892B8A2B8B2BD0
:1012200049F489E292E0BE010E944905DF91CF9125
:101230000C94EF0787E292E0F6CFCF92DF92EF9225
:10124000FF926B017C010E94B107A7019601261B4A
:10125000370B480B590BDA01C901B7FF0CC06627E1
:101260007727CB01621B730B840B950BFF90EF90DC
:10127000DF90CF900895833332E09307A105B10545
:101280008CF068E070E080E090E00E948B030E94A8
:10129000B107A7019601261B370B480B590BDA0142
:1012A000C901E9CF181619061A061B0654F424E0E2
:1012B000880F991F2A95E1F7880F991F04970197C6
:1012C000F1F760E070E0CB01D1CFCF92DF92EF92E7
:1012D000FF92A0910902B0910A02682F6170ED910E
:1012E000FC9111970190F081E02DCD0109956B01E2
:1012F0007C01C114D104E104F10461F00E94B10742
:101300006C0D7D1D8E1D9F1DFF90EF90DF90CF9087
:101310000C941D09FF90EF90DF90CF900895982FC7
:10132000E0912502F091260281818F3F39F061E042
:101330002681291301C060E00C94FC02089581E02D
:10134000089580E00895089560E070E0CB0108956D
:101350004115510529F4EAE7F0E080818F77808319
:101360006A307105B9F0CB01880F991F880F991F5A
:10137000807267706860682B88E10FB6F894A89552
:10138000809360000FBE60936000E0E6F0E0808133
:1013900080648083232BD9F483B7817F846083BFEB
:1013A000F89483B7816083BF85B7806685BF8F7DE2
:1013B00085BF7894889583B78E7F83BF7894452BBB
:1013C00029F4EAE7F0E0808180688083089583B79C
:1013D000817F846083BFF89483B7816083BF7894F2
:1013E000889583B78E7F83BF7894E9CF8091180268
:1013F0008160809318028BE092E00E94040964E40B
:1014000077E28BE092E00C94CF0860E070E0CB01D3
:1014100008950895FC018481811103C08285882389
:1014200029F04387548765877687089580E090E0A8
:10143000A0E8BFEB83879487A587B68708958F922E
:101440009F92AF92BF92CF92DF92EF92FF92CF9393
:10145000DC011796CC91179750E061115C2F18961C
:101460002C91189730E0220F331F255A3D4F60E032
:1014700070E0CB01F901E590F490F70140814C2335
:10148000451315C04B015C01FFEF8F1A9F0AAF0A8D
:10149000BF0A1D96CD90DD90ED90FC9050976C1595
:1014A0007D058E059F0568F060E070E0CB01CF916F
:1014B000FF90EF90DF90CF90BF90AF909F908F9074
:1014C0000895C501B401D6CF8F929F92AF92BF927B
:1014D000CF92DF92EF92FF920F931F93CF93DF9300
:1014E000CDB7DEB7C054D1400FB6F894DEBF0FBE03
:1014F000CDBF2FB7F8944091D6055091D705609194
:10150000D8057091D9052FBFFC010185128523856F
:1015100034856A017B01C01AD10AE20AF30A9701F5
:101520008601003D174021053105B0F4FC01818999
:10153000C05CDE4F0FB6F894DEBF0FBECDBFDF91AB
:10154000CF911F910F91FF90EF90DF90CF90BF90C0
:10155000AF909F908F9008958C01FC014187528736
:10156000638774871482138212821182108261E071
:1015700085810E94FC026AEF70E080E090E00E94AA
:101580008B0361E0F80185810E942A0360E0F80185
:1015900085810E94FC0264E170E080E090E00E949E
:1015A0008B03F89461E0F80185810E94FC028CE4D1
:1015B00090E00197F1F762E0F80185810E942A032B
:1015C00080E190E00197F1F760E0C8010E941F0AF6
:1015D000672B682B692B29F4F801118A789480E035
:1015E000A7CF61E0C8010E941F0A672B682B692BF7
:1015F00099F3CE0101967C015E019FEBA91A9EEF43
:10160000B90A670160E0C8010E941F0AF601608301
:1016100071838283938361E0C8010E941F0AF601EF
:101620006483758386839783F8E0CF0ED11CCA1438
:10163000DB0441F7789430E020E0F701808091806E
:10164000A280B380448155816681778181149104A1
:10165000A104B10429F0411551056105710519F482
:10166000F801118ABCCFF90183E0F595E7958A95D9
:10167000E1F7E00FF11F8081880F84169506A6061A
:10168000B706F0F080832F5F3F4FF8E0EF0EF11CBC
:101690002832310591F6F801448120818181280F9B
:1016A0003327331F8281280F311D8381820F932FAF
:1016B000911D99274817190699F681E0818B38CF3B
:1016C0008160E0CFFC0101900020E9F73197AF0184
:1016D000481B590BBC018AED95E00C94BF0384E5CF
:1016E00091E00C94620BCF93DF930E94B104EC0164
:1016F0000E946F0B8C0F9D1FDF91CF9108958F92E9
:101700009F92AF92BF920F931F93CF93DF93CDB76A
:10171000DEB7A1970FB6F894DEBF0FBECDBF19A2FA
:10172000423008F44AE08E010F5D1F4F842E912C49
:10173000B12CA12CA50194010E941E35E62FB90100
:10174000CA01EA30F4F4E05DD801EE938D01232B59
:10175000242B252B79F790E080E0109719F0CD012C
:101760000E94620BA1960FB6F894DEBF0FBECDBFEC
:10177000DF91CF911F910F91BF90AF909F908F906D
:101780000895E95CE1CFCF93DF930E94620BEC01F7
:101790000E946F0B8C0F9D1FDF91CF9108954F9288
:1017A0005F926F927F928F929F92AF92BF92CF92F1
:1017B000DF92EF92FF920F931F93CF936B017C0107
:1017C000742EAC019B010E942A39882399F087E589
:1017D00091E0CF911F910F91FF90EF90DF90CF900C
:1017E000BF90AF909F908F907F906F905F904F9041
:1017F0000C94620B46015701E894B7F82FEF3FEFC6
:101800004FE75FE7C501B4010E942A3981110DC07D
:101810002FEF3FEF4FE75FE7C501B4010E9460374C
:1018200018161CF48BE591E0D4CF2FEF3FEF4FE774
:101830005FE4C701B6010E94B83818161CF48FE5A2
:1018400091E0C7CF2FEF3FEF4FE75FECC701B60145
:101850000E94603787FDF3CF20E030E0A901C70187
:10186000B6010E94603710E000E087FF08C08DE2FB
:101870000E94AC048C01F7FAF094F7F8F094C0E001
:1018800060E070E080E09FE37C1641F020E030E013
:1018900040E251E40E946537CF5FF6CFA701960181
:1018A0000E94F4362B013C010E94D7374B015C01AA
:1018B0004AE00E947F0B7C01E00EF11ECC23B1F1C7
:1018C000C501B4010E9406389B01AC01C301B201FD
:1018D0000E94F3364B015C018EE20E94AC04E80EDC
:1018E000F91EC15018F120E030E040E251E4C5019A
:1018F000B4010E94BD382B013C010E94D7374B0137
:10190000B12CA12C4AE0C501B4010E947F0BE80E66
:10191000F91EC501B4010E9406389B01AC01C30148
:10192000B2010E94F3364B015C01DBCFC701CF91BE
:101930001F910F91FF90EF90DF90CF90BF90AF90ED
:101940009F908F907F906F905F904F9008950F932E
:101950001F93CF93DF93EC0183E691E00E94C30BCA
:101960008D81882321F061E08F810E94FC020A8929
:101970001B8962E0F80185810E942A0380E398EFC9
:10198000AFEFBFEFF80181879287A387B48714E098
:101990006F85788990E080E00E948B03E881F9816F
:1019A0000190F081E02DCE0109956B857C858D85B8
:1019B0009E8542E00E94CF0B0E946F0B115061F098
:1019C00020E030E040E85FEB6B857C858D859E856F
:1019D0000E9460378823E1F28D81882321F060E046
:1019E0008F810E94FC026B857C858D859E85DF91B1
:1019F000CF911F910F9108950F931F93CF93DF9372
:101A0000EC0188E691E00E94C30B8D81882321F0D0
:101A100061E08F810E94FC020A891B8962E0F80163
:101A200085810E942A0380E398EFAFEFBFEFF801B2
:101A300081879287A387B48714E06F85788990E0C7
:101A400080E00E948B03E881F9810190F081E02D14
:101A5000CE0109956B857C858D859E8542E00E942F
:101A6000CF0B0E946F0B115061F020E030E040E896
:101A70005FEB6B857C858D859E850E946037882312
:101A8000E1F28D81882321F060E08F810E94FC02C9
:101A90006B857C858D859E85DF91CF911F910F9100
:101AA0000895CF92DF92EF92FF92CF93DF9397FF4B
:101AB00019C06B017C018DE20E94AC04EC01662729
:101AC0007727CB016C197D098E099F094AE00E9496
:101AD0007F0B8C0F9D1FDF91CF91FF90EF90DF90D8
:101AE000CF9008954AE0DF91CF91FF90EF90DF9083
:101AF000CF900C947F0B8C01EB018CE691E00E945F
:101B0000C30BC8010E94620B8AE30E94AC04BE01B1
:101B100090E080E04AE00E947F0B0E946F0B8AED0C
:101B200095E00E94CC040E944607FFCFCF93DF933D
:101B3000EC01409718F480E30E94AC04BE0190E0F1
:101B400080E040E1DF91CF910C947F0B8F929F92C8
:101B5000AF92BF92CF92DF92EF92FF920F931F93BB
:101B6000CF93DF93CDB7DEB7A0970FB6F894DEBF63
:101B70000FBECDBF4C010E94B1076093CC017093A2
:101B8000CD018093CE019093CF010E94510D8FEF34
:101B900091E00E94B1046091CC017091CD018091DF
:101BA000CE019091CF0128EE33E040E050E00E945A
:101BB0009735A4E2AA2EB4EFBB2EC12CD12CE12C78
:101BC000F12C00E010E00E94D335B901CA010E9457
:101BD000510D8BEF91E00E94B104F4013197E43193
:101BE000F10508F05AC1E950F24F0C9483350B0E01
:101BF000210E240E270E2A0E2D0E4D0FBF0EC20EE3
:101C0000C50E350F380F3B0F3E0F410F4D0F440FE0
:101C1000470FA20E4A0F8BEE91E0A0960FB6F894F4
:101C2000DEBF0FBECDBFDF91CF911F910F91FF900F
:101C3000EF90DF90CF90BF90AF909F908F900C94DB
:101C4000730B8BED91E0E9CF8AEC91E0E6CF88EB66
:101C500091E0E3CF8DEA91E0E0CF83EA91E00E944A
:101C6000730BC0907C02D0907D02E0907E02F090D9
:101C70007F028090800290908102A0908202B090BA
:101C8000830280E1E1E9F4E0DE01119601900D921A
:101C90008A95E1F780E1E1E8F4E0DE0151960190F8
:101CA0000D928A95E1F78BE991E00E94B1044AE038
:101CB000C701B6010E947F0B0E946F0B81E991E082
:101CC0000E94B10440E1C501B4010E947F0B0E9453
:101CD0006F0B87E891E00E94B1048E010F5F1F4FE8
:101CE000912C812CF80181918F0190E00E94960D3A
:101CF000FFEF8F1A9F0A80E188169104B1F586E5FF
:101D000091E00E94C30B8BE791E00E94B1044E0169
:101D1000E1E18E0E911C10E000E0F40181914F0191
:101D200090E00E94960D0F5F1F4F0031110511F5D5
:101D30000E946F0B1092A30480E89FEF90935F03C3
:101D400080935E03A0960FB6F894DEBF0FBECDBFA2
:101D5000DF91CF911F910F91FF90EF90DF90CF9087
:101D6000BF90AF909F908F90089585E891E00E947A
:101D7000B104B8CF89E791E00E94B104CECF8AE6E2
:101D800091E04BCF89E591E048CF89E291E00E9454
:101D9000730B8CE191E00E94B1046091CC017091D1
:101DA000CD018091CE019091CF010091D001109191
:101DB000D1012091D2013091D301601B710B820BB4
:101DC000930B28EE33E040E050E00E949735E4E2C8
:101DD000AE2EF4EFBF2EC12CD12CE12CF12C00E063
:101DE00010E00E94D335B901CA0128EE33E040E08B
:101DF00050E00E94EC34CA01B9010E94510D0E94CA
:101E00006F0B86E591E00E94C30B8091B10487FFC0
:101E100004C08FE091E00E94730B8091B30488238B
:101E200091F085E091E00E94730B6091B30470E043
:101E300090E080E04AE00E947F0B0E946F0B83EFEE
:101E400090E00E94730B0E94B107AB01BC014053AC
:101E50005D4E6C4E7F4F24E437E28BE092E00E94AF
:101E6000770881E080932B026DCF85EE90E0D5CE90
:101E70008CED90E0D2CE8EEC90E0CFCE81EC90E075
:101E8000CCCE83EB90E0C9CE88EA90E0C6CE8AE95A
:101E900090E0C3CE88E790E0C0CE88E690E00E9454
:101EA000B104B40190E080E04AE00E947F0BA0966C
:101EB0000FB6F894DEBF0FBECDBFDF91CF911F915B
:101EC0000F91FF90EF90DF90CF90BF90AF909F90D9
:101ED0008F900C946F0BCF92DF92EF92FF92CF9383
:101EE000DF93EC01C12CD12C7601C3940C2E04C0DD
:101EF000CC0CDD1CEE1CFF1C0A94D2F7E3FC03C0E3
:101F0000CE010E94A60DD701C60188279472AA2788
:101F1000BB27892B8A2B8B2B01F1E0913502F091A5
:101F200036023097D1F02091B3044091B2042111D0
:101F300002C0442391F08091B10450E060E084FF3E
:101F400004C0DA01AD54BB4F6C9130E04C545B4F90
:101F500080913702909138020995CC2484E0D822F0
:101F6000E822FF24CD28CE28CF2819F1E0913902AC
:101F7000F0913A023097E9F010923A021092390249
:101F8000C231D10541F18091B10483FD24C090910B
:101F90007B0361E0992339F0082E000C990B692F1F
:101FA000661F6627661F70E080913B0290913C029D
:101FB0000995E0913102F0913202309771F0BE0143
:101FC0008091330290913402DF91CF91FF90EF9096
:101FD000DF90CF90099460E0E6CFDF91CF91FF9042
:101FE000EF90DF90CF9008950F931F93CF93DF93DF
:101FF00000D000D0CDB7DEB7DB011C969C911C97BA
:102000001E963C911E971F962C911F971D964C91E2
:102010001D9749833A832B839C83BE016B5F7F4F5F
:102020009E012F5F3F4FF90111919F01412F429572
:102030004F70F0E14F9FA0011124E12FEF70E40FEA
:10204000F52FF11DE455FC4F9491A9014150510920
:10205000FA0190832617370731F791E05BE1813071
:1020600039F0492F440F97FD45278150942FF7CF22
:102070008981982799838D0194E0FE013196A8010A
:10208000DA018D91AD0161918627BD016150710921
:10209000DB018C93BF0161507109DB018C93E21766
:1020A000F30771F791500C5F1F4F9111E6CF0F901E
:1020B0000F900F900F90DF91CF911F910F91089586
:1020C0003F924F925F926F927F928F929F92AF92C8
:1020D000BF92CF92DF92EF92FF920F931F93CF9315
:1020E000DF93CDB7DEB768970FB6F894DEBF0FBEAB
:1020F000CDBF8C0126ECC22E25E0D22EAC01405F74
:102100005F4FC6017801FC01D70120E03D9130838B
:102110002F5F34962430D1F724E0E20EF11C0196B3
:102120004E155F0581F7A6EBB5E0FE01319686EC12
:1021300095E05E2E6F2E2D9121938A179B07D9F77C
:10214000852D962D0E940705442443948AECA82EE1
:1021500085E0B82E4E0139E1830E911C9BE1392EAA
:1021600086EC95E024E0DC01712CEC914E2F429539
:102170004F7030E1439FA0011124EF70E40FF52F61
:10218000F11DE455FC4FE491EC937394149654E0E4
:102190007512EBCF215001962111E5CF0E94EC047E
:1021A000E6ECF5E0CE014596BE016F5E7F4F9F01E4
:1021B000D9015C91DC015D93CD01452F440F57FDA2
:1021C00083C0DB014C932C5F3F4F6F5F7F4F8816BE
:1021D000990671F78E89398938272F89688D9A89F0
:1021E00092279627432F492741934D895B8994274E
:1021F000952793839C89862784278527892787832A
:102200002427292732273387AE16BF0659F6652DB6
:10221000762D842D0E94F40F852D962D0E940705A2
:102220004394BAE04B129CCF86EC95E0DC0140E091
:10223000EC912E2F22952F7050E1259F90011124B3
:10224000EF70E20FF32FF11DE455FC4FE491EC9396
:102250004F5F1496443061F77A9401967110E6CF7F
:102260000E94EC04652D762D8AE00E94F40F852DE6
:10227000962D0E940705D801F60180E090819D937C
:102280008F5F34968430D1F78FEFC81AD80A0C5F6D
:102290001F4FE016F10679F768960FB6F894DEBF87
:1022A0000FBECDBFDF91CF911F910F91FF90EF90A7
:1022B000DF90CF90BF90AF909F908F907F906F9066
:1022C0005F904F903F90089543257BCFE82FF0E03B
:1022D000EC51FD4FE491EF3F09F0815008951092C9
:1022E000B304E091B30584E0E89FF0011124EC54BD
:1022F000FD4F80819181A281B3818C7F8093740294
:1023000090937502A0937602B093770283E891E1EF
:10231000909359038093580308958F929F92AF92A0
:10232000BF92CF92DF92EF92FF920F931F93CF93C2
:10233000DF93E9019DEF980F9D3008F06DC06A01B1
:102340007B019CEFC9220F3FA1F441EF52E0A9E0CD
:10235000B3E0FA0105911591259134914801590195
:102360006CEF8622C814D904EA04FB0408F447C0C1
:102370000370E82FF0E0DF01AA0FBB1FAA0FBB1FFD
:10238000AC54BD4F002E000C110B220B330B0C294B
:102390001D292E293F290D931D932D933C931397AF
:1023A000209711F4CFE3D0E0EE0FFF1FEC5CFC4F61
:1023B000D183C083409154035091550321E030E014
:1023C000B90102C0660F771F8A95E2F7CB01CD28CD
:1023D000CE28CF28E1F0842B952B90935503809342
:1023E000540381E0DF91CF911F910F91FF90EF9007
:1023F000DF90CF90BF90AF909F908F9008954C5FEB
:102400005F4FA417B50709F0A4CF00E0B2CF8095C5
:10241000909584239523E1CF80E0E4CF94E0899FD9
:10242000F0011124E455FD4F6591759185919491CA
:1024300008958F929F92AF92BF92CF92DF92EF92C8
:10244000FF92882379F0109261031092600310923A
:102450006503109264031092AE0480915A028C605E
:1024600080935A0283E00E940E124B015C016DE2E0
:1024700073E080E090E0A50194010E94EC34C90172
:1024800005969093670380936603C0904802D090AE
:102490004902E0904A02F0904B0282E1D80E8AE7AE
:1024A000E81EF11CD9011397A50194010E940B3578
:1024B000C61AD70AE80AF90AC0929002D09291028D
:1024C000E0929202F0929302FF90EF90DF90CF9013
:1024D000BF90AF909F908F9008954F925F926F92B0
:1024E0007F928F929F92AF92BF92EF92FF920F9343
:1024F0001F93CF93DF932B013C017A01822F0E941F
:102500000E129B01AC01C1E3D2E08FA898ACA9AC3C
:10251000BAAC06E010E0C301B2010E94AA05AB010B
:10252000BC01480D591D6A1D7B1D4BAF5CAF6DAFE3
:102530007EAF4157524061097109970180E492E0F2
:10254000DF91CF911F910F91FF90EF90BF90AF90CF
:102550009F908F907F906F905F904F900C94770832
:10256000CF92DF92EF92FF920F931F93CF93DF935F
:1025700030916D03E091710324E0E29FF00111249A
:10258000EC50FD4FC080D180E280F380C114D104B3
:10259000E104F10441F0C0927402D0927502E0921D
:1025A0007602F09277022091A904263008F025E007
:1025B000321B232F38300CF027E027FD20E020933A
:1025C0006D03E22F022E000CFF0BEB51FD4FE49147
:1025D000F0E0EF77E068F0935903E0935803373069
:1025E000A4F1EA01C0906802D0906902E0906A020A
:1025F000F0906B026A5071098109910900E410E0C2
:1026000021E030E040E050E00E94AA05AB01BC01AF
:102610004C0D5D1D6E1D7F1D40936C0250936D022D
:1026200060936E0270936F024157524061097109C5
:102630009E0180E492E0DF91CF911F910F91FF9076
:10264000EF90DF90CF900C947708DF91CF911F919E
:102650000F91FF90EF90DF90CF900C946D124FEDA3
:1026600056E164EB74EC84E090E00C94B01220919D
:10267000A40430E0A4E2B4EF0E9440354BED56E1F3
:102680000C94B012883040F4E82FF0E0EB51FD4F8D
:10269000E49181E0EF3F09F480E008958F929F92EA
:1026A000AF92BF92DF92EF92FF920F931F93CF935F
:1026B000DF93D82EEB018A01E22EE0912502F09102
:1026C0002602F08080849184A284B38481149104D2
:1026D000A104B10439F420E4822E22E4922E2FE0EA
:1026E000A22EB12C40E059E06DE370E080E084164A
:1026F0009506A606B70640F47695679557954795D3
:102700008F5F8630A1F787E0982F906A9695809525
:1027100081709CBD8DBD60E08F2D0E94FC02DEBCEF
:1027200000000DB407FEFDCF8EB50C0F1D1FC017A6
:10273000D10771F080E0E11001C088818EBD0000FA
:102740000DB407FEFDCF8EB5E11088832196EFCF43
:1027500061E08F2DDF91CF911F910F91FF90EF904E
:10276000DF90BF90AF909F908F900C94FC02CF931E
:10277000DF931F92CDB7DEB721E041E050E0BE010C
:102780006F5F7F4F0E944E1389810F90DF91CF9131
:102790000895CF93DF931F92CDB7DEB7698320E012
:1027A00041E050E0BE016F5F7F4F80680E944E1392
:1027B0000F90DF91CF910895CF93C82F62E082E010
:1027C0000E94C91360E883E00E94C91361E084E0BD
:1027D0000E94C91369E985E00E94C91362E187E29A
:1027E0000E94C91360EDC11168ED80E30E94C91316
:1027F00060E481E30E94C91361EC88E20E94C9137E
:1028000064E989E20E94C91361EC8AE2CF910C94D9
:10281000C9130F931F93CF93DF93C0916F03C431FC
:102820000CF040C0CE30CCF1C2310CF0C1E161E01F
:102830008091090290910A02009174021091750230
:102840002091760230917702DC01ED91FC910084B9
:10285000F185E02D4C2F0995813059F18230E1F15D
:10286000CF301CF5CC301CF1C067D7E014E06C2FE2
:1028700089E00E94C9138DE40E94B713887F682FF6
:10288000612B8DE40E94C9136D2F60628BE0DF9194
:10289000CF911F910F910C94C913CC3F0CF4CCEF46
:1028A00060E0C6CF62E0C4E1C3CFCEE0DDCFCC5F55
:1028B000DCCF80915803877011F4CB305CF0C230CC
:1028C0002CF4C2E0C250C068DBE0D0CFC231D4F3F8
:1028D000C1E1F8CFCBE0F6CFD0E117E0CFE8C7CF2A
:1028E000AF92BF92CF92DF92EF92FF920F931F931E
:1028F000CF93DF938091740290917502A09176023C
:10290000B09177029C01AD0160E070E080E090E062
:1029100003E10E94A836A12CE8E4BE2EF8EECF2EEB
:10292000DD24D394E12CF12C00E010E00E94043669
:10293000C22FB32E6A017B01182FD92F00E10E940C
:10294000C336622F86E00E94C9132C2F3B2DA601AF
:10295000B701812F9D2F08E00E94C336622F87E0C8
:102960000E94C9136C2F88E0DF91CF911F910F91C6
:10297000FF90EF90DF90CF90BF90AF900C94C91371
:102980001F93CF93DF936091580370915903162FD3
:102990001770CB0133E0969587953A95E1F7D82FDC
:1029A000D370D13059F008F466C0D23009F465C054
:1029B00066EC71E085E791E00E947B0DC0E8CB01F9
:1029C00025E0969587952A95E1F78370823009F482
:1029D00058C0833009F457C0813009F450C0C26038
:1029E000672F77276115710521F0C16082E20E948F
:1029F000C9136C2F8DE10E94C91360916C03637041
:102A000060598FEF810F8295807F680F8091580306
:102A100087FF64608EE10E94C9138BEF810F8230C3
:102A200010F4DD2391F1163011F4D13071F164E02E
:102A300086E20E94C913C0E063E0D23081F4809145
:102A4000740290917502A0917602B0917702CFE75F
:102A500081349D4DAA44BF4108F0C4E662E086E39C
:102A60000E94C913CC2399F06C2F8AE3DF91CF9198
:102A70001F910C94C913C0E7A2CFC0E9A0CFC460D6
:102A8000AFCFC660ADCFC860ABCF6CE0D1CFDF9128
:102A9000CF911F910895CF93DF93D82FC82FC77080
:102AA00019F081E00E9465096D2F81E00E94C91331
:102AB000C11105C080E0DF91CF910C946509DF91D1
:102AC000CF9108958091740290917502A091760241
:102AD000B091770281349D4DAA44BF4118F488E03B
:102AE0000C944B1580E0FCCF80917402909175029C
:102AF000A0917602B091770281349D4DAA44BF41E6
:102B000018F488E80C944B1580E8FCCFCF93C82FBD
:102B100081E00E94B713887F8C2BCF910C944B15CA
:102B2000CF92DF92EF92FF92CF93DF93D82F0E9444
:102B3000741581E00E94B71387FD06C06BE973E04E
:102B400085E791E00E947B0D81E00E948615D230DE
:102B500009F07CC06AE08DE10E94C91360E78EE154
:102B60000E94C91363E28CE00E94C9136FEF83E2F5
:102B70000E94C9138091B405882309F46CC083E3D3
:102B80000E94B713682F6F7B83E30E94C913809163
:102B900058039091590323E0969587952A95E1F77C
:102BA000C82FC37081E30E94B7138877682F6360D2
:102BB000C23008F056C081E30E94C91360E48FE27E
:102BC0000E94C91360E480E30E94C91360916B0303
:102BD0008FE10E94C91364E389E30E94C9136CE08A
:102BE00080E40E94C9136FEF82E10E94C913ED2FA8
:102BF000F0E0E251FD4F6491609581E10E94C913BC
:102C000080E00E948F0960E08DE00E94C91360E0BF
:102C10008FE00E94C913D11128C060916C0270919D
:102C20006D0280916E0290916F020E941D096B01EE
:102C30007C0186E00E948615C701B601DF91CF9125
:102C4000FF90EF90DF90CF900C9420050E94C0146D
:102C50000E94701487CF83E30E94B713682F6064CB
:102C600093CF682F636881E3AFCF85E0DF91CF9189
:102C7000FF90EF90DF90CF900C948615CF92DF926B
:102C8000EF92FF92CF93C82F81E00E94B713877015
:102C900069E274E0D1F480915803877009F062C052
:102CA000C13051F41092B304609146027091470212
:102CB00080E492E00E94CF080E94621581E00E94A9
:102CC000B71387FF06C062E074E085E791E00E94D9
:102CD0007B0D81E00E9486150E94701463E28CE0F7
:102CE0000E94C9136EE18DE00E94C9136BE082E17E
:102CF0000E94C91362E183E10E94C9136AEA8FE16D
:102D00000E94C9136FEF81E20E94C91381E00E9403
:102D1000DC1368E380E40E94C91380E00E948F09FD
:102D2000C11118C060916C0270916D0280916E02A9
:102D300090916F020E941D096B017C0185E00E9449
:102D40008615C701B601CF91FF90EF90DF90CF902D
:102D50000C94200585E0CF91FF90EF90DF90CF900D
:102D60000C9486158C2FCF91FF90EF90DF90CF9031
:102D70000C94901583E190E00E946B0F80E00C941E
:102D80003E1681E692E290934702809346020C94AD
:102D9000BA1621E02093B104E8E5F3E02081318107
:102DA0002068318320831092B3049093470280936C
:102DB00046020C94BA168DE59DE20C94C91689E280
:102DC00097E20C94C91682E08093B104E091AA04C2
:102DD000F0E0EB51FD4FE491F0E0EF77E068F09325
:102DE0005903E093580380918C0290918D02A09139
:102DF0008E02B0918F028093740290937502A0931B
:102E00007602B09377021092B3040C94BA1684E75A
:102E10009DE290934702809346020C94E3168CE364
:102E200097E290934702809346020C94E31640E1A8
:102E300050E06CE973E086EB95E00C94E3346F921C
:102E40007F928F929F92AF92BF92CF92DF92EF923A
:102E5000FF920F931F93CF93DF93CDB7DEB76097A9
:102E60000FB6F894DEBF0FBECDBF7B018A01282FBD
:102E700030E0277F2230310549F02430310509F454
:102E8000CBC0232B09F09FC0D12C98C083FD32C04A
:102E900088EE91E00E94601090E1692EFE0131966B
:102EA0006F0128EF822E21E0922E37E8732E011554
:102EB000110509F060C06091E8017091E90180910D
:102EC000EA019091EB010E94893560960FB6F89463
:102ED000DEBF0FBECDBFDF91CF911F910F91FF904D
:102EE000EF90DF90CF90BF90AF909F908F907F90AA
:102EF0006F900895E8EEF1E080E1DF011D928A9580
:102F0000E9F7CACF01151105E9F5E62FF0E0E85120
:102F1000FE4F80818058808311E0D601E62D1D92FE
:102F2000EA95E9F7C6010E9460100981C6010E9476
:102F3000810207FF03C088898725888B112349F008
:102F40001981C6010E94810217FF03C08889872565
:102F5000888BF601D5018D915D019191119789279B
:102F60008C938A149B04B1F710E000E088EE91E0A6
:102F70000E9460109CCF88EEA82E81E0B82ED70169
:102F8000950160E0F90181919F019D91AF01415050
:102F900051098927FA0180836F5F7D010150110972
:102FA000603109F0AFCF0115110501F710E0B5CF81
:102FB0008E0D9F1D0E946010B0E1DB0E8D2D90E004
:102FC00080179107A8F360E070E0CB017ECF80E12D
:102FD000E8EEF1E0DE01119601900D928A95E1F79D
:102FE000CE0101960E946010FE0131969701205F8C
:102FF0003F4F9191D7018C9189278D937D0101508D
:103000001109A217B30719F00115110591F7809165
:10301000F7018F5F8093F70101151105C1F6D3CF3A
:103020009091F801911106C06CE874E085E791E099
:103030000E947B0D903141F440E150E068EF71E077
:1030400080E00E941F1790E0E92FF0E0E850FE4F6B
:1030500080819F5F9093F8010895DF92EF92FF9235
:103060000F931F93CF93DF938C01EB018091560355
:1030700090915703F801208131818223932390930B
:103080005703809356030E948F027C01892B09F01D
:103090008DC0F801808191819093570380935603EE
:1030A0000E948F027C018FEF9FEFE114F10409F47D
:1030B000D6C0F1E1EF16F10408F478C010E000E0AA
:1030C000CF3FDC0751F1C131D1050CF06FC09E013B
:1030D0002F70332781E090E002C0880F991F2A9556
:1030E000E2F7FE0144E0F595E7954A95E1F7EE0F2A
:1030F000FF1FEA5AFC4F208131818C0102231323E8
:1031000080959095822393239183808301151105E7
:1031100009F44EC070E1E71AF1080E941018D82E89
:103120000E9410189D2DB70124E0769567952A9589
:10313000E1F70E945B3534E0880F991F3A95E1F77B
:10314000A6E5B3E0F0E0E0E04D915D914115510559
:1031500059F19A013695279525753575BA01621B87
:10316000730B9B016373737336952795369527957B
:1031700023733373620F731F9B01207F307F6F7047
:103180007F7062957295707F7627607F7627620FD9
:10319000731F9B013327672F7727620F731F8617D3
:1031A000970778F0861B970B7096CECF10E000E063
:1031B000CFEFDFEFB2CF9A012150310942235323E1
:1031C00040970097C1F788279927841B950B4823C0
:1031D00059239A012575357581E090E0232B11F074
:1031E00090E080E09A0123733373232B09F03FC0F2
:1031F00022E030E0280F391FCA018F709F70892BA1
:10320000C9F584E090E0280F391F88E090E044235E
:1032100011F090E080E0280F391F2E0F3F1FF901B9
:1032200044E0F695E7954A95E1F7EE0FFF1FEA5A5D
:10323000FC4FA9014F70552781E090E0BC0102C00E
:10324000660F771F4A95E2F7AB018081918186274F
:10325000952791838083CF3FDC0779F4C901DF9103
:10326000CF911F910F91FF90EF90DF90089530E084
:1032700020E0C0CF90E080E0C6CF84E0D595C79530
:103280008A95E1F7CC0FDD1FCA5ADC4F88819981FE
:10329000082B192B19830883E1CFCF93DF9398E094
:1032A000899FE0011124CF5CDD4FFE01EB59FF4FF8
:1032B00060833297518340830E94B107FE01E95930
:1032C000FF4F60837183828393830E941018CA59D1
:1032D000DF4F8F70888381E0DF91CF910895CF9287
:1032E000DF92EF92FF92CF93C82F0E941018F82E12
:1032F0000E9410189F2D6C01853224EF920720F058
:1033000024E2C21A24EFD20AF12CE12CCC2369F07A
:103310006C2F0E944F35292F30E0A4E2B4EF0E94B9
:103320004035C60ED71EE81EF91EC701B601CF9163
:10333000FF90EF90DF90CF900895CF92DF92EF92C1
:10334000FF926B017C01842F442331F00E946F199E
:10335000C60ED71EE81EF91E809172038823A9F0BD
:103360008091780290917902A0917A02B0917B02CB
:10337000A7019601281B390B4A0B5B0BDA01C90127
:10338000181619061A061B068CF4C0927802D09201
:103390007902E0927A02F0927B0280915A03909136
:1033A0005B03916090935B0380935A03FF90EF90CF
:1033B000DF90CF900895CF93DF9390E4E4EBF2E0B9
:1033C000DF01292F1D922A95E9F7E4EFF2E0DF01F2
:1033D0001D929A95E9F790E2E4E3F3E0DF01292FEB
:1033E0001D922A95E9F7E4E9F2E0DF011D929A9532
:1033F000E9F727E030E0309355032093540381111F
:1034000030C083E0C4EBD2E0A4E3B3E093E0980FD4
:103410002FE330E044E0849FF0011124E453FD4F9A
:103420004591559165917491499359936993799315
:103430002D933D938F5F8913EDCF48EE53E06EE0FF
:1034400080E00E944D1944E650E06EE081E00E9469
:103450004D194AE050E06BE182E0DF91CF910C948E
:103460004D1980E0CFCFCF92DF92EF92FF92CF93B2
:10347000DF9300D0CDB7DEB78091800290918102BA
:10348000A0918202B0918302892B8A2B8B2B09F0A9
:1034900063C080915A0390915B03109272038E7CFB
:1034A000977A90935B0380935A031092B004109222
:1034B00077030E947B0687E090E09A83898390934C
:1034C0005703809356036FEF7FEFCE0101960E9462
:1034D0002D188093710380E18093740385E08093BD
:1034E000750381E00E94DB1980915A0390915B0380
:1034F00093FF06C06CE870E08FE891E00E947B0DBE
:103500000E94B1076B017C0188E00E946F19C60E12
:10351000D71EE81EF91EC0926802D0926902E0929E
:103520006A02F0926B0280915A0390915B0384606F
:1035300090935B0380935A0361EE74E280E492E01F
:103540000E94CF0881E00F900F90DF91CF91FF9004
:10355000EF90DF90CF90089580E0F5CF1F93CF9349
:10356000DF93CDB7DEB72F970FB6F894DEBF0FBE4F
:10357000CDBF80E00E94861580E492E00E9404099D
:103580008FE0E1E3F2E0DE01119601900D928A9561
:10359000E1F7E1E3F2E085E893E0DF019C011D92B1
:1035A00021503040E1F78FE0FE013196A1E3B2E017
:1035B00001900D928A95E1F70E941018182F0E9431
:1035C0001018912F90935D0380935C0310925B031E
:1035D00010925A031092760380E88093A7040E9409
:1035E0007B0681E08093A4042F960FB6F894DEBF8B
:1035F0000FBECDBFDF91CF911F910895AF92BF92C3
:10360000CF92DF92EF920F931F93CF93DF93DC0162
:103610001A141B04A4F590E1E8EEF1E0EF01892F04
:1036200019928A95E9F7F1E0F093F701F093E80138
:10363000E092ED014093EE015093EF016093F001B1
:103640007093F1010093F2011093F3012093F401C0
:103650003093F501FD01A6EBB5E001900D929A952E
:10366000E1F7A501B60184E0DF91CF911F910F91A1
:10367000EF90DF90CF90BF90AF900C941F17DF9129
:10368000CF911F910F91EF90DF90CF90BF90AF90AF
:1036900008952F923F924F925F926F927F928F92F6
:1036A0009F92AF92BF92CF92DF92EF92FF920F93D1
:1036B0001F93CF93DF93CDB7DEB72A970FB6F89459
:1036C000DEBF0FBECDBF809168038111ABC681E024
:1036D0008093680380915A0390915B031C0121EC55
:1036E000222233242114310481F44091800250912C
:1036F00081026091820270918302452B462B472BF9
:1037000021F582FD30C00E94331A809168038150F8
:10371000809368038111DECF2A960FB6F894DEBF3E
:103720000FBECDBFDF91CF911F910F91FF90EF9012
:10373000DF90CF90BF90AF909F908F907F906F90D1
:103740005F904F903F902F90089596FF0CC09F7B05
:1037500090935B0380935A0367E472E280E492E003
:103760000E94CF08D2CF0E94B1072B013C0180916B
:103770005A0390915B03FC01E270FF2781FF25C093
:103780000091900210919102209192023091930247
:10379000B901A80141575240610971094B835C830B
:1037A0006D837E8393018201041B150B260B370B5F
:1037B00037FF0FC08D7D997F90935B0380935A03F1
:1037C0008BE090E00E946B0FA0CF1B821C821D82B9
:1037D0001E829C012C733327232B09F40FC6BC01D6
:1037E0006472772778876F8393FF61C173016201E9
:1037F0007EE2D71A76EBE70A74E9F70AA091540340
:10380000B0915503809175038F7021E030E0F9018C
:1038100002C0EE0FFF1F8A95E2F7FA87E98790E072
:1038200080E040E061E070E09B01082E02C0220FC2
:10383000331F0A94E2F7A217B30708F443C02A2300
:103840003B23232BD1F1FC01EE0FFF1FEC5CFC4F5F
:103850002081318189849A8428213921232B69F19F
:10386000FC01EE0FFF1FEE0FFF1FEC54FD4F5081C8
:103870005370252F30E0FB0101C0EE0F5A95EAF797
:10388000542F5E23D1F44E2BE3E0220F331FEA9531
:10389000E1F7F901E856FD4F008111812281338162
:1038A00046015701801A910AA20AB30A1814190492
:1038B0001A041B0414F46801790101968031910502
:1038C00009F0B2CF30E020E090E080E001E010E0CD
:1038D000A801082E02C0440F551F0A94E2F7A4174E
:1038E000B507B8F1BD0164237523672B69F1FC01AD
:1038F000EE0FFF1FEC5CFC4F60817181A984BA84DC
:103900006A217B21672B01F1242A352AFC01EE0F65
:10391000FF1FEE0FFF1FEC54FD4FE081E37068E0E6
:10392000E69FF0011124E856FD4F80809180A2802F
:10393000B3808C189D08AE08BF08181419041A0427
:103940001B0414F0242B352B01968031910509F0CE
:10395000BFCF3A832983809056039090570360919C
:10396000710370E06F3F11F46FEF7FEFCE010196AE
:103970000E942D1829813A81209530958222932228
:103980002820392080905603909057032828392802
:10399000309257032092560397FF80937103C09291
:1039A0006802D0926902E0926A02F0926B02809102
:1039B0005A0390915B03977F90935B0380935A0324
:1039C00080915A0390915B0320917203211102C0F0
:1039D00090FF12C0409178025091790260917A0272
:1039E00070917B0297018601041B150B260B370B88
:1039F00037FF02C06A017B019C012270332781FFDF
:103A00005FC08F80988444E455E968E070E08928BD
:103A100021F448ED58EB65E070E04C0D5D1D6E1D26
:103A20007F1D8B809C80AD80BE80481959096A0932
:103A30007B0914161506160617060CF041C040E166
:103A4000C501B4016C567A4F8D4F9F4F0E949D194E
:103A50000E946F11809166039091670390936C03AD
:103A600080936B038091900290919102A0919202B9
:103A7000B091930280936C0290936D02A0936E02BA
:103A8000B0936F028B809C80AD80BE80481859082F
:103A90006A087B0877FCBBC481E6A82E82E2B82EB8
:103AA000B0924702A09246020E94BA162ECEC09053
:103AB0006802D0906902E0906A02F0906B0280CFB9
:103AC000B301A2014F585D4F6F4F7F4F4601570121
:103AD000841A950AA60AB70AB501A40177FF72C431
:103AE00030907503AF80B884AB2809F455C11091AC
:103AF000770385FD4EC11092B40448E050E06CE9B4
:103B000072E085EB94E00E94E33448E050E064E921
:103B100072E08DEB94E00E94E33490915C0380911D
:103B20005D039093C5048093C6040E94171743E178
:103B300050E064EB74E08AE00E941F176093CA04AF
:103B40007093C9048093C8049093C70487E180935D
:103B5000B30480915C0390915D03019690935D03A3
:103B600080935C038FE293E1909347028093460237
:103B7000E32DF0E0EB51FD4F8491E091760320E2DC
:103B8000E29FF00111248F79E82BF0935903E09321
:103B9000580330926D0380915A0390915B038F76A6
:103BA000967F8068986090935B0380935A03A091FE
:103BB000710334E0A39FD0011124AC54BD4FCD90CC
:103BC000DD90ED90FC908091B3044E2F477090E013
:103BD00009F0CBC20B96DC0103E0AA0FBB1F0A95CC
:103BE000E1F724E234EF0E94903520E533EC40E029
:103BF00050E00E94EC3449015A01D701C60183709C
:103C00009927AA27BB272CEFC222C0927402D09218
:103C10007502E0927602F092770223E0880F991FF6
:103C20002A95E1F78F5C9D4FFC01EB59FF4F108106
:103C300010936E037C0137E6E30EF11C8D599F4F04
:103C4000FC01A081B18194010E940B35640D751DAA
:103C5000861D971DD7016D937D938D939C9313972C
:103C600080917203882399F004C0880C991CAA1CC7
:103C7000BB1C8A95D2F7480C591C6A1C7B1C4092CD
:103C800078025092790260927A0270927B0280915F
:103C9000740318170CF4812F80936F0381E190E077
:103CA0000E946B0F109268021092690210926A02D1
:103CB00010926B0281E00E94B713877059F080E088
:103CC0000E9486150E94B107625C7F4F8F4F9F4F05
:103CD0000E941D098090700290907102A090720263
:103CE000B0907302181419041A041B040CF0C5C216
:103CF00081E00E9490158091740290917502A091CC
:103D00007602B091770281349D4DAA44BF4108F4F8
:103D1000B1C283E69FEFE0912502F0912602278150
:103D20007C01E20EF11C27FDFA940E94B107615E4E
:103D30007F4F8F4F9F4F0E941D090E94B10710E0D7
:103D4000860E971EA81EB91E8BE10E94B713181786
:103D500008F4182F0E94B107681979098A099B098C
:103D600097FDF2CF80E00E94861580917003082EA7
:103D7000000C990BE10EF11CE816F9060CF47DC25B
:103D80006091460270914702E9CC832D0E94661132
:103D9000382E1150D0F7AFCE409184025091850259
:103DA000609186027091870240385F4F6F4F7F4F5E
:103DB00018F06DE372E2D2CC2091B00421110DC055
:103DC000409188025091890260918A0270918B0221
:103DD0004F3F5F4F6F4F7F4F61F37C0148E1E4221B
:103DE000FF2450E1E516F10409F457C1A0907C03CB
:103DF00080917A03882309F452C180917104882349
:103E000009F44DC100917004002309F448C110E089
:103E1000A80162E774E08CEB94E00E94543A085FDA
:103E20001F4F10927004109271048091AB0488238C
:103E300031F086FF37C190E489278093AB048091ED
:103E4000AC04882331F086FF3DC190E4892780933C
:103E5000AC048091AD04823009F044C181E08093CC
:103E6000AD04093111050CF061C18091A3048823D0
:103E700061F080915E0390915F0397FF04C090E032
:103E800080E00E943A061092A3048A2C912C25E02F
:103E9000820E911CF0E1EF16F10419F4E4E08E2E8D
:103EA000912C800E911E3FEF8316910411F00CF0BF
:103EB00024C191E040E1E416F10409F490E0E091BE
:103EC0007503E83008F01EC1F0E0EC55FD4FE491B9
:103ED000E815190408F42AC180E48093B4048091A1
:103EE000A1044091A704482B20915E0330915F0309
:103EF00037FD0AC121523109203B324008F404C188
:103F000020E488EF800F842B822B8093B9044091AA
:103F1000800230918102209182028091830240933D
:103F2000B5043093B6042093B7048093B80480910D
:103F3000B004811118C020917803211114C0409160
:103F400088025091890260918A0270918B024F5FC2
:103F50005F4F6F4F7F4F4093880250938902609369
:103F60008A0270938B02209188023091890221503D
:103F700031092093BA043093BB041092A104992311
:103F8000D9F190917B03992309F4C0C090E89093F4
:103F9000B404811103C081E08093B004F801EC54B3
:103FA000FB4F80917A038083C8018B549B4F6C0137
:103FB000B12CA5016DE773E00E94543A009188028C
:103FC0001091890220918A0230918B0201501109CF
:103FD0002109310940918002509181026091820251
:103FE0007091830280917A0381119DC081E894E0F1
:103FF000F12CE12C0E94FE1A8401045011098091D9
:10400000880290918902A0918A02B0918B02019757
:10401000A109B10960918002509181024091820210
:104020003091830220E178EEE72E71E0F72EF70160
:10403000A22E1192AA94E9F779E47093E801109204
:10404000ED010093F7016093EE015093EF0140936F
:10405000F0013093F1018093F2019093F301A0936A
:10406000F401B093F501E1E8F4E0A6EBB5E00190CE
:104070000D922A95E1F7A80164EB74E082E00E94BA
:104080001F17F801EC54FB4F638372838183908385
:104090008092B30487E393E167CDA12CAECE08E014
:1040A00010E0BFCE98012F5C3D4FF901ED57FD4F59
:1040B00095E090832C573D4F8770D9018C930E5F0C
:1040C0001F4FBDCE98012F5C3D4FF901ED57FD4FBD
:1040D0009AE090832C573D4F8370F90180830E5FE7
:1040E0001F4FB7CE882309F4BCCEF801EC54FB4F28
:1040F00088E080830F5F1F4FB4CE480154E0850EE7
:10410000911CDCCEE0E0E4CE20E0FBCE8091730396
:10411000882309F443CF8091780381113FCF81E058
:10412000809378033BCF81E994E062CF88E080936D
:10413000B10480917B03811104C08091B004882375
:1041400019F088E48093B10480915A0390915B0345
:1041500087769E7F90935B0380935A031092B304FB
:104160001092B2048AE090E02DCB66E0640F660FF7
:10417000660F58E0453008F450E013E0880F991FAF
:104180001A95E1F7861B91094C9620E130E0E7FF94
:1041900002C030E020E0820F931F2F2F3327232B04
:1041A00009F465C024E130E0821B930B28E030E085
:1041B00018161906CCF4651B70E0860F971F01973F
:1041C0000E946F35CF01A5E096958795AA95E1F7F6
:1041D000837090E00596869F9001879F300D969F93
:1041E000300D1124285F3F4F220F331F220F331F42
:1041F0002F5C3F4F4F5F63E0F695E7956A95E1F7D7
:10420000E3704E1BE9E0FDE3453050F04450550BA0
:10421000E9E0FDE302C0F595E7954A95E2F744E051
:10422000C901330FAA0BBB0B4C015D0104C0880C04
:10423000991CAA1CBB1C4A95D2F7A5019401A4E2C3
:10424000B4EF0E940B359F01F7FF02C02F5F3F4F75
:10425000359527958901330F220B330B600F711FA2
:10426000821F931F9F01FF0F440B550BC2CC30E000
:1042700020E09ACF8CE59FEF4ECD80915803877058
:1042800009F06AC00E94621581E00E94861580E0F4
:104290000E94DC1360E085E20E94C91365E086E2BB
:1042A0000E94C9130E9470140E94091469E28AE0F6
:1042B0000E94C91364E380E40E94C9136091B304AF
:1042C0006F5F82E30E94C9136091B30480E00E9493
:1042D000C9134091B30450E020E064EB74E080E83F
:1042E0000E944E1381E00E948F09609168027091D4
:1042F000690280916A0290916B02611571058105D6
:10430000910531F10E941D09611571058105910525
:10431000F9F00091620210916302209164023091E1
:104320006502DC01CB01800F911FA21FB31F809398
:10433000620290936302A0936402B093650280913D
:1043400066029091670201969093670280936602DD
:1043500083E00E948615D9C90E94741581E00E94ED
:10436000B71387FD06C061E273E085E791E00E9424
:104370007B0D81E00E9486150E94C0140E9470147B
:1043800068E08AE00E94C9130E94091464E389E38B
:104390000E94C9136CE780E40E94C9136FEF82E1A9
:1043A0000E94C91367EF81E10E94C91360E08EE0AB
:1043B0000E94C91360E08DE00E94C9136091B304AC
:1043C00082E285CF232B89F0C114D104E104F104EA
:1043D000C9F0D701C6018B809C80AD80BE80881952
:1043E0009909AA09BB09B7FF33CBB701A601415709
:1043F0005240610971092BE532E20FC0EF2B09F041
:1044000027CB83C9C12CD12C7601C394E2CF21ECF8
:1044100036E14B815C816D817E8180E492E00E9477
:10442000770873C982E08093680376C980915A0344
:1044300090915B0383FF20C010927C0382FF1AC01F
:10444000877E90935B0380935A0382E190E00E9401
:104450006B0F80915A0390915B0385709927892B8C
:1044600059F480E492E00E94040980E00E948615DD
:104470000C94491B8776E5CF08950E9416220E946E
:10448000AE1A8CE090E00E946B0F0C94331AEAE5B0
:10449000F3E0808191818E7D9F7B91838083109258
:1044A00080021092810210928202109283020E9476
:1044B00016220C94331A0C94491B0E946B0F0C9417
:1044C000491B4F925F926F927F928F929F92AF9211
:1044D000BF92CF92DF92EF92FF92CF93DF938091C2
:1044E000B304882309F4A8C0C0904802D0904902C0
:1044F000E0904A02F0904B02C0915A020E94B0062E
:1045000087FF9AC0C37039F480E00E941912C4E09A
:10451000D0E0CE01F0C02EEED21A809148029091E8
:104520004902C81AD90A6091AE04662379F0209135
:10453000600330916103C601821B930B70E06F5FD3
:104540007F4F0E946F356901C60ED71E20915A0217
:1045500022FD1DC04091640350916503809160036A
:10456000909161038C199D0997FF03C091958195E6
:10457000910990936303809362034817590724F4C9
:104580009093650380936403277F20935A02D0920F
:104590006103C0926003109277031092AE04809181
:1045A0005A028B7F80935A02C4E0D0E0C090480248
:1045B000D0904902E0904A02F0904B0282E1D80E7E
:1045C0008AE7E81EF11C8090600390906103092C3B
:1045D000000CAA08BB084090620350906303052CAE
:1045E000000C660877082091AE04A0916403B09196
:1045F000650330E00E949035460E571E681E791EF6
:1046000083E00E940E129B01AC01C301B2010E9423
:10461000EC34DA01C9010596A11DB11D811524E014
:104620009207A105B1050CF476C08FEF93E090934B
:104630006C0380936B0375C0C0906003D0906103DE
:104640000D2C000CEE08FF0860E072E18AE790E0B4
:104650006C197D098E099F09C0904802D0904902CB
:10466000E0904A02F0904B026C0D7D1D8E1D9F1D47
:10467000609348027093490280934A0290934B02E0
:10468000C0904C02D0904D02E0904E02F0904F024C
:1046900020E8C20ED11CE11CF11CC0924C02D09249
:1046A0004D02E0924E02F0924F022091AE042F5F35
:1046B0002093AE046C567A4F8D4F9F4F44E00E947A
:1046C0009D198091AE048A3350F4809166039091D5
:1046D0006703C3E0D0E08F35914008F467CF809145
:1046E0005A0390915B038D7D997F90935B03809338
:1046F0005A038BE090E0DF91CF91FF90EF90DF9035
:10470000CF90BF90AF909F908F907F906F905F9071
:104710004F900C945D22B7FF8ACF10926C031092D9
:104720006B0383E00E940E129B01AC01ADEFBFEF63
:104730000E940B35860E971EA81EB91EC818D908F0
:10474000EA08FB08C0929002D0929102E092920295
:10475000F092930280916B0390916C0390936703A6
:1047600080936603D6CECF9380915A0390915B03DA
:10477000877790935B0380935A031092780310928B
:10478000B00420917004222351F03091710433233E
:1047900009F471C0806190935B0380935A030E9477
:1047A000B1076E5E75488F4F9F4F40E00E949D1984
:1047B0008091B104877079F080915A0390915B03E6
:1047C00094FF09C09F7E90935B0380935A038FE010
:1047D00090E00E946B0F8AE090E00E945D22809141
:1047E0005E0390915F0381979CF1809175030E9415
:1047F0006611C82F0E94600590917503811101C058
:10480000C92F9C1342C080915E0390915F03813F4A
:1048100092404CF080915A0390915B039064909386
:104820005B0380935A0360E18C2F0E948D05809179
:104830005A0390915B039C01306130935B0320939A
:104840005A032817390721F08EE090E00E946B0F81
:104850002091AF04222361F080915A0390915B0371
:1048600081FF1AC082E090E00E946B0F1092AF04AB
:1048700081E0CF91089510927B0310927A032093E8
:104880007C0310927004886086CFCC2361F290E0A4
:1048900080E00E943A06C7CF21502093AF04211137
:1048A000E7CF409180025091810260918202709125
:1048B0008302452B462B472BD9F29C0124743327C6
:1048C000232BB1F610925A021092A1041092B00458
:1048D0008E77816090935B0380935A030E946F11DF
:1048E0000E94B107AB01BC014C5D594F64487F4F3A
:1048F000409348025093490260934A0270934B02DE
:1049000040936C0250936D0260936E0270936F023D
:104910002CEE34E280E492E00E94770881E00E946D
:104920003E16A6CF8091B0048823B1F1883020F5DF
:104930008F5F8093B00480FF07C0809175030E9451
:10494000661160E80E948D0560916C0270916D02A5
:1049500080916E0290916F0243E00E949D198091B8
:104960005A0390915B038F7790935B0380935A0374
:104970000E94491B81E0089580E68093B1048091F4
:104980005E0390915F0301960E943A061092B30471
:104990001092B2040C94B32380917803882379F0A9
:1049A00090917303891758F48F5F809378030E9466
:1049B000B1076E5E75488F4F9F4F40E0CECF80E2CB
:1049C000DCCF80917903811103C081E0809379036A
:1049D00085E090E00C945D2280E00E94861580E4E2
:1049E00092E00E9404098091B30481110DC080916E
:1049F0005A0390915B038C7F90935B0380935A03DF
:104A000081E090E00C945D220E94B00687FD13C007
:104A10001092B30481E00E943E16409148025091EA
:104A2000490260914A0270914B022CEE34E280E41C
:104A300092E00C94770881E00E94191280915A0349
:104A400090915B038E7F826090935B0380935A0307
:104A500082E090E0D7CFCF92DF92EF92FF920F9358
:104A60001F93CF93DF9300D0CDB7DEB780915A0369
:104A700090915B0382FD24C085FD11C08F779093D8
:104A80005B0380935A0381E00F900F90DF91CF91E9
:104A90001F910F91FF90EF90DF90CF9008958F7549
:104AA00090935B0380935A03809177038A3018F4C4
:104AB0008F5F8093770389E090E00E945D22E3CFCF
:104AC0008F7790935B0380935A0384E190E00E9478
:104AD0006B0F87E090E09A838983809156039091D1
:104AE0005703892B49F48091750311E0882329F03D
:104AF0000E9466118093750310E06091710370E06D
:104B0000CE0101960E942D1897FF8093710380912A
:104B10005A0390915B03977F90935B0380935A03B2
:104B20000E94B1076B017C018091980290919902DB
:104B3000A0919A02B0919B02B701A601481B590BA4
:104B40006A0B7B0B77FF02C06C017D01209175031E
:104B50008FEF90E002C0959587952A95E2F70E9425
:104B60006F19645973428D4F9F4FC60ED71EE81EB2
:104B7000F91EC0926802D0926902E0926A02F09235
:104B80006B02C12ED12CF12CE12C112381F001EE0E
:104B900015E20E94B107AB01BC014C0D5D1D6E1DFD
:104BA0007F1D980180E492E00E9477086CCF0BE5AE
:104BB00012E2EFCF8091B10480FF0C942B2580E0AE
:104BC000089588E090E00C945D22CF92DF92EF92FE
:104BD000FF920F931F93CF93DF938091B10480FFD7
:104BE00005C08091B304882309F429C180915A0338
:104BF00090915B0387FF1CC184729927892B51F424
:104C0000DF91CF911F910F91FF90EF90DF90CF90A8
:104C10000C94DA251091B30411110AC0DF91CF91E1
:104C20001F910F91FF90EF90DF90CF900C942B2568
:104C3000113111F0113221F78091B404837E80325A
:104C4000F9F6C12FD0E00E941717AE01415051096B
:104C500065EB74E080E00E941F170E9417172497ED
:104C6000AE0164EB74E08AE00E941F176B017C01C7
:104C7000CC54DB4F688179818A819B810E94893580
:104C8000C616D706E806F90609F0BACF8BEB94E012
:104C90000E948C066093800270938102809382024E
:104CA0009093830288EB94E00E948C06992760938E
:104CB0007C0270937D0280937E0290937F0280E05D
:104CC0000E94DB191132F9F48091D00481111BC0CC
:104CD00081ECE82E84E0F82EC3E0C7010E94920622
:104CE000AB01BC01411551056105710531F00FEFB4
:104CF00030E020E08C2F0E948D11CF5F83E0E80E22
:104D0000F11CC83051F780915C0390915D030197CD
:104D1000E9E8F4E028E0DF011D922A95E9F721E0B7
:104D20002093810426E0E5EBF4E0A2E8B4E00190F2
:104D30000D922A95E1F7809388049093890480E18D
:104D4000E1E8F4E0A1E9B4E001900D928A95E1F781
:104D500082E0809391040E94171740E150E061E8DF
:104D600074E080E00E941F170E94171740E150E096
:104D700061E974E080E00E941F1780915A0385FF6B
:104D800009C0C091770380917503C15008F052C0EB
:104D90008093750380915A0390915B0389759D7F81
:104DA000986090935B0380935A031092B004109222
:104DB00088021092890210928A0210928B0210923D
:104DC000840210928502109286021092870210923D
:104DD00077031092A3041092A2041092A1041092DF
:104DE0007303109278031092AB041092AD041092EA
:104DF000AC041092A8040E947B0685E08093B30562
:104E000080EC9FEF0E943A068091BF04982F9F701C
:104E10009093AA04829587708093A9048091C0041E
:104E2000882359F08093A40486E090E00E945D22DC
:104E300081E006C00E946611A8CF81E0F3CF80E038
:104E4000DF91CF911F910F91FF90EF90DF90CF9066
:104E500008958091B30481110AC02091AA044FE003
:104E600057E168ED78EB85E090E00C946D120E94BC
:104E7000E525882391F308958091B304811102C040
:104E80001092B1040C94E5250F931F93CF93DF93F9
:104E9000E8988EEB93E0909301018093000180915C
:104EA000180280FF8AC08DE492E00E94B10489E478
:104EB0008093D401D0E0C0E0A0911302B09114021D
:104EC00014968C911497882309F47CC012968C91C7
:104ED00012978093D501ED91FC9111970280F38197
:104EE000E02DCD0109956093D6017093D701809391
:104EF000D8019093D901A0911502B0911602149691
:104F00008C911497882309F463C012968C911297A0
:104F10008093DA01ED91FC9111970280F381E02DED
:104F2000CD0109956093DB017093DC018093DD0175
:104F30009093DE0182E492E00E94B104CE018C5293
:104F40009E4F009711F00E94620B86E591E00E944F
:104F5000C30B83E392E00E94B104C4EDD1E00FEDF6
:104F600011E0899190E00E94960D81E392E00E9409
:104F7000B1040C171D07A9F786E591E00E94C30B49
:104F800080915A0390915B0387FF28C088E192E0EB
:104F90000E94730B1092180286EF99E09093010122
:104FA0008093000180916900836080936900E89A92
:104FB000DF91CF911F910F9108951092D401C1E01C
:104FC000D0E07ACF1A968C911A9781117FCF93CF28
:104FD0001A968C911A97811198CFACCF8C7999271A
:104FE000892BD9F400917503C02FD0E08C2F0E943B
:104FF0006005882391F0C83080F4FE01EC55FD4F28
:10500000E491EE2351F0E83108F056C0FE01EA5178
:10501000FD4FE4912196EF3F49F780915A0390911B
:105020005B039C012C793327232BF9F42BE0E4ED6F
:10503000F1E0ADE7B3E001900D922A95E1F710920F
:105040007B0321E020937A032BE020937C039C01D7
:10505000286030935B0320935A0382FD04C01092B2
:10506000B004109278030E94491B0E94B10760931C
:10507000D0017093D1018093D2019093D3014AE083
:105080000E947F0B85E192E00E94B10487E092E0EC
:105090000E94730B81E092E00E94B104609174025F
:1050A0007091750280917602909177024AE00E9499
:1050B0007F0B0E946F0B6ECF0C1709F4AECF60E828
:1050C0008C2F0E948D05A9CF2F923F924F925F9215
:1050D0006F927F928F929F92AF92BF92CF92DF9208
:1050E000EF92FF920F931F93CF93DF93CDB7DEB76D
:1050F000C754D1090FB6F894DEBF0FBECDBF2696B8
:105100009FAF8EAF26974B0110927004452B11F57F
:1051100010927104F12CE12CE814F904FCF0C701A1
:10512000C95BDF4F0FB6F894DEBF0FBECDBFDF9176
:10513000CF911F910F91FF90EF90DF90CF90BF9094
:10514000AF909F908F907F906F905F904F903F9027
:105150002F90089581E080937104DCCF2696CEAC29
:10516000DFAC2697CE0CDF1CF6018081823060F127
:10517000282F2250330BF9012231310528F5EB5944
:10518000FD4FE4912E2F30E028963FAF2EAF2897A9
:105190002115310521F25401AE18BF08A216B3063D
:1051A0000CF4BDCF8250893088F4E82FF0E0E5524E
:1051B000F74D0C948335E728F128932A392A0D2AD4
:1051C000A42A842AE628F82AE0E0DCCF47012896C2
:1051D000EEADFFAD2897EE0DFF1D740147017F0175
:1051E0009BCF360107E0512C412CC501841995094C
:1051F00005970CF493C0F3011181312E3294AFE086
:105200003A229481907731F0903649F10E7F27C091
:105210002901EBCF6281738141E352E030E020E06D
:10522000E1E0F0E0022E02C0EE0FFF1F0A94E2F769
:10523000E623F723EF2B61F0FA01ED57FF4F808152
:105240009181A281B3818C7F892B8A2B8B2BF1F2E8
:105250002F5F3F4F4C5F5F4F2031310509F7832DA2
:105260000E944213811101C00D7F1F70183038F465
:10527000E12FF0E0E457FD4FE491E03809F40B7FB3
:1052800092012B5F3F4FF5E06F0E711CF30180819F
:10529000833009F4BDCF3201F5E06F0E711C80E45C
:1052A000E4EBF2E0DE01119601900D928A95E1F7B0
:1052B000A0905403B0905503073009F0A9C0130122
:1052C000F60141E024961FAE249710E025E0221657
:1052D00031040CF44EC01181348124963FAF2497E1
:1052E000832F8077E9F0803611F1809154039091FB
:1052F000550325E0221A3108359641E0009709F45C
:1053000040E09F012C193D0926153705FCF2892B39
:1053100091F1312E32948FE0382234C000E0BBCFBF
:10532000828193819093550380935403DECFA4EB45
:10533000B2E090E080E030E020E04D915D916D9131
:105340007D914C7F452B462B472B51F041E050E09F
:10535000082E02C0440F551F0A94E2F7242B352B68
:1053600001968031910549F73093550320935403FA
:10537000BCCF411101C006E0312E3294EFE03E2255
:10538000073039F4832D0E94600507E081110EC0BB
:1053900005E080E4FE013196A4EBB2E001900D92AD
:1053A0008A95E1F7B0925503A0925403AA24A394DE
:1053B000D12CC12CC3018C199D0905976CF0602F6D
:1053C00083E00E946506A82E35E0C30ED11CC614EA
:1053D000D70414F48111EECF0730A9F424968FADD1
:1053E00024978F70909173038913809373031F70B8
:1053F00060E8183028F4E12FF0E0E457FD4F6491A5
:10540000832D0E948D05E40CF51CAA2029F1DFCE26
:1054100024961FAE249710E0AFCF20916A03022E8E
:10542000000C330BC901029697FD0396959587955D
:1054300095958795182F1F734F970CF01FE11093C8
:10544000A604D0903F020091700486E00E944606B8
:10545000811104C000937004F701C0CE8D2D0E940D
:1054600046068823B9F3812F0E944606882391F3CC
:10547000AECEF6018181082F0F7090E064E0959523
:1054800087956A95E1F7182F1770C701029626963F
:105490002EAD3FAD2697820F931F0E9492062B01DF
:1054A0003C0130EC3093AB04802F0E9442138823E0
:1054B00029F08091AB0482608093AB0441145104C5
:1054C0006104710429F08091AB0481608093AB0486
:1054D000143028F48091AB0484608093AB04609115
:1054E000AB04673C61F40093AA0440928C02509292
:1054F0008D0260928E0270928F021093A9046770E1
:1055000085E00E9465060DC0F60181818F7009F467
:1055100081E08093A404F2E0F093AD0488E00E945F
:105520004606A82E72CFF60181818F708093720398
:105530000E94B107609378027093790280937A0297
:1055400090937B0284E0EBCFC701029626962EADA6
:105550003FAD2697820F931FFC011081F601A380B7
:10556000B4800E9492062B013C01F6010581411492
:1055700051046104710421F41A29B12A12E009F4DA
:1055800013E0B02EB2945FE0B5220F70B01620F495
:105590001D7F612F87E0B5CFF601D1808B2D0E9452
:1055A00042138823A9F3802F0E944213882381F39A
:1055B0001330E1F48FE090E08B1991092FEF3FEF6A
:1055C00002C0369527958A95E2F78FEF9FEF02C0CC
:1055D000880F991F0A95E2F7282339230FEFB301AB
:1055E000A2018D2D0E948D118111D3CF12E0D1CF58
:1055F000F6010181C701029626962EAD3FAD269792
:10560000820F931F0E94920613E0611571058105B8
:10561000910509F412E0013150F5E02FF0E041E08E
:1056200050E002C0440F551F0A95E2F72091540341
:105630003091550324233523232B51F41D7F612FF3
:105640008AE00E946506A82E106C1093AC04DDCE93
:10565000133079F49F01220F331F220F331FF901FA
:10566000EC50FD4F6083718382839383E8CF10E019
:10567000E6CF12E0E4CF2F923F924F925F926F926B
:105680007F928F929F92AF92BF92CF92DF92EF92D2
:10569000FF920F931F93CF93DF9300D000D000D0E1
:1056A000CDB7DEB780915A0387FFE7C1F090B3040E
:1056B000F1101AC026960FB6F894DEBF0FBECDBF0C
:1056C000DF91CF911F910F91FF90EF90DF90CF90DE
:1056D000BF90AF909F908F907F906F905F904F9012
:1056E0003F902F900C9492242F2D30E03E832D83F9
:1056F0002C30310544F41092B3048091B10480FF42
:10570000D9CF80E0BBC18091B404982F937099F7F2
:10571000807E8983803611F0803A69F785EB94E0CA
:105720000E948C06009180021091810220918202D9
:10573000309183026017710782079307E1F6309179
:10574000B9043B833F70E32EC32ED12C1601A8E091
:105750002A0E311C2D813E81245031093E832D8338
:105760002215330544F288248A94982C2216330695
:105770004CF4F101EC54FB4F2081822E912CD60188
:1057800019961D0140908402509085026090860217
:10579000709087020091BA041091BB040419150996
:1057A0000F3F100709F078C021E0421A5108610844
:1057B000710820E1E8EEF1E0DF01322F1D923A9509
:1057C000E9F739E43093E80131E03093ED01ACEFD3
:1057D000AF0DAC83A093F7016093EE017093EF01DE
:1057E0008093F0019093F1014092F2015092F30105
:1057F0006092F4017092F501E1E8F4E0A6EBB5E007
:1058000001900D922A95E1F74D815E8164EB74E081
:1058100082E00E941F179B01AC01ED81FE81EC54D8
:10582000FB4F60817181828193810E9489352617A7
:1058300037074807590709F05ECF8091840290919D
:105840008502A0918602B0918702481659066A0621
:105850007B0638F584159505A605B7050CF44BCFE6
:105860000197A109B109481659066A067B0609F095
:1058700042CF8091A204882309F43DCFB981B03A88
:1058800009F039CF80E28093A1048114910409F4D6
:105890000EC101E010E033C0400E511E611C711CAE
:1058A00088CF0130104408F026CFD301C201019601
:1058B000A11DB11D8093840290938502A09386025E
:1058C000B0938702398180E2303A09F080E080931A
:1058D000A2048093A10410E000E08114910441F43B
:1058E000EE2031F08D819E81281639060CF403CF0D
:1058F0008091A104811103C09B8194FF09C0809114
:105900005A0390915B03806190935B0380935A03E9
:10591000109277031092A30480EC9FEF0E943A0646
:105920001092AB041092AD041092AC04E0915803B5
:10593000F09159038E2F877033E0F695E7953A95ED
:10594000E1F7E370F0E0A3E08A9FE00DF11D112480
:10595000E958FD4FE49180916903082E000C990BE2
:1059600080549109ED58FF0B8E1B9F0B97FD80E033
:105970008093A504A401B6018CEB94E00E946428F6
:10598000012B09F0B8CEBFEF8B169B0699F12D8144
:105990003E81221933093E832D831216130654F5D6
:1059A000C1018C549B4F9A8389834091800250910E
:1059B0008102609182027091830281E894E08114F7
:1059C000910411F081E994E0AD80BE80C980DA8055
:1059D000EE24E394F12C930182010E94FE1A8114BB
:1059E000910441F450E040E06D817E8189819A818B
:1059F0000E9464289091B004992349F0AB8120E87B
:105A0000A5FF20E48091B104822B8093B1048091A2
:105A1000B104181419043CF180628093B1042092FF
:105A2000B2041092B304992321F08091B10486FD51
:105A300041CE26960FB6F894DEBF0FBECDBFDF91E4
:105A4000CF911F910F91FF90EF90DF90CF90BF907B
:105A5000AF909F908F907F906F905F904F903F900E
:105A60002F900C94B32380618093B1042092B204F0
:105A7000FC80F218F092B304D6CF81E026960FB6E0
:105A8000F894DEBF0FBECDBFDF91CF911F910F9174
:105A9000FF90EF90DF90CF90BF90AF909F908F904E
:105AA0007F906F905F904F903F902F900895EE20E1
:105AB00009F4EFCE01E010E015CF8091B30481111D
:105AC0000EC0A091A404B0E0119624E234EF0E942D
:105AD00090352091AA0447E057E10C946D120E9482
