:100000000C9453020C94112D0C94EA2C0C947B024A
:100010000C947B020C947B020C94902D0C947B022C
:100020000C947B020C947B020C947B020C947B025C
:100030000C947B020C947B020C947B020C947B024C
:100040000C94A02C0C947B020C945E2D0C94382DF7
:100050000C947B020C947B020C947B020C947B022C
:100060000C947B020C947B02556E6B6E6F776E2046
:100070006576656E743A200045565F4A4F494E5F7B
:100080005458434F4D504C4554453A206E6F204ACA
:100090006F696E4163636570740045565F545843E1
:1000A000414E43454C45440045565F5458535441D6
:1000B00052540045565F4C494E4B5F414C495645A2
:1000C0000045565F4C494E4B5F4445414400455600
:1000D0005F5258434F4D504C4554450045565F5272
:1000E000455345540045565F4C4F53545F54535944
:1000F0004E4300206279746573206F6620706179C9
:100100006C6F6164005265636569766564200052B6
:10011000656365697665642061636B004469666642
:100120002028736563293A200045565F5458434F91
:100130004D504C4554452028696E636C7564657359
:100140002077616974696E6720666F72205258204B
:1001500077696E646F7773290045565F52454A4F41
:10016000494E5F4641494C45440045565F4A4F4918
:100170004E5F4641494C4544002D004E776B534B32
:1001800065793A20002D00417070534B65793A2013
:1001900000646576616464723A20006E6574696417
:1001A0003A200045565F4A4F494E45440045565F48
:1001B0004A4F494E494E470045565F424541434FDD
:1001C0004E5F545241434B45440045565F424541C2
:1001D000434F4E5F4D49535345440045565F42459A
:1001E00041434F4E5F464F554E440045565F534383
:1001F000414E5F54494D454F5554005D3A20005BD8
:1002000000465245513D005061636B657420717525
:1002100065756564003A20004F505F54585258503D
:10022000454E442C206E6F742073656E64696E6752
:1002300000200053656E64696E6720286865782920
:10024000203A2000496E74206F6E2070696E203253
:100250000A00000000002300260029000305020513
:10026000010602020500000600000105040420202A
:10027000200E11140C0F12090C0F06090C030609AD
:10028000000306100E0C0A0806040206E706909EFC
:10029000E27F7D000000000000000040404080FF41
:1002A000FFFFFF00040000000200000001000080CA
:1002B00000000040000000200000001000000005C9
:1002C000000000A027BE33E034C1332042C433A174
:1002D00027BE33E134C1332142C433FF0605040392
:1002E00002010900FFC040008025DB33A191D63315
:1002F00050CED533C2FDD133C0C8C53341DA8E33B9
:100300005374617274696E670031003200340038D2
:1003100000000000006700CC00B80154039D070AEC
:1003200057616B696E67207570202100456E74659A
:1003300072696E6720736C656570206D6F64652EE1
:100340002E2E0000000000240027002A00000000DC
:1003500000250028002B0004040404040404040203
:100360000202020202030303030303010204081052
:10037000204080010204081020010204081020001F
:100380000000080002010000030407000000000054
:10039000000000F7FB0AD1ABDC5E5435F7A6CD3484
:1003A000D1DEE0637C777BF26B6FC53001672BFE9B
:1003B000D7AB76CA82C97DFA5947F0ADD4A2AF9CBB
:1003C000A472C0B7FD9326363FF7CC34A5E5F17192
:1003D000D8311504C723C31896059A071280E2EB9B
:1003E00027B27509832C1A1B6E5AA0523BD6B3292B
:1003F000E32F8453D100ED20FCB15B6ACBBE394AB8
:100400004C58CFD0EFAAFB434D338545F9027F50BE
:100410003C9FA851A3408F929D38F5BCB6DA2110BD
:10042000FFF3D2CD0C13EC5F974417C4A77E3D6455
:100430005D197360814FDC222A908846EEB814DE85
:100440005E0BDBE0323A0A4906245CC2D3AC62910F
:1004500095E479E7C8376D8DD54EA96C56F4EA65F9
:100460007AAE08BA78252E1CA6B4C6E8DD741F4BF8
:10047000BD8B8A703EB5664803F60E613557B98666
:10048000C11D9EE1F8981169D98E949B1E87E9CE13
:100490005528DF8CA1890DBFE6426841992D0FB028
:1004A00054BB1600A72D11241FBECFEFD8E0DEBF2E
:1004B000CDBF11E0A0E0B1E0E2E6F7E602C00590B2
:1004C0000D92A639B107D9F726E0A6E9B1E001C03F
:1004D0001D92A834B207E1F712E0C3E5D2E004C0F0
:1004E0002197FE010E941C32C235D107C9F70E9434
:1004F000DA2D0C94AF330C940000FC0120E1215064
:1005000008F4089580E0211181819081990F87FD81
:1005100091609193F4CF80914503909146039C01A3
:100520003695279525753575821B930B9C01237392
:100530003373969587959695879583739373820FFA
:10054000931F9C01207F307F8F709F7064E0880F25
:10055000991F6A95E1F7820F931F9C013327892F1A
:100560009927820F931F0895BC01E3EAF4E090E01D
:1005700080E030E020E04191942748E0DC01880FE2
:10058000991FB7FF04C051E2852750E195274150DC
:10059000A9F72F5F3F4F2617370769F70895833074
:1005A00081F028F4813099F08230A9F008958730E5
:1005B000A9F08830C9F08430B1F4809180008F7D3B
:1005C00003C0809180008F7780938000089584B568
:1005D0008F7784BD089584B58F7DFBCF8091B00067
:1005E0008F778093B00008958091B0008F7DF9CF10
:1005F0001F93CF93DF93282F30E0F901E158FC4F90
:100600008491F901E559FC4FD491F901E95AFC4F65
:10061000C491CC23A9F0162F81110E94CF02EC2F98
:10062000F0E0EE0FFF1FE35BFC4FA591B4918FB795
:10063000F894EC91111108C0D095DE23DC938FBFA4
:10064000DF91CF911F910895DE2BF8CFCF93DF93E9
:1006500090E0FC01E559FC4F2491895A9C4FFC0124
:1006600084918823D1F090E0880F991FFC01ED5B05
:10067000FC4FA591B491FC01E35BFC4FC591D49173
:1006800061110EC09FB7F8948C91E22FE0958E23F4
:100690008C932881E223E8839FBFDF91CF91089557
:1006A0008FB7F894EC91E22BEC938FBFF6CF3FB766
:1006B000F8948091EB019091EC01A091ED01B09143
:1006C000EE0126B5A89B05C02F3F19F00196A11D8C
:1006D000B11D3FBFBA2FA92F982F8827BC01CD018C
:1006E000620F711D811D911D43E0660F771F881FEA
:1006F000991F4A95D1F708958F929F92AF92BF921A
:10070000CF92DF92EF92FF924B015C010E94570360
:100710006B017C010E9457036C197D098E099F09AA
:10072000683E734081059105A8F321E0821A910883
:10073000A108B10888EEC80E83E0D81EE11CF11CA8
:1007400081149104A104B10429F7FF90EF90DF9088
:10075000CF90BF90AF909F908F9008950895AF92E3
:10076000BF92CF92DF92EF92FF920F931F93CF939E
:10077000DF936C017B018B01040F151FEB015E0100
:10078000AE18BF08C017D10759F06991D601ED9195
:10079000FC910190F081E02DC6010995892B79F734
:1007A000C501DF91CF911F910F91FF90EF90DF90E6
:1007B000CF90BF90AF900895FC01538D448D252FAD
:1007C00030E0842F90E0821B930B541710F0CF96EB
:1007D000089501970895FC01918D828D981761F01D
:1007E000A28DAE0FBF2FB11D5D968C91928D9F5F34
:1007F0009F73928F90E008958FEF9FEF0895FC0113
:10080000918D828D981731F0828DE80FF11D858DC5
:1008100090E008958FEF9FEF0895FC01918D228D58
:10082000892F90E0805C9F4F821B91098F739927DD
:10083000089589EA95E00E940D0421E0892B09F4CE
:1008400020E0822F089580E090E0892B29F00E941B
:10085000190481110C9400000895FC01A48DA80FC7
:10086000B92FB11DA35ABF4F2C91848D90E00196F2
:100870008F739927848FA689B7892C93A089B18912
:100880008C91837080648C93938D848D981306C0B3
:100890000288F389E02D80818F7D80830895EF9217
:1008A000FF920F931F93CF93DF93EC0181E0888F2A
:1008B0009B8D8C8D98131AC0E889F989808185FFFA
:1008C00015C09FB7F894EE89FF896083E889F9899C
:1008D00080818370806480839FBF81E090E0DF919E
:1008E000CF911F910F91FF90EF900895F62E0B8DF1
:1008F00010E00F5F1F4F0F731127E02E8C8D8E11AC
:100900000CC00FB607FCFACFE889F989808185FF12
:10091000F5CFCE010E942D04F1CFEB8DEC0FFD2F12
:10092000F11DE35AFF4FF0829FB7F8940B8FEA89CD
:10093000FB8980818062CFCF0F931F93CF93DF938A
:100940008C01D0E0C0E0F801EC0FFD1F649166233C
:1009500041F089EA95E00E944F04892B11F021961D
:10096000F2CFCE01DF91CF911F910F910895CF93D8
:10097000DF93EC01888D8823B9F0AA89BB89E889C7
:10098000F9898C9185FD03C0808186FD0DC00FB66D
:1009900007FCF7CF8C9185FFF2CF808185FFEDCFEB
:1009A000CE010E942D04E9CFDF91CF910895EFEFA2
:1009B000F1E08481958194839681958397819683D4
:1009C00087838085928590878287818593859187AB
:1009D000838787859685978795859687948595875C
:1009E00084870895CF932FEF31E0BC01605F7F4F84
:1009F000DC01F90140E0CD9150815C2750834F5FCD
:100A000034964430C1F72F5F3F4F049686179707FF
:100A100079F7CF9108950F931F93611571058105A3
:100A20009105F9F000914B0210914C0220914D027A
:100A300030914E02DC01CB01800F911FA21FB31F2A
:100A400080934B0290934C02A0934D02B0934E02C0
:100A500080914F02909150020196909350028093A2
:100A60004F021F910F910895FC01208131812115C2
:100A7000310519F490E080E008952617370749F40E
:100A8000FB0120813181FC013183208381E090E0F2
:100A90000895C901E9CF609143037091440321E0B7
:100AA00030E002C0220F331F8A95E2F790E080E029
:100AB000A1E0B0E0AD01082E02C0440F551F0A941A
:100AC000E2F746235723452B59F0FC01EE0FFF1F99
:100AD000ED5DFC4F4081518142235323452B31F47E
:100AE00001968031910531F780E0089581E0089505
:100AF000982F6038C1F0809163036817A1F060936C
:100B0000630381E020916403291761F090936403EB
:100B10008091490390914A03986090934A0380938F
:100B2000490381E0089580E0EDCF4F925F926F928C
:100B30007F928F929F92AF92BF92CF92DF92EF926D
:100B4000FF920F931F93CF93DF936B017C014901B9
:100B50005A01E80160911B0270911C026115710538
:100B600031F0673041E0740710F066E071E090E02A
:100B700080E0A70196010E944A32722E032F142FA3
:100B8000B52FF62FE72F582E692EA0E00E94913343
:100B900084F4215031094F4F5F4F6F4F7F4F8F4F7C
:100BA0009F4F722E032F142FB52FF62FE72F582E9D
:100BB000692E272D302F412F5B2F6F2F7E2F852DF4
:100BC000962D00E10E94743329013A01A501940198
:100BD000220F331F441F551FC301B201660F771F39
:100BE000881F991F620F731F841F951F64587F4FC2
:100BF0008F4F9F4F0E94FD312C0F3D1F63E87FEF09
:100C00008FEF9FEF6419750986099709211544E054
:100C1000340710F02FEF33E030935B0320935A0337
:100C20006C0D7D1D8E1D9F1DDF91CF911F910F912A
:100C3000FF90EF90DF90CF90BF90AF909F908F90FC
:100C40007F906F905F904F90089520914D03309169
:100C50004E0320383F4F21F090934E0380934D0375
:100C60000895982F80916004E0915F04882361F0DB
:100C7000EF30A0F481E08E0F80935F04F0E0EF5935
:100C8000FB4F908381E00895E33F48F481E08E0FAD
:100C900080935F04F0E0E459FC4FF3CF80E00895C7
:100CA000CF93DF93C62FD0915F040E94310681114C
:100CB00006C0D0935F0480E0DF91CF9108958C2F20
:100CC0000E9431068823A9F381E0F6CF10929804A0
:100CD0001092990488E096EEA3EDB3E380937B0233
:100CE00090937C02A0937D02B0937E020895FC0154
:100CF000608171818281938108950F931F93019781
:100D00000E947706272F382F492F5527A4E6B0E0F9
:100D10000E943F328B019C01005C15452047334304
:100D2000013C1F4C2A46310518F060E070E0CB0111
:100D30001F910F9108950F931F93CF938091A20459
:100D4000813109F088C0C091AA0487E090E00E9438
:100D5000B402C81709F47FC083EA94E00E947706C2
:100D6000992700916B0210916C0220916D023091D5
:100D70006E02061717072807390709F06EC0C091E1
:100D80003802CC7FC0933802809159038093370298
:100D9000809158038093360280915B0290915C02AF
:100DA000A0915D02B0915E0280549342A109B10905
:100DB0008093260290932702A0932802B0932902E1
:100DC00086EA94E00E94770660932A0270932B02D1
:100DD00080932C0290932D028C2F81608093380297
:100DE0000091B2041091B3048FE090E00E94B4022D
:100DF00080179107A1F58BEA94E00E947706672F90
:100E0000782F892F992787FD9A9560932E027093EA
:100E10002F0280933002909331028EEA94E00E9478
:100E20007706672F782F892F992787FD9A956093EA
:100E30003202709333028093340290933502809192
:100E4000AB0480933902C360C093380281E0CF9134
:100E50001F910F9108958EEFFACF8FEFF8CF80E0BA
:100E6000F6CFF8948091A8018F5F8093A801089530
:100E70000F931F93AB01BC012091A401DC01CA01B7
:100E80003CE1B695A795979587953A95D1F7822736
:100E90008870820F8093A401E4E07695679557955A
:100EA0004795EA95D1F79B01382BC901BA011F91EB
:100EB0000F9108954F925F926F927F928F929F92BF
:100EC000AF92BF92CF92DF92EF92FF922B013C0143
:100ED0000E9457034B015C01C090A001D090A1017A
:100EE000E090A201F090A301C701B601680D791D41
:100EF0008A1D9B1D0E943807C40CD51CE61CF71CDC
:100F0000C092A001D092A101E092A201F092A301AF
:100F1000C701B601680D791D8A1D9B1DFF90EF90DA
:100F2000DF90CF90BF90AF909F908F907F906F9009
:100F30005F904F900C9438070F931F930E945703B4
:100F40000091A0011091A1012091A2013091A30173
:100F5000600F711F821F931F1F910F910C94380710
:100F60008F929F92AF92BF92CF92DF92EF92FF92B9
:100F7000E091A505F091A605309791F06B017C01F9
:100F800082809380A480B5800E949C07861A970A6D
:100F9000A80AB90A81E08C149D04AE04BF040CF0C9
:100FA00080E0FF90EF90DF90CF90BF90AF909F9048
:100FB0008F900895AF92BF92CF92DF92EF92FF92FF
:100FC0000F931F93CF93DF938091A801815080935B
:100FD000A801811169C0789405EA11E0D0E0C0E071
:100FE000BB24B394E091E301F091E401EC0FFD1F09
:100FF00023812F3F09F451C0F801D080ED2CF12C52
:1010000030E0F901E158FC4F8491F901E559FC4FBA
:10101000C490F901E95AFC4FA490AA2009F44FC0EA
:1010200081110E94CF02EA2DF0E0EE0FFF1FEE5A71
:10103000FD4FA591B491EC91CE2231E020E009F46E
:1010400030E0832F922FE816F90639F1DB24F801FE
:10105000D082DD2011F1CE01880F991F880F991FD2
:101060009C0129523E4F7901F90180819181A28131
:10107000B381892B8A2B8B2B81F40E949C076115ED
:1010800071058105910521F461E070E080E090E058
:10109000F701608371838283938321960F5F1F4FD3
:1010A000C330D10509F09ECFDF91CF911F910F91F1
:1010B000FF90EF90DF90CF90BF90AF90089590E0B9
:1010C00080E0C1CFCF92DF92EF92FF92CF93DF9378
:1010D0006B017C01EA01C114D104E104F10421F4A3
:1010E000C12CD12C7601C3940E943107809120023B
:1010F00090912102A0912202B0912302892B8A2B88
:101100008B2BD9F587EA95E06EE172E00E943405F9
:1011100010921F0210921E02C0922002D092210251
:10112000E0922202F0922302D0932502C09324027F
:10113000E091A505F091A605C5EAD5E0309789F0C4
:1011400082819381A481B5818C199D09AE09BF0963
:10115000181619061A061B069CF4F0931F02E0935A
:101160001E028EE192E099838883DF91CF91FF90F8
:10117000EF90DF90CF900C94DA0785EA95E0C4CF2A
:10118000EF010190F081E02DD9CF0F931F93CF9302
:10119000DF93EC018B010E9431078A819B81AC8136
:1011A000BD81892B8A2B8B2BE9F487EA95E0BE0160
:1011B0000E943405198218821A821B821C821D82A9
:1011C0001F830E83E091A705F091A805A7EAB5E07B
:1011D000309759F4CD93DC93DF91CF911F910F910C
:1011E0000C94DA0785EA95E0E2CFDF010190F08107
:1011F000E02DEECFCF93DF93EC010E9431078A817F
:101200009B81AC81BD81892B8A2B8B2B49F487EA8A
:1012100095E0BE010E943405DF91CF910C94DA076E
:1012200085EA95E0F6CF8091D60181608093D60162
:101230008CEC91E00E94FA0862ED7BE28CEC91E08C
:101240000C94C508CF92DF92EF92FF926B017C0164
:101250000E949C07A7019601261B370B480B590BD0
:10126000DA01C901B7FF0CC066277727CB01621BE3
:10127000730B840B950BFF90EF90DF90CF90089548
:10128000833332E09307A105B1058CF068E070E08C
:1012900080E090E00E947C030E949C07A7019601D9
:1012A000261B370B480B590BDA01C901E9CF181679
:1012B00019061A061B0654F424E0880F991F2A9574
:1012C000E1F7880F991F04970197F1F760E070E04C
:1012D000CB01D1CFCF92DF92EF92FF92A091CA01C2
:1012E000B091CB01682F6170ED91FC911197019045
:1012F000F081E02DCD0109956B017C01C114D10471
:10130000E104F10461F00E949C076C0D7D1D8E1DAF
:101310009F1DFF90EF90DF90CF900C942209FF90DB
:10132000EF90DF90CF900895982FE091E301F09136
:10133000E40181818F3F39F061E02681291301C0EA
:1013400060E00C94F802089581E0089580E008952B
:10135000089560E070E0CB0108954115510529F42E
:10136000EAE7F0E080818F7780836A307105B9F019
:10137000CB01880F991F880F991F80726770686072
:10138000682B88E10FB6F894A895809360000FBE93
:1013900060936000E0E6F0E0808180648083232B2E
:1013A000D9F483B7817F846083BFF89483B7816069
:1013B00083BF85B7806685BF8F7D85BF789488950C
:1013C00083B78E7F83BF7894452B29F4EAE7F0E05A
:1013D000808180688083089583B7817F846083BF24
:1013E000F89483B7816083BF7894889583B78E7FA4
:1013F00083BF7894E9CF0F931F93CF93DF938C0132
:10140000D0E0C0E061E085E00E94F8026AEF70E0A1
:1014100080E090E00E947C0360E085E00E94F8029A
:101420006AEF70E080E090E00E947C0321960C1748
:101430001D0741F7DF91CF911F910F910895FC0196
:1014400001900020E9F73197AF01481B590BBC010F
:1014500089EA95E00C94AF0383E391E00C941F0AB2
:10146000CF93DF930E949C04EC010E942C0A8C0F06
:101470009D1FDF91CF9108958F929F92AF92BF925F
:101480000F931F93CF93DF93CDB7DEB7A1970FB61E
:10149000F894DEBF0FBECDBF19A2423008F44AE077
:1014A0008E010F5D1F4F842E912CB12CA12CA50114
:1014B00094010E94DB31E62FB901CA01EA30F4F44D
:1014C000E05DD801EE938D01232B242B252B79F79A
:1014D00090E080E0109719F0CD010E941F0AA196BC
:1014E0000FB6F894DEBF0FBECDBFDF91CF911F9135
:1014F0000F91BF90AF909F908F900895E95CE1CFDE
:10150000CF93DF930E941F0AEC010E942C0A8C0FDC
:101510009D1FDF91CF910895CF92DF92EF92FF92BE
:10152000CF93DF9397FF1BC06B017C016DE289EACB
:1015300095E00E944F04EC0166277727CB016C19D8
:101540007D098E099F094AE00E943C0A8C0F9D1F6D
:10155000DF91CF91FF90EF90DF90CF9008954AE018
:10156000DF91CF91FF90EF90DF90CF900C943C0AE9
:101570008C01EB0186E391E00E94800AC8010E9481
:101580001F0A6AE389EA95E00E944F04BE0190E0D9
:1015900080E04AE00E943C0A0E942C0A89EA95E019
:1015A0000E94B7040E943107FFCFCF93DF93EC0175
:1015B000409728F460E389EA95E00E944F04BE0159
:1015C00090E080E040E1DF91CF910C943C0A8F9253
:1015D0009F92AF92BF92CF92DF92EF92FF920F93C2
:1015E0001F93CF93DF93CDB7DEB7A0970FB6F894D4
:1015F000DEBF0FBECDBF4C010E949C0760939601D9
:101600007093970180939801909399010E948C0A9E
:101610008FEF91E00E949C04609196017091970178
:10162000809198019091990128EE33E040E050E0DC
:101630000E944A32A4E2AA2EB4EFBB2EC12CD12CB8
:10164000E12CF12C00E010E00E948632B901CA01C1
:101650000E948C0A8BEF91E00E949C04F401319768
:10166000E431F10508F070C1E85CF44F0C941C32D1
:101670004C0B620B650B680B6B0B6E0BA40C040C14
:10168000070C0A0C8C0C8F0C920C950C980CA40C6B
:101690009B0C9E0CE70BA10C8BEE91E0A0960FB675
:1016A000F894DEBF0FBECDBFDF91CF911F910F9198
:1016B000FF90EF90DF90CF90BF90AF909F908F9072
:1016C0000C94300A8BED91E0E9CF8AEC91E0E6CF03
:1016D00088EB91E0E3CF8DEA91E0E0CF82E090E00B
:1016E0000E94FB0983EA91E00E94300AC0906B02DD
:1016F000D0906C02E0906D02F0906E0280906F02CC
:1017000090907002A0907102B090720280E1E0E8C7
:10171000F4E0DE01119601900D928A95E1F780E1E7
:10172000E0E7F4E0DE01519601900D928A95E1F731
:101730008BE991E00E949C044AE0C701B6010E9437
:101740003C0A0E942C0A81E991E00E949C0440E13D
:10175000C501B4010E943C0A0E942C0A87E891E06E
:101760000E949C048E010F5F1F4F912C812CF80169
:1017700081918F0190E00E94D50AFFEF8F1A9F0A96
:1017800080E188169104B1F585E391E00E94800A1A
:101790008BE791E00E949C044E01E1E18E0E911CCA
:1017A00010E000E0F40181914F0190E00E94D50A21
:1017B0000F5F1F4F0031110511F50E942C0A109286
:1017C000920480E89FEF90934E0380934D03A09680
:1017D0000FB6F894DEBF0FBECDBFDF91CF911F9142
:1017E0000F91FF90EF90DF90CF90BF90AF909F90C0
:1017F0008F90089585E891E00E949C04B8CF89E716
:1018000091E00E949C04CECF8AE691E047CF89E523
:1018100091E044CF81E090E00E94FB0989E291E0F1
:101820000E94300A8CE191E00E949C046091960134
:1018300070919701809198019091990100919A017E
:1018400010919B0120919C0130919D01601B710BB7
:10185000820B930B28EE33E040E050E00E944A32C6
:10186000E4E2AE2EF4EFBF2EC12CD12CE12CF12CF2
:1018700000E010E00E948632B901CA0128EE33E090
:1018800040E050E00E94FD31CA01B9010E948C0A7B
:101890000E942C0A85E391E00E94800A8091A004B6
:1018A00087FF04C08FE091E00E94300A8091A2047B
:1018B000882391F085E091E00E94300A6091A204B3
:1018C00070E090E080E04AE00E943C0A0E942C0A0E
:1018D00083EF90E00E94300A809104018930C0F4C7
:1018E00062ED7BE28CEC91E0A0960FB6F894DEBF3F
:1018F0000FBECDBFDF91CF911F910F91FF90EF9061
:10190000DF90CF90BF90AF909F908F900C94C508C0
:1019100081E08093E5015BCF85EE90E0BFCE8CED5A
:1019200090E0BCCE8EEC90E0B9CE81EC90E0B6CEEB
:1019300083EB90E0B3CE88EA90E0B0CE8AE990E005
:10194000ADCE88E790E0AACE88E690E00E949C04A5
:10195000B40190E080E04AE00E943C0AA0960FB6F5
:10196000F894DEBF0FBECDBFDF91CF911F910F91D5
:10197000FF90EF90DF90CF90BF90AF909F908F90AF
:101980000C942C0ACF92DF92EF92FF92CF93DF93C9
:10199000EC01C12CD12C7601C3940C2E04C0CC0CCC
:1019A000DD1CEE1CFF1C0A94D2F7E3FC03C0CE0141
:1019B0000E94E70AD701C60188279472AA27BB278D
:1019C000892B8A2B8B2B01F1E0911302F0911402E9
:1019D0003097D1F02091A2044091A104211102C0BE
:1019E000442391F08091A00450E060E084FF04C0A3
:1019F000DA01AE55BB4F6C9130E04D555B4F809195
:101A00001502909116020995CC2484E0D822E82290
:101A1000FF24CD28CE28CF2819F1E0911702F091AC
:101A200018023097E9F01092180210921702C23192
:101A3000D10541F18091A00483FD24C090916A03F7
:101A400061E0992339F0082E000C990B692F661F6D
:101A50006627661F70E08091190290911A0209951D
:101A6000E0910F02F0911002309771F0BE01809169
:101A7000110290911202DF91CF91FF90EF90DF90D1
:101A8000CF90099460E0E6CFDF91CF91FF90EF9087
:101A9000DF90CF9008950F931F93CF93DF9300D0E3
:101AA00000D0CDB7DEB7DB011C969C911C971E962B
:101AB0003C911E971F962C911F971D964C911D9738
:101AC00049833A832B839C83BE016B5F7F4F9E01CA
:101AD0002F5F3F4FF90111919F01412F42954F70A8
:101AE000F0E14F9FA0011124E12FEF70E40FF52FDB
:101AF000F11DED55FC4F9491A90141505109FA0196
:101B000090832617370731F791E05BE1813039F098
:101B1000492F440F97FD45278150942FF7CF898196
:101B2000982799838D0194E0FE013196A801DA018E
:101B30008D91AD0161918627BD0161507109DB0175
:101B40008C93BF0161507109DB018C93E217F3079D
:101B500071F791500C5F1F4F9111E6CF0F900F90CE
:101B60000F900F90DF91CF911F910F9108953F92A9
:101B70004F925F926F927F928F929F92AF92BF929D
:101B8000CF92DF92EF92FF920F931F93CF93DF9349
:101B9000CDB7DEB768970FB6F894DEBF0FBECDBFE6
:101BA0008C012FEFC22E21E0D22EAC01405F5F4F9F
:101BB000C6017801FC01D70120E03D9130832F5F01
:101BC00034962430D1F724E0E20EF11C01964E1534
:101BD0005F0581F7AFEEB1E0FE0131968FEF91E046
:101BE0005E2E6F2E2D9121938A179B07D9F7852D95
:101BF000962D0E94F2044424439483E0A82E82E0B0
:101C0000B82E4E0139E1830E911C9BE1392E8FEFE6
:101C100091E024E0DC01712CEC914E2F42954F7045
:101C200030E1439FA0011124EF70E40FF52FF11D67
:101C3000ED55FC4FE491EC937394149654E07512B7
:101C4000EBCF215001962111E5CF0E94D704EFEF91
:101C5000F1E0CE014596BE016F5E7F4F9F01D90135
:101C60005C91DC015D93CD01452F440F57FD83C08E
:101C7000DB014C932C5F3F4F6F5F7F4F88169906B7
:101C800071F78E89398938272F89688D9A8992272B
:101C90009627432F492741934D895B8994279527A0
:101CA00093839C89862784278527892787832427F0
:101CB000292732273387AE16BF0659F6652D762DB4
:101CC000842D0E944B0D852D962D0E94F204439485
:101CD000BAE04B129CCF8FEF91E0DC0140E0EC9139
:101CE0002E2F22952F7050E1259F90011124EF7027
:101CF000E20FF32FF11DED55FC4FE491EC934F5F94
:101D00001496443061F77A9401967110E6CF0E94E0
:101D1000D704652D762D8AE00E944B0D852D962DDA
:101D20000E94F204D801F60180E090819D938F5FBC
:101D300034968430D1F78FEFC81AD80A0C5F1F4F42
:101D4000E016F10679F768960FB6F894DEBF0FBE7D
:101D5000CDBFDF91CF911F910F91FF90EF90DF905A
:101D6000CF90BF90AF909F908F907F906F905F903B
:101D70004F903F90089543257BCFE82FF0E0E55248
:101D8000FD4FE491EF3F09F0815008951092A204B5
:101D9000E091A20584E0E89FF0011124ED55FD4F8C
:101DA00080819181A281B3818C7F80936302909323
:101DB0006402A0936502B093660283E891E1909378
:101DC00048038093470308958F929F92AF92BF92EA
:101DD000CF92DF92EF92FF920F931F93CF93DF93F7
:101DE000E9019DEF980F9D3008F06DC06A017B01FD
:101DF0009CEFC9220F3FA1F448EE52E0A0E0B3E00F
:101E0000FA010591159125913491480159016CEF22
:101E10008622C814D904EA04FB0408F447C00370FE
:101E2000E82FF0E0DF01AA0FBB1FAA0FBB1FAD55C3
:101E3000BD4F002E000C110B220B330B0C291D295A
:101E40002E293F290D931D932D933C931397209793
:101E500011F4CFE3D0E0EE0FFF1FED5DFC4FD18317
:101E6000C083409143035091440321E030E0B90125
:101E700002C0660F771F8A95E2F7CB01CD28CE28E6
:101E8000CF28E1F0842B952B909344038093430358
:101E900081E0DF91CF911F910F91FF90EF90DF9044
:101EA000CF90BF90AF909F908F9008954C5F5F4F01
:101EB000A417B50709F0A4CF00E0B2CF80959095A4
:101EC00084239523E1CF80E0E4CF94E0899FF00163
:101ED0001124ED55FD4F659175918591949108956B
:101EE0008F929F92AF92BF92CF92DF92EF92FF922A
:101EF000882379F01092500310924F0310925403EC
:101F00001092530310929D04809138028C6080934C
:101F1000380283E00E94650F4B015C016DE273E0C3
:101F200080E090E0A50194010E94FD31C901059671
:101F30009093560380935503C0902602D0902702B9
:101F4000E0902802F090290282E1D80E8AE7E81E8C
:101F5000F11CD9011397A50194010E943F32C61AC2
:101F6000D70AE80AF90AC0927F02D0928002E09272
:101F70008102F0928202FF90EF90DF90CF90BF90AD
:101F8000AF909F908F9008958F929F92AF92BF9243
:101F9000CF92DF92EF92FF920F931F93CF93DF9335
:101FA0004B015C01EA01822F0E94650F9B01AC018D
:101FB000C0905702D0905802E0905902F0905A0217
:101FC00006E010E0C501B4010E949505C60ED71EBB
:101FD000E81EF91EC0925B02D0925C02E0925D02A4
:101FE000F0925E02C701B601615772408109910902
:101FF000AE01DF91CF911F910F91FF90EF90DF9095
:10200000CF90BF90AF909F908F900C9462088F926A
:102010009F92AF92BF92CF92DF92EF92FF92CF93B7
:10202000C62FA0914F03B09150036D010B2E000CF1
:10203000EE08FF08E0915103F09152034F010F2E7B
:10204000000CAA08BB088823D1F0482F50E09A0161
:102050000E9438326B017C0187E0F594E794D794B5
:10206000C7948A95D1F7DF010E9438324B015C0199
:1020700097E0B594A794979487949A95D1F7209177
:102080009D04A0915303B091540330E00E94383274
:10209000860E971EA81EB91E8C2F0E94650F9B01ED
:1020A000AC01C501B4010E94FD31DA01C9010596F8
:1020B000A11DB11D811524E09207A105B1053CF0D9
:1020C0008FEF93E090935B0380935A0306C0B7FFB2
:1020D000F9CF10925B0310925A038C2F0E94650F68
:1020E0009B01AC01ADEFBFEF0E943F326C0D7D1D37
:1020F0008E1D9F1DCF91FF90EF90DF90CF90BF90EE
:10210000AF909F908F900895883040F4E82FF0E0D2
:10211000E452FD4FE49181E0EF3F09F480E008953F
:102120008F929F92AF92BF92DF92EF92FF920F93A6
:102130001F93CF93DF93D82EEB018A01E22EE0911B
:10214000E301F091E401F08080849184A284B3845F
:1021500081149104A104B10439F420E4822E22E414
:10216000922E2FE0A22EB12C40E059E06DE370E0FA
:1021700080E084169506A606B70640F47695679526
:10218000579547958F5F8630A1F787E0982F906A23
:102190009695809581709CBD8DBD60E08F2D0E94CD
:1021A000F802DEBC00000DB407FEFDCF8EB50C0FAB
:1021B0001D1FC017D10771F080E0E11001C08881B8
:1021C0008EBD00000DB407FEFDCF8EB5E1108883F3
:1021D0002196EFCF61E08F2DDF91CF911F910F916D
:1021E000FF90EF90DF90BF90AF909F908F900C94F6
:1021F000F802CF93DF931F92CDB7DEB721E041E025
:1022000050E0BE016F5F7F4F0E94901089810F9058
:10221000DF91CF910895CF93DF931F92CDB7DEB7B3
:10222000698320E041E050E0BE016F5F7F4F80682E
:102230000E9490100F90DF91CF910895CF93C82FF7
:1022400062E082E00E940B1160E883E00E940B11C3
:1022500061E084E00E940B1169E985E00E940B11A6
:1022600062E187E20E940B1160EDC11168ED80E32D
:102270000E940B1160E481E30E940B1161EC88E283
:102280000E940B1164E989E20E940B1161EC8AE261
:10229000CF910C940B110F931F93CF93DF93C091A9
:1022A0005E03C4310CF040C0CE30CCF1C2310CF032
:1022B000C1E161E08091CA019091CB01009163027C
:1022C000109164022091650230916602DC01ED916B
:1022D000FC910084F185E02D4C2F0995813059F156
:1022E0008230E1F1CF301CF5CC301CF1C067D7E073
:1022F00014E06C2F89E00E940B118DE40E94F9100C
:10230000887F682F612B8DE40E940B116D2F606216
:102310008BE0DF91CF911F910F910C940B11CC3F6B
:102320000CF4CCEF60E0C6CF62E0C4E1C3CFCEE0F6
:10233000DDCFCC5FDCCF80914703877011F4CB30C9
:102340005CF0C2302CF4C2E0C250C068DBE0D0CFF9
:10235000C231D4F3C1E1F8CFCBE0F6CFD0E117E042
:10236000CFE8C7CFAF92BF92CF92DF92EF92FF92AA
:102370000F931F93CF93DF93809163029091640238
:10238000A0916502B09166029C01AD0160E070E031
:1023900080E090E003E10E945B33A12CE8E4BE2ED4
:1023A000F8EECF2EDD24D394E12CF12C00E010E0E8
:1023B0000E94B732C22FB32E6A017B01182FD92F8A
:1023C00000E10E947633622F86E00E940B112C2FD1
:1023D0003B2DA601B701812F9D2F08E00E94763387
:1023E000622F87E00E940B116C2F88E0DF91CF9164
:1023F0001F910F91FF90EF90DF90CF90BF90AF9023
:102400000C940B111F93CF93DF936091470370914E
:102410004803162F1770CB0133E0969587953A95B0
:10242000E1F7D82FD370D13059F008F466C0D2301C
:1024300009F465C066EC71E08FE391E00E94B80A90
:10244000C0E8CB0125E0969587952A95E1F7837042
:10245000823009F458C0833009F457C0813009F440
:1024600050C0C260672F77276115710521F0C160E8
:1024700082E20E940B116C2F8DE10E940B11609182
:102480005B03637060598FEF810F8295807F680FC7
:102490008091470387FF64608EE10E940B118BEFF0
:1024A000810F823010F4DD2391F1163011F4D13018
:1024B00071F164E086E20E940B11C0E063E0D2306B
:1024C00081F48091630290916402A0916502B091C1
:1024D0006602CFE781349D4DAA44BF4108F0C4E6AF
:1024E00062E086E30E940B11CC2399F06C2F8AE303
:1024F000DF91CF911F910C940B11C0E7A2CFC0E9DF
:10250000A0CFC460AFCFC660ADCFC860ABCF6CE02A
:10251000D1CFDF91CF911F910895CF93DF93D82F23
:10252000C82FC77019F081E00E946A096D2F81E001
:102530000E940B11C11105C080E0DF91CF910C9476
:102540006A09DF91CF9108958091630290916402AE
:10255000A0916502B091660281349D4DAA44BF41AD
:1025600018F488E00C948D1280E0FCCF8091630217
:1025700090916402A0916502B091660281349D4DF4
:10258000AA44BF4118F488E80C948D1280E8FCCF6F
:10259000CF93C82F81E00E94F910887F8C2BCF91B8
:1025A0000C948D12CF92DF92EF92FF92CF93DF9334
:1025B000D82F0E94B61281E00E94F91087FD06C054
:1025C0006BE973E08FE391E00E94B80A81E00E941A
:1025D000C812D23009F07CC06AE08DE10E940B1174
:1025E00060E78EE10E940B1163E28CE00E940B1108
:1025F0006FEF83E20E940B118091A305882309F4F9
:102600006CC083E30E94F910682F6F7B83E30E9404
:102610000B11809147039091480323E0969587958D
:102620002A95E1F7C82FC37081E30E94F9108877DB
:10263000682F6360C23008F056C081E30E940B111E
:1026400060E48FE20E940B1160E480E30E940B11B2
:1026500060915A038FE10E940B1164E389E30E94A9
:102660000B116CE080E40E940B116FEF82E10E947D
:102670000B11ED2FF0E0EB51FD4F6491609581E17E
:102680000E940B1180E00E94940960E08DE00E949E
:102690000B1160E08FE00E940B11D11128C06091F6
:1026A0005B0270915C0280915D0290915E020E94DB
:1026B00022096B017C0186E00E94C812C701B601A5
:1026C000DF91CF91FF90EF90DF90CF900C940B05AE
:1026D0000E9402120E94B21187CF83E30E94F91078
:1026E000682F606493CF682F636881E3AFCF85E084
:1026F000DF91CF91FF90EF90DF90CF900C94C812B4
:10270000CF92DF92EF92FF92CF93C82F81E00E9489
:10271000F910877069E274E0D1F480914703877003
:1027200009F062C0C13051F41092A20460912402F9
:10273000709125028EE192E00E94C5080E94A412C9
:1027400081E00E94F91087FF06C062E074E08FE329
:1027500091E00E94B80A81E00E94C8120E94B21162
:1027600063E28CE00E940B116EE18DE00E940B1180
:102770006BE082E10E940B1162E183E10E940B1188
:102780006AEA8FE10E940B116FEF81E20E940B1148
:1027900081E00E941E1168E380E40E940B1180E03A
:1027A0000E949409C11118C060915B0270915C0293
:1027B00080915D0290915E020E9422096B017C0172
:1027C00085E00E94C812C701B601CF91FF90EF903B
:1027D000DF90CF900C940B0585E0CF91FF90EF90A8
:1027E000DF90CF900C94C8128C2FCF91FF90EF9078
:1027F000DF90CF900C94D21283E190E00E94C20C43
:1028000080E00C9480138AE79BE2909325028093EA
:1028100024020C94FC138BED91E29093250280939B
:1028200024020C94FC1321E02093A004E7E4F3E0DD
:10283000208131812068318320831092A2049093FB
:102840002502809324020C94FC138AEA9BE20C94E8
:10285000131487E596E20C94131482E08093A0048D
:10286000E0919904F0E0E452FD4FE491F0E0EF775D
:10287000E068F0934803E093470380917B029091D6
:102880007C02A0917D02B0917E02809363029093BE
:102890006402A0936502B09366021092A2040C94A5
:1028A000FC1381EC9BE290932502809324020C940C
:1028B0002D148AE696E290932502809324020C94CC
:1028C0002D1440E150E063E973E08FEE91E00C9449
:1028D00088316F927F928F929F92AF92BF92CF92E8
:1028E000DF92EF92FF920F931F93CF93DF93CDB7B9
:1028F000DEB760970FB6F894DEBF0FBECDBF7B0189
:102900008A01282F30E0277F2230310549F024301A
:10291000310509F4CBC0232B09F09FC0D12C98C0FE
:1029200083FD32C089EA91E00E94B70D90E1692EE3
:10293000FE0131966F0129EB822E21E0922E37E8BD
:10294000732E0115110509F060C06091A901709105
:10295000AA018091AB019091AC010E942232609655
:102960000FB6F894DEBF0FBECDBFDF91CF911F91A0
:102970000F91FF90EF90DF90CF90BF90AF909F901E
:102980008F907F906F900895E9EAF1E080E1DF0198
:102990001D928A95E9F7CACF01151105E9F5E62FD1
:1029A000F0E0E755FE4F80818058808311E0D6012A
:1029B000E62D1D92EA95E9F7C6010E94B70D09813F
:1029C000C6010E947D0207FF03C088898725888B86
:1029D000112349F01981C6010E947D0217FF03C02F
:1029E00088898725888BF601D5018D915D019191AC
:1029F000119789278C938A149B04B1F710E000E0AB
:102A000089EA91E00E94B70D9CCF89EAA82E81E067
:102A1000B82ED701950160E0F90181919F019D9148
:102A2000AF01415051098927FA0180836F5F7D0111
:102A300001501109603109F0AFCF0115110501F7FF
:102A400010E0B5CF8E0D9F1D0E94B70DB0E1DB0EDB
:102A50008D2D90E080179107A8F360E070E0CB0126
:102A60007ECF80E1E9EAF1E0DE01119601900D925E
:102A70008A95E1F7CE0101960E94B70DFE013196CD
:102A80009701205F3F4F9191D7018C9189278D93BA
:102A90007D0101501109A217B30719F001151105A5
:102AA00091F78091B8018F5F8093B80101151105EE
:102AB000C1F6D3CFCF92DF92EF92FF920F931F9385
:102AC000CF93DF93EFEEF1E080E1DF011D928A9575
:102AD000E9F7EBEAF4E088E0DF011D928A95E9F777
:102AE000CFE0D2E03B8D2C8D9D8D8E8D03EA14E0DE
:102AF000F80130832093A4049093A5048093A60446
:102B000030916F0220917002909171028091720257
:102B10003093A7042093A8049093A9048093AA0457
:102B200040E150E0B80180E00E9469144CA587E0C4
:102B300090E0841B91092FEF3FE002C03595279567
:102B40008A95E2F7D8018D919C9128233923A3E53A
:102B5000B7E00E942932CF88D88CE98CFA8CB4E98E
:102B6000CB0EB5E0DB1EB2E0EB1EF11CC60ED71E8D
:102B7000E81EF91EC8AAD9AAEAAAFBAA1DA681E0E6
:102B800090E001C0880F4A95EAF76BA58E5F0E941E
:102B90000710C61AD70AE80AF90ACCAADDAAEEAAD3
:102BA000FFAA80915A0390915B039FA78EA7DF91A4
:102BB000CF911F910F91FF90EF90DF90CF900895EC
:102BC0008F929F92AF92BF92CF92DF92EF92FF923D
:102BD0000F931F93CF93DF936B017C01EA018091E8
:102BE000490390914A03827096708230944059F460
:102BF0000E945A158091490390914A0392609093E4
:102C00004A038093490380915C03E091600394E060
:102C1000E99FF0011124ED51FD4F40815181628106
:102C20007381411551056105710541F040936302BF
:102C300050936402609365027093660290919804C9
:102C4000963008F095E0891B282F88300CF027E09B
:102C500027FD20E020935C03E22F022E000CFF0BE7
:102C6000E452FD4FE491F0E0EF77E068F093480321
:102C7000E09347038730BCF1809057029090580250
:102C8000A0905902B0905A02C701B6016A5071096A
:102C90008109910900E410E021E030E040E050E0DB
:102CA0000E949505860E971EA81EB91E80925B0293
:102CB00090925C02A0925D02B0925E02C501B401E6
:102CC0006157724081099109AE01DF91CF911F9147
:102CD0000F91FF90EF90DF90CF90BF90AF909F90BB
:102CE0008F900C946208AE01C701B601DF91CF91BD
:102CF0001F910F91FF90EF90DF90CF90BF90AF901A
:102D00009F908F900C94C40F49E254E164EB74ECF3
:102D100084E090E00C94E0152091930430E0A4E26C
:102D2000B4EF0E94293245E254E10C94E0159091F1
:102D3000B901911106C06CE874E08FE391E00E9444
:102D4000B80A903141F440E150E069EB71E080E075
:102D50000E94691490E0E92FF0E0E754FE4F808173
:102D60009F5F9093B9010895DF92EF92FF920F93C6
:102D70001F93CF93DF938C01EB01809145039091DA
:102D80004603F801208131818223932390934603E7
:102D9000809345030E948B027C01892B09F08DC032
:102DA000F8018081918190934603809345030E94AE
:102DB0008B027C018FEF9FEFE114F10409F4D6C080
:102DC000F1E1EF16F10408F478C010E000E0CF3F25
:102DD000DC0751F1C131D1050CF06FC09E012F709D
:102DE000332781E090E002C0880F991F2A95E2F70F
:102DF000FE0144E0F595E7954A95E1F7EE0FFF1FD8
:102E0000EB5BFC4F208131818C01022313238095E1
:102E1000909582239323918380830115110509F4F2
:102E20004EC070E1E71AF1080E949716D82E0E9452
:102E300097169D2DB70124E0769567952A95E1F7C1
:102E40000E94B33134E0880F991F3A95E1F7A5E469
:102E5000B3E0F0E0E0E04D915D914115510559F18D
:102E60009A013695279525753575BA01621B730B46
:102E70009B01637373733695279536952795237356
:102E80003373620F731F9B01207F307F6F707F70E1
:102E900062957295707F7627607F7627620F731F29
:102EA0009B013327672F7727620F731F86179707BA
:102EB00078F0861B970B7096CECF10E000E0CFEF36
:102EC000DFEFB2CF9A0121503109422353234097BB
:102ED0000097C1F788279927841B950B482359230E
:102EE0009A012575357581E090E0232B11F090E073
:102EF00080E09A0123733373232B09F03FC022E053
:102F000030E0280F391FCA018F709F70892BC9F5D7
:102F100084E090E0280F391F88E090E0442311F00E
:102F200090E080E0280F391F2E0F3F1FF90144E089
:102F3000F695E7954A95E1F7EE0FFF1FEB5BFC4F27
:102F4000A9014F70552781E090E0BC0102C0660FD7
:102F5000771F4A95E2F7AB018081918186279527FB
:102F600091838083CF3FDC0779F4C901DF91CF9152
:102F70001F910F91FF90EF90DF90089530E020E0D7
:102F8000C0CF90E080E0C6CF84E0D595C7958A9504
:102F9000E1F7CC0FDD1FCB5BDC4F88819981082BDB
:102FA000192B19830883E1CF0F931F93CF93DF93DE
:102FB000C82FD0E08E0183E0000F111F8A95E1F742
:102FC000015F1D4FF801EA58FF4F6083329751832C
:102FD00040830E949C0723E0CC0FDD1F2A95E1F778
:102FE000C957DD4F688379838A839B830E94971634
:102FF000F801E958FF4F8F70808381E0DF91CF9116
:103000001F910F910895CF92DF92EF92FF92CF938D
:10301000C82F0E949716F82E0E9497169F2D6C01BC
:10302000853224EF920720F024E2C21A24EFD20A5C
:10303000F12CE12CCC2369F06C2F0E94A731292FB1
:1030400030E0A4E2B4EF0E942932C60ED71EE81E7B
:10305000F91EC701B601CF91FF90EF90DF90CF909E
:103060000895CF92DF92EF92FF926B017C01842F43
:10307000442331F00E940318C60ED71EE81EF91E25
:10308000809161038823A9F0809167029091680282
:10309000A0916902B0916A02A7019601281B390B21
:1030A0004A0B5B0BDA01C901181619061A061B0632
:1030B0008CF4C0926702D0926802E0926902F092AA
:1030C0006A028091490390914A03916090934A0368
:1030D00080934903FF90EF90DF90CF900895CF93B6
:1030E000DF9390E4E3EAF2E0DF01292F1D922A95B5
:1030F000E9F7E3EEF2E0DF011D929A95E9F790E23D
:10310000E3E2F3E0DF01292F1D922A95E9F7E3E8D6
:10311000F2E0DF011D929A95E9F727E030E0309365
:10312000440320934303811130C083E0C3EAD2E01B
:10313000A3E2B3E093E0980F2FE330E044E0849FF4
:10314000F0011124ED53FD4F459155916591749116
:1031500049935993699379932D933D938F5F891385
:10316000EDCF48EE53E06EE080E00E94D41744E6D5
:1031700050E06EE081E00E94D4174AE050E06BE13D
:1031800082E0DF91CF910C94D41780E0CFCFCF9223
:10319000DF92EF92FF92CF93DF9300D0CDB7DEB7EF
:1031A00080916F0290917002A0917102B0917202B1
:1031B000892B8A2B8B2B09F063C080914903909156
:1031C0004A03109261038E7C977A90934A0380930E
:1031D000490310929F04109266030E94660687E0DE
:1031E00090E09A83898390934603809345036FEF21
:1031F0007FEFCE0101960E94B4168093600380E1B8
:103200008093630385E08093640381E00E946F18DC
:103210008091490390914A0393FF06C06CE870E0E7
:1032200089E591E00E94B80A0E949C076B017C012D
:1032300088E00E940318C60ED71EE81EF91EC09231
:103240005702D0925802E0925902F0925A028091AD
:10325000490390914A03846090934A038093490301
:1032600066E074E28EE192E00E94C50881E00F9072
:103270000F90DF91CF91FF90EF90DF90CF90089566
:1032800080E0F5CFFF920F931F93CF93DF93CDB7DD
:10329000DEB72F970FB6F894DEBF0FBECDBF80E02C
:1032A0000E94C8128EE192E00E94FA088FE0EFE0DF
:1032B000F2E0DE01119601900D928A95E1F70FE0A0
:1032C00012E086E993E0F8019C0111922150304010
:1032D000E1F78FE0FE013196D80101900D928A95B9
:1032E000E1F70E949716F82E0E9497169F2D909353
:1032F0004C0380934B0310924A031092490310929F
:10330000650380E8809396040E94660681E08093BE
:10331000930488E096EEA3EDB3E3F80180AF91AF9C
:10332000A2AFB3AF83E083A78FEF84A72F960FB62A
:10333000F894DEBF0FBECDBFDF91CF911F910F91EB
:10334000FF900895AF92BF92CF92DF92EF920F93CA
:103350001F93CF93DF93DC011A141B04A4F590E1B3
:10336000E9EAF1E0EF01892F19928A95E9F7F1E096
:10337000F093B801F093A901E092AE014093AF0140
:103380005093B0016093B1017093B2010093B30107
:103390001093B4012093B5013093B601FD01AFEE57
:1033A000B1E001900D929A95E1F7A501B60184E094
:1033B000DF91CF911F910F91EF90DF90CF90BF9051
:1033C000AF900C946914DF91CF911F910F91EF9002
:1033D000DF90CF90BF90AF9008952F923F924F9281
:1033E0005F926F927F928F929F92AF92BF92CF9295
:1033F000DF92EF92FF920F931F93CF93DF93CDB79E
:10340000DEB72E970FB6F894DEBF0FBECDBF80910A
:103410005703811130C781E08093570322242394FE
:10342000312C8091490390914A038C01017C112732
:103430000115110581F440916F0250917002609165
:10344000710270917202452B462B472B21F582FDAC
:1034500030C00E94C7188091570381508093570352
:103460008111DFCF2E960FB6F894DEBF0FBECDBF11
:10347000DF91CF911F910F91FF90EF90DF90CF9050
:10348000BF90AF909F908F907F906F905F904F9084
:103490003F902F90089596FF0CC09F7B90934A0316
:1034A0008093490361EC71E28EE192E00E94C508CD
:1034B000D2CF0E949C072B013C018091490390913F
:1034C0004A039C012270332781FF27C0C0907F02EE
:1034D000D0908002E0908102F0908202B701A601B4
:1034E00041575240610971094B835C836D837E8330
:1034F000B301A2018B809C80AD80BE804819590920
:103500006A097B0977FF0DC08D7D997F90934A03EF
:10351000809349038BE090E0AAC41B821C821D8229
:103520001E82AC014C735527452B09F446C69C01FD
:10353000247233273C872B8793FF31C173016201CB
:103540003EE2D31A36EBE30A34E9F30AA0914303CF
:10355000B0914403809164038F70A10102C0440FB5
:10356000551F8A95E2F75E874D8790E080E01F82C5
:103570009101082E02C0220F331F0A94E2F7A2170E
:10358000B30708F445C02A233B23232BE1F1FC01B8
:10359000EE0FFF1FED5DFC4F208131816D857E8533
:1035A00026233723232B79F1FC01EE0FFF1FEE0FAB
:1035B000FF1FED55FD4F50815370252F30E0B101B5
:1035C00001C0660F5A95EAF75F815623E1F4EF8157
:1035D000E62BEF83E3E0220F331FEA95E1F7F901D1
:1035E000E957FD4F80809180A280B380B701A6018A
:1035F000481959096A097B09141615061606170693
:1036000014F47501640101968031910509F0B0CF81
:1036100030E020E090E080E0A101082E02C0440FDD
:10362000551F0A94E2F7A417B507B8F1BD0164234A
:103630007523672B69F1FC01EE0FFF1FED5DFC4F59
:10364000608171818D849E8468217921672B01F1CD
:10365000042B152BFC01EE0FFF1FEE0FFF1FED5586
:10366000FD4FE081E37068E0E69FF0011124E95727
:10367000FD4F80809180A280B3808C189D08AE0899
:10368000BF08181419041A041B0414F0242B352B3A
:1036900001968031910509F0BFCF3A832983A0902C
:1036A0004503B09046036091600370E06F3F11F4F2
:1036B0006FEF7FEFCE0101960E94B41629813A8107
:1036C00020953095A222B3220A211B21A090450308
:1036D000B09046030A291B29109346030093450323
:1036E00097FF80936003C0925702D0925802E092F5
:1036F0005902F0925A028091490390914A03977FB0
:1037000090934A03809349038091490390914A031F
:1037100020916103211102C090FF12C04091670205
:10372000509168026091690270916A029701860166
:10373000041B150B260B370B37FF02C06A017B01F8
:103740009C012270332781FF33C08B849C8444E426
:1037500055E968E070E0892821F448ED58EB65E010
:1037600070E04C0D5D1D6E1D7F1D8B809C80AD80BB
:10377000BE80481959096A097B09141615061606F0
:103780001706B4F440E1C501B4016C567A4F8D4F71
:103790009F4F0E943118C12CD12C7601A1C4C0903A
:1037A0005702D0905802E0905902F0905A02ACCFE4
:1037B000B301A2014F585D4F6F4F7F4F4601570134
:1037C000841A950AA60AB70AB501A40177FF7FC437
:1037D000909064039B82AB84BC84AB2809F45FC1E6
:1037E0001091660385FD58C11092A30448E050E093
:1037F00063E972E084EA94E00E94883148E050E096
:103800006BE872E08CEA94E00E94883190914B035F
:1038100080914C039093B4048093B5040E9461148A
:1038200043E150E063EA74E08AE00E946914609327
:10383000B9047093B8048093B7049093B60487E1F9
:103840008093A20480914B0390914C030196909336
:103850004C0380934B0384E896E190932502809378
:1038600024028B80E82DF0E0E452FD4F8491E0913A
:10387000650320E2E29FF00111248F79E82BF09399
:103880004803E093470380925C0380914903909141
:103890004A038F76967F8068986090934A0380935E
:1038A0004903A091600334E0A39FD0011124AD55DA
:1038B000BD4FCD90DD90ED90FC908091A2044E2FF5
:1038C000477090E009F0D6C20B96DC0103E0AA0F26
:1038D000BB1F0A95E1F724E234EF0E94383220E55D
:1038E00033EC40E050E00E94FD3149015A01B7013C
:1038F000A60143705527662777272CEFC222C09276
:103900006302D0926402E0926502F0926602CA01FC
:1039100033E0880F991F3A95E1F7815F9D4FFC01D5
:10392000EA58FF4F108110935D03FA013F9643E080
:10393000EE0FFF1F4A95E1F7AF01415F5D4F7A013E
:103940008C589F4FFC01A081B181A50194010E9478
:103950003F32640D751D861D971DD7016D937D93B4
:103960008D939C93139780916103882399F004C0F1
:10397000880C991CAA1CBB1C8A95D2F7840C951C38
:10398000A61CB71C8092670290926802A0926902FE
:10399000B0926A028091630318170CF4812F809310
:1039A0005E0381E190E00E94C20C109257021092D7
:1039B00058021092590210925A0281E00E94F910A6
:1039C000877059F080E00E94C8120E949C07625CD8
:1039D0007F4F8F4F9F4F0E94220980905F029090EF
:1039E0006002A0906102B0906202181419041A04D7
:1039F0001B040CF0C7C281E00E94D21280916302C6
:103A000090916402A0916502B091660281349D4D4F
:103A1000AA44BF4108F4B3C283E69FEFE091E301FB
:103A2000F091E40127817C01E20EF11C27FDFA945C
:103A30000E949C07615E7F4F8F4F9F4F0E9422091B
:103A40000E949C0710E0860E971EA81EB91E8BE1EF
:103A50000E94F910181708F4182F0E949C07681983
:103A600079098A099B0997FDF2CF80E00E94C8126C
:103A700080915F03082E000C990BE10EF11CE816F3
:103A8000F9060CF47FC260912402709125020CCDDE
:103A90008B810E94BD0E8B831150D0F7A5CE409133
:103AA00073025091740260917502709176024038F1
:103AB0005F4F6F4F7F4F18F067EB71E2F5CC2091AD
:103AC0009F0421110DC040917702509178026091BE
:103AD000790270917A024F3F5F4F6F4F7F4F61F3D2
:103AE0007C0148E1E422FF2450E1E516F10409F4E9
:103AF00057C1A0906B0380916903882309F452C1D8
:103B000080916004882309F44DC100915F04002373
:103B100009F448C110E0A80161E674E08BEA94E082
:103B20000E94A633085F1F4F10925F04109260043A
:103B300080919A04882331F086FF37C190E4892769
:103B400080939A0480919B04882331F086FF3DC1C5
:103B500090E4892780939B0480919C04823009F033
:103B600044C181E080939C04093111050CF061C1CE
:103B700080919204882361F080914D0390914E03CF
:103B800097FF04C090E080E00E9425061092920406
:103B90008A2C912C25E0820E911CF0E1EF16F104A5
:103BA00019F4E4E08E2E912C800E911E3FEF8316C7
:103BB000910411F00CF024C191E040E1E416F1040D
:103BC00009F490E0E0916403E83008F01EC1F0E0F1
:103BD000E556FD4FE491E815190408F42AC180E484
:103BE0008093A3048091900440919604482B2091E7
:103BF0004D0330914E0337FD0AC121523109203B5C
:103C0000324008F404C120E488EF800F842B822B1B
:103C10008093A80440916F0230917002209171024C
:103C2000809172024093A4043093A5042093A604CB
:103C30008093A70480919F04811118C0209167038D
:103C4000211114C04091770250917802609179025D
:103C500070917A024F5F5F4F6F4F7F4F40937702B3
:103C6000509378026093790270937A0220917702E0
:103C700030917802215031092093A9043093AA048D
:103C8000109290049923D9F190916A03992309F431
:103C9000C0C090E89093A304811103C081E0809399
:103CA0009F04F801ED55FB4F809169038083C801A3
:103CB0008C559B4F6C01B12CA5016CE673E00E9402
:103CC000A633009177021091780220917902309109
:103CD0007A02015011092109310940916F02509176
:103CE000700260917102709172028091690381117A
:103CF0009DC080E794E0F12CE12C0E94A219840180
:103D0000045011098091770290917802A091790274
:103D1000B0917A020197A109B10960916F025091A7
:103D20007002409171023091720220E179EAE72E2F
:103D300071E0F72EF701A22E1192AA94E9F779E427
:103D40007093A9011092AE010093B8016093AF0186
:103D50005093B0014093B1013093B2018093B3010D
:103D60009093B401A093B501B093B601E0E7F4E0FD
:103D7000AFEEB1E001900D922A95E1F7A80163EA58
:103D800074E082E00E946914F801ED55FB4F6383F3
:103D90007283818390838092A2048CE896E15DCD4A
:103DA000A12CAECE08E010E0BFCE9801215F3D4FC0
:103DB000F901EC56FD4F95E090832B563D4F8770EF
:103DC000D9018C930E5F1F4FBDCE9801215F3D4FEF
:103DD000F901EC56FD4F9AE090832B563D4F8370CE
:103DE000F90180830E5F1F4FB7CE882309F4BCCE44
:103DF000F801ED55FB4F88E080830F5F1F4FB4CE75
:103E0000480154E0850E911CDCCEE0E0E4CE20E0D9
:103E1000FBCE80916203882309F443CF809167032E
:103E200081113FCF81E0809367033BCF80E894E02E
:103E300062CF88E08093A00480916A03811104C05E
:103E400080919F04882319F088E48093A0048091D6
:103E5000490390914A0387769E7F90934A0380930B
:103E600049031092A2041092A1048AE090E00E94FB
:103E7000C20CF1CA66E0640F660F660F58E0453069
:103E800008F450E013E0880F991F1A95E1F7861B9C
:103E900091094C9620E130E0E7FF02C030E020E0DD
:103EA000820F931F2F2F3327232B09F465C024E1A2
:103EB00030E0821B930B28E030E018161906CCF492
:103EC000651B70E0860F971F01970E94C731CF01D5
:103ED000A5E096958795AA95E1F7837090E0059601
:103EE000869F9001879F300D969F300D1124285F8B
:103EF0003F4F220F331F220F331F2F5C3F4F4F5F67
:103F000073E0F695E7957A95E1F7E3704E1BE9E0EB
:103F1000FDE3453050F04450550BE9E0FDE302C0AD
:103F2000F595E7954A95E2F744E0C901330FAA0BEE
:103F3000BB0B4C015D0104C0880C991CAA1CBB1C66
:103F40004A95D2F7A5019401A4E2B4EF0E943F3252
:103F50009F01F7FF02C02F5F3F4F359527958901DD
:103F6000330F220B330B600F711F821F931F9F01B2
:103F7000FF0F440B550BB7CC30E020E09ACF8CE517
:103F80009FEF4CCD80914703877009F06AC00E9473
:103F9000A41281E00E94C81280E00E941E1160E01D
:103FA00085E20E940B1165E086E20E940B110E94DF
:103FB000B2110E944B1169E28AE00E940B1164E386
:103FC00080E40E940B116091A2046F5F82E30E9463
:103FD0000B116091A20480E00E940B114091A20499
:103FE00050E020E063EA74E080E80E94901081E0F5
:103FF0000E94940960915702709158028091590271
:1040000090915A02611571058105910531F10E9467
:1040100022096115710581059105F9F000915102A0
:10402000109152022091530230915402DC01CB01D5
:10403000800F911FA21FB31F8093510290935202D1
:10404000A0935302B093540280915502909156026E
:104050000196909356028093550283E00E94C81205
:10406000FAC90E94B61281E00E94F91087FD06C0CD
:1040700061E273E08FE391E00E94B80A81E00E9460
:10408000C8120E9402120E94B21168E08AE00E94E7
:104090000B110E944B1164E389E30E940B116CE742
:1040A00080E40E940B116FEF82E10E940B1167EF19
:1040B00081E10E940B1160E08EE00E940B1160E034
:1040C0008DE00E940B116091A20482E285CF232B28
:1040D00009F4C8C0C114D104E104F10409F471C0A9
:1040E0008091490390914A0391FF75C0A301920109
:1040F0002F583D4F4F4F5F4F2F83388749875A873F
:104100008091430290914402A0914502B0914602F1
:104110008C019D018F809884A984BA84081919099B
:104120002A093B0937FFABC010913C0217FD53C071
:1041300080913B02F10101C0EE0F8A95EAF71E0F54
:1041400010933C0217FD47C0A12FB0E020E030E300
:1041500045E750E00E943F324B015C0197E0B59487
:10416000A794979487949A95D1F780913F02909164
:104170004002A0914102B0914202880E991EAA1EEF
:10418000BB1E82E08E0F60913A02810F0E940710E1
:10419000861A970AA80AB90A8092430290924402AA
:1041A000A0924502B092460280915A0390915B031F
:1041B00090933E0280933D02A3CF232B09F0EBCADC
:1041C0004AC9C12CD12C7601C3948ACF43E054E173
:1041D0000E94620840C9C114D104E104F10461F0F5
:1041E000D701C6018B809C80AD80BE80881999095B
:1041F000AA09BB09B7FD36C00E94C60E80915503BF
:104200009091560390935B0380935A0380917F02B1
:1042100090918002A0918102B091820280935B0212
:1042200090935C02A0935D02B0935E02AB80BC8071
:10423000CD80DE804A185B086C087D0877FC0BC0D7
:104240008BEDC82E81E2D82ED0922502C092240296
:104250000E94FC1300C94BE054E16B817C818D818D
:104260009E81B6CFC701B60161577240810991099D
:1042700045ED51E2ADCF82E080935703F3C8C114FE
:10428000D104E104F10441F097018601081B190BE8
:104290002A0B3B0B37FDE6CF20913D0230913E02C9
:1042A00030935B0320935A0380935B0290935C02EC
:1042B000A0935D02B0935E02009147021091480204
:1042C0002091490230914A020093630210936402E4
:1042D0002093650230936602E0913A02F0E0E452E6
:1042E000FD4FE491F0E0EF77E068F0934803E0934E
:1042F00047031092A204BC01CD01615772408109AD
:104300009109461A570A680A790A14141504160402
:1043100017040CF05BCF8091490390914A03F4C8D5
:104320008091490390914A0383FF20C010926B0350
:1043300082FF1AC0877E90934A038093490382E1EB
:1043400090E00E94C20C8091490390914A038570CD
:104350009927892B59F48EE192E00E94FA0880E0B7
:104360000E94C8120C94ED198776E5CF08950E943B
:1043700090210E9442198CE090E00E94C20C0C94A3
:10438000C718E9E4F3E0808191818E7D9F7B918362
:10439000808310926F02109270021092710210923C
:1043A00072020E9490210C94C7180C94ED190E947F
:1043B000C20C0C94ED19CF92DF92EF92FF92CF9343
:1043C000DF938091A204882309F48FC0C090260255
:1043D000D0902702E0902802F0902902C091380284
:1043E0000E949B0687FF81C0C37071F480E00E9429
:1043F000700FC4E0D0E08091490390914A0391FD91
:104400000E945A15CE01D0C02EEED21A80912602FB
:1044100090912702C81AD90A60919D04662379F009
:1044200020914F0330915003C601821B930B70E023
:104430006F5F7F4F0E94C7316901C60ED71E209162
:10444000380222FD1DC080914F03909150038C19BA
:104450009D0997FF03C0919581959109909352030F
:1044600080935103409153035091540348175907C7
:1044700024F49093540380935303277F20933802AE
:10448000D0925003C0924F031092660310929D0485
:10449000809138028B7F80933802C4E0D0E0C090D6
:1044A0002602D0902702E0902802F090290282E1B3
:1044B000D80E8AE7E81EF11C63E080E00E94071036
:1044C000C61AD70AE80AF90AC0927F02D09280027F
:1044D000E0928102F092820280915A0390915B03F4
:1044E000909356038093550386CFC0904F03D0908E
:1044F00050030D2C000CEE08FF0860E072E18AE723
:1045000090E06C197D098E099F09C0902602D09019
:104510002702E0902802F09029026C0D7D1D8E1D6F
:104520009F1D609326027093270280932802909328
:104530002902C0902A02D0902B02E0902C02F09029
:104540002D0220E8C20ED11CE11CF11CC0922A02EF
:10455000D0922B02E0922C02F0922D0220919D0429
:104560002F5F20939D046C567A4F8D4F9F4F44E0F0
:104570000E94311880919D048A3350F48091550334
:1045800090915603C3E0D0E08F35914008F487CF77
:104590008091490390914A038D7D997F90934A03BE
:1045A000809349038BE090E0DF91CF91FF90EF90F3
:1045B000DF90CF900C94D721CF93809149039091B5
:1045C0004A03877790934A038093490310926703C5
:1045D00010929F0420915F04222351F030916004D7
:1045E000332309F471C0806190934A038093490397
:1045F0000E949C076E5E75488F4F9F4F40E00E945F
:1046000031188091A004877079F0809149039091CE
:104610004A0394FF09C09F7E90934A038093490305
:104620008FE090E00E94C20C8AE090E00E94D721C7
:1046300080914D0390914E0381979CF1809164038A
:104640000E94BD0EC82F0E944B05909164038111FA
:1046500001C0C92F9C1342C080914D0390914E031D
:10466000813F92404CF08091490390914A039064BD
:1046700090934A038093490360E18C2F0E94780550
:104680008091490390914A039C01306130934A0321
:10469000209349032817390721F08EE090E00E940B
:1046A000C20C20919E04222361F0809149039091D5
:1046B0004A0381FF1AC082E090E00E94C20C10926F
:1046C0009E0481E0CF91089510926A0310926903CD
:1046D00020936B0310925F04886086CFCC2361F235
:1046E00090E080E00E942506C7CF215020939E04D1
:1046F0002111E7CF40916F025091700260917102D9
:1047000070917202452B462B472BD9F29C012474E1
:104710003327232BB1F61092380210929004109296
:104720009F048E77816090934A03809349030E948F
:10473000C60E0E949C076C5D794F84489F4F609322
:104740002602709327028093280290932902609397
:104750005B0270935C0280935D0290935E0241E184
:1047600054E20E94620881E00E948013AACF8091E7
:104770009F048823B1F1883020F58F5F80939F04D8
:1047800080FF07C0809164030E94BD0E60E80E9414
:10479000780560915B0270915C0280915D0290915E
:1047A0005E0243E00E9431188091490390914A03D0
:1047B0008F7790934A03809349030E94ED1981E01B
:1047C000089580E68093A00480914D0390914E035C
:1047D00001960E9425061092A2041092A1040C9446
:1047E000DC2280916703882379F090916203891716
:1047F00058F48F5F809367030E949C076E5E754834
:104800008F4F9F4F40E0CECF80E2DCCF8091680396
:10481000811103C081E08093680385E090E00C94EF
:10482000D72180E00E94C8128EE192E00E94FA082F
:104830008091A20481110DC08091490390914A0397
:104840008C7F90934A038093490381E090E00C941D
:10485000D7210E949B0687FD11C01092A20481E01F
:104860000E94801360912602709127028091280295
:104870009091290241E154E20C94620881E00E9487
:10488000700F8091490390914A038E7F82609093CC
:104890004A038093490382E090E0D9CFCF92DF9220
:1048A000EF92FF920F931F93CF93DF9300D0CDB77A
:1048B000DEB78091490390914A0382FD24C085FDB3
:1048C00011C08F7790934A038093490381E00F9042
:1048D0000F90DF91CF911F910F91FF90EF90DF909C
:1048E000CF9008958F7590934A03809349038091E8
:1048F00066038A3018F48F5F8093660389E090E046
:104900000E94D721E3CF8F7790934A038093490386
:1049100084E190E00E94C20C87E090E09A83898352
:104920008091450390914603892B49F4809164035B
:1049300011E0882329F00E94BD0E8093640310E0EB
:104940006091600370E0CE0101960E94B41697FF5B
:10495000809360038091490390914A03977F9093DD
:104960004A03809349030E949C076B017C0180915C
:10497000870290918802A0918902B0918A02B701C2
:10498000A601481B590B6A0B7B0B77FF02C06C0119
:104990007D01209164038FEF90E002C0959587958B
:1049A0002A95E2F70E940318645973428D4F9F4F76
:1049B000C60ED71EE81EF91EC0925702D0925802AA
:1049C000E0925902F0925A02C12ED12CF12CE12C26
:1049D000112361F000E015E20E949C076C0D7D1D23
:1049E0008E1D9F1DA8010E94620870CF05ED11E287
:1049F000F3CF8091A00480FF0C944E2480E00895B2
:104A000088E090E00C94D721CF92DF92EF92FF9252
:104A10000F931F93CF93DF938091A00480FF05C075
:104A20008091A204882309F438C1809149039091B0
:104A30004A0387FF2BC184729927892B51F4DF9198
:104A4000CF911F910F91FF90EF90DF90CF900C943A
:104A5000F9241091A20411110AC0DF91CF911F9186
:104A60000F91FF90EF90DF90CF900C944E24113176
:104A700011F0113221F78091A304837E8032F9F680
:104A8000C12FD0E00E946114AE014150510964EA87
:104A900074E080E00E9469140E9461142497AE01C2
:104AA00063EA74E08AE00E9469146B017C01CD55D1
:104AB000DB4F688179818A819B810E942232C616F0
:104AC000D706E806F90609F0BACF8AEA94E00E9410
:104AD000770660936F0270937002809371029093D7
:104AE000720287EA94E00E947706992760936B022E
:104AF00070936C0280936D0290936E0280E00E942E
:104B00006F181132F9F48091BF0481111BC080EB42
:104B1000E82E84E0F82EC3E0C7010E947D06AB01B9
:104B2000BC01411551056105710531F00FEF30E011
:104B300020E08C2F0E94E40ECF5F83E0E80EF11C92
:104B4000C83051F780914B0390914C030197E8E7EF
:104B5000F4E028E0DF011D922A95E9F721E0209397
:104B6000700426E0E4EAF4E0A1E7B4E001900D92DD
:104B70002A95E1F7809377049093780480E1E0E749
:104B8000F4E0A0E8B4E001900D928A95E1F782E0AC
:104B9000809380040E94611440E150E060E774E07B
:104BA00080E00E9469140E94611440E150E060E8D6
:104BB00074E080E00E9469148091490385FF09C078
:104BC000C091660380916403C15008F061C0809376
:104BD00064038091490390914A0389759D7F986091
:104BE00090934A038093490310929F041092770296
:104BF000109278021092790210927A021092730247
:104C0000109274021092750210927602109266034E
:104C100010929204109291041092900410926203E8
:104C20001092670310929A0410929C0410929B04B5
:104C3000109297040E94660685E08093A20588E0A2
:104C400096EEA3EDB3E38093470290934802A093BE
:104C50004902B0934A0283E080933A0280EC9FEFCE
:104C60000E9425068091AE04982F9F70909399041E
:104C700082958770809398048091AF04882359F0BF
:104C80008093930486E090E00E94D72181E006C0E3
:104C90000E94BD0E99CF81E0F3CF80E0DF91CF91EC
:104CA0001F910F91FF90EF90DF90CF90089580912A
:104CB000A20481110AC02091990449E554E168EDEC
:104CC00078EB85E090E00C94C40F0E9404258823C3
:104CD00091F308958091A204811102C01092A00462
:104CE0000C9404252F923F924F925F926F927F9285
:104CF0008F929F92AF92BF92CF92DF92EF92FF92EC
:104D00000F931F93CF93DF93CDB7DEB7C754D1096D
:104D10000FB6F894DEBF0FBECDBF2C013B01109241
:104D20005F04452B11F510926004F12CE12CE61480
:104D3000F704FCF0C701C95BDF4F0FB6F894DEBF84
:104D40000FBECDBFDF91CF911F910F91FF90EF90DC
:104D5000DF90CF90BF90AF909F908F907F906F909B
:104D60005F904F903F902F90089581E08093600472
:104D7000DCCF6201CE0CDF1CF6018081823008F4AA
:104D800034C0282F2250330BF9012231310508F0AD
:104D90002CC0E45AFD4FE4912E2F30E028963FAF0F
:104DA0002EAF28972115310529F25301AE18BF08FF
:104DB000A216B3060CF4BECF82508031C0F4E82FA7
:104DC000F0E0EB51F94D0C941C32F8260227B32881
:104DD0005D283128C428A428F7261429F726F726A9
:104DE000F726F726F726F7265329E0E0D5CF370137
:104DF0002896EEADFFAD2897EE0DFF1D730137012C
:104E00007F0195CF460107E025961FAE1EAE259780
:104E1000C5012596EEADFFAD25978E1B9F0B05971F
:104E20000CF49CC0F4011181312E3294AFE03A228F
:104E30009481907749F0903661F10E7F2AC02596D3
:104E40003FAF2EAF2597E4CF628173814FE052E0F0
:104E500030E020E0E1E0F0E0022E02C0EE0FFF1FA4
:104E60000A94E2F7E623F723EF2B61F0FA01EC5600
:104E7000FF4F80819181A281B3818C7F892B8A2B06
:104E80008B2BD9F22F5F3F4F4C5F5F4F20313105A5
:104E900009F7832D0E948410811101C00D7F1F70BE
:104EA000183038F4E12FF0E0ED57FD4FE491E03891
:104EB00009F40B7F25962EAD3FAD25972B5F3F4F15
:104EC000F5E08F0E911CF4018081833009F4B7CF97
:104ED00025968EAC9FAC2597F5E08F0E911C80E453
:104EE000E3EAF2E0DE01119601900D928A95E1F776
:104EF000A0904303B0904403073009F0ADC0140103
:104F0000F60141E026961FAE269710E025E0221616
:104F100031040CF44EC01181348126963FAF2697A0
:104F2000832F8077E9F0803611F1809143039091CF
:104F3000440325E0221A3108359641E0009709F430
:104F400040E09F012C193D0928153905FCF2892BF9
:104F500091F1312E32948FE0382234C000E0B8CF86
:104F6000828193819093440380934303DECFA3EA2D
:104F7000B2E090E080E030E020E04D915D916D91F5
:104F80007D914C7F452B462B472B51F041E050E063
:104F9000082E02C0440F551F0A94E2F7242B352B2C
:104FA00001968031910549F73093440320934303E0
:104FB000BCCF411101C006E0312E3294EFE03E2219
:104FC000073039F4832D0E944B0507E081110EC094
:104FD00005E080E4FE013196A3EAB2E001900D9273
:104FE0008A95E1F7B0924403A0924303AA24A394C4
:104FF000D12CC12CC4018C199D0905976CF0602F30
:1050000083E00E945006A82E35E0C30ED11CC814C0
:10501000D90414F48111EECF0730A9F426968FAD90
:1050200026978F70909162038913809362031F709B
:1050300060E8183028F4E12FF0E0ED57FD4F64915F
:10504000832D0E94780525968EAD9FAD2597E80E9D
:10505000F91EAA2029F1CCCE26961FAE269710E085
:10506000ABCF20915903022E000C330BC9010296DD
:1050700097FD03969595879595958795182F1F739E
:105080004F970CF01FE110939504D0901D020091F2
:105090005F0486E00E943106811104C000935F0422
:1050A000F701ADCE8D2D0E9431068823B9F3812FF3
:1050B0000E943106882391F39BCEF6018181082F4F
:1050C0000F7090E064E0959587956A95E1F7182F49
:1050D0001770C7010296840D951D0E947D064B0135
:1050E0005C0180EC80939A04802F0E9484108823B6
:1050F00029F080919A04826080939A04811491042B
:10510000A104B10429F080919A04816080939A04EB
:10511000143028F480919A04846080939A046091FA
:105120009A04673C61F40093990480927B02909208
:105130007C02A0927D02B0927E0210939804677068
:1051400085E00E9450060DC0F60181818F7009F440
:1051500081E080939304F2E0F0939C0488E00E9445
:105160003106A82E76CFF60181818F70809361037E
:105170000E949C07609367027093680280936902A3
:1051800090936A0284E0EBCFC7010296840D951DCF
:10519000FC011081F601238034800E947D064B01C2
:1051A0005C01F601058181149104A104B10421F48C
:1051B0001229312A12E009F413E0302E32945FE014
:1051C00035220F70301620F41D7F612F87E0B9CF94
:1051D000F601D180832D0E9484108823A9F3802FAB
:1051E0000E948410882381F31330E1F48FE090E073
:1051F000831991092FEF3FEF02C0369527958A95C5
:10520000E2F78FEF9FEF02C0880F991F0A95E2F730
:10521000282339230FEFB501A4018D2D0E94E40E40
:105220008111D3CF12E0D1CFF6010181C7010296DF
:10523000840D951D0E947D0613E0611571058105A1
:10524000910509F412E0013150F5E02FF0E041E062
:1052500050E002C0440F551F0A95E2F72091430326
:105260003091440324233523232B51F41D7F612FD8
:105270008AE00E945006A82E106C10939B04E9CE81
:10528000133079F49F01220F331F220F331FF901CE
:10529000ED51FD4F6083718382839383E8CF10E0EB
:1052A000E6CF12E0E4CFC7010196840D951DF6010B
:1052B0001281FC012081122BF6012381122B0E9406
:1052C0007D064B015C01F60104810F70112341F052
:1052D00013E081149104A104B10459F412E009C04F
:1052E00013E098E0892E96EE992E93EDA92E93E384
:1052F000B92E802F0E948410811104C01D7F612F60
:1053000081E11FCF133059F48092470290924802F6
:10531000A0924902B0924A0200933A02F0CF12E002
:10532000EECF2F923F924F925F926F927F928F9229
:105330009F92AF92BF92CF92DF92EF92FF920F9324
:105340001F93CF93DF93CDB7DEB729970FB6F894AD
:10535000DEBF0FBECDBFE090A2042E2D30E0398716
:1053600028872C303105E4F41092A20480E02996BD
:105370000FB6F894DEBF0FBECDBFDF91CF911F9166
:105380000F91FF90EF90DF90CF90BF90AF909F90E4
:105390008F907F906F905F904F903F902F900895E7
:1053A0008091A304982F9370F9F6807E8D838036C8
:1053B00011F0803AC9F684EA94E00E9477062091C1
:1053C0006F023091700240917102509172022983F4
:1053D0003A834B835C83261737074807590721F622
:1053E0003091A8043E833F70F32EC32ED12C1601BA
:1053F00048E0240E311C8885998504979987888711
:10540000821593050CF4B0CF88248A94982C281622
:1054100039064CF4F101ED55FB4F2081822E912C81
:10542000D60119961D01409073025090740260904D
:105430007502709076020091A9041091AA040419D3
:1054400015090F3F100709F07CC021E0421A5108EE
:105450006108710820E1E9EAF1E0DF01322F1D92D5
:105460003A95E9F739E43093A90131E03093AE0180
:105470004CEF4E0D4F834093B80159815093AF01CB
:105480008A818093B0019B819093B101AC81A093FC
:10549000B2014092B3015092B4016092B501709292
:1054A000B601E0E7F4E0AFEEB1E001900D922A958D
:1054B000E1F74885598563EA74E082E00E94691447
:1054C0009B01AC01E885F985ED55FB4F6081718149
:1054D000828193810E942232261737074807590795
:1054E00009F042CF8091730290917402A0917502ED
:1054F000B0917602481659066A067B0638F584157F
:105500009505A605B7050CF42FCF0197A109B109A0
:1055100084159505A605B70509F026CF809191045D
:10552000882309F421CFBD81B03A09F01DCF80E274
:10553000809390048114910409F4D6C001E010E036
:1055400033C0400E511E611C711C84CF01301044C9
:1055500008F00ACFD301C2010196A11DB11D8093AD
:10556000730290937402A0937502B09376023D810A
:1055700080E2303A09F080E08093910480939004B7
:1055800010E000E08114910441F4FF2031F04885DF
:105590005985241635060CF4E7CE809190048111CC
:1055A00003C05E8154FF09C08091490390914A0372
:1055B000806190934A03809349031092660310928E
:1055C000920480EC9FEF0E94250610929A0410929C
:1055D0009C0410929B04E0914703F09148038E2FA6
:1055E000877033E0F695E7953A95E1F7E370F0E0E0
:1055F00093E0899FE00DF11D1124E259FD4FE491E4
:1056000080915803082E000C990B80549109ED5895
:10561000FF0B8E1B9F0B97FD80E080939404A401E9
:10562000B6018BEA94E00E947226012B09F09CCE11
:10563000AFEF8A169A0699F1288539852219330920
:10564000398728871216130654F5A1014D555B4F73
:105650005A83498340916F025091700260917102A8
:105660007091720280E794E08114910411F080E857
:1056700094E0A884B984C980DA80EE24E394F12C04
:10568000930182010E94A2198114910441F450E017
:1056900040E06885798589819A810E94722680918F
:1056A0009F04882349F05E8190E855FF90E4809143
:1056B000A004892B8093A0048091A00418141904DD
:1056C0004CF080628093A0042092A1041092A20466
:1056D00081E04DCE80618093A0042092A104EF80F0
:1056E000E218E092A204F4CFFF2009F427CF01E0F2
:1056F00010E04DCF8091A204882359F084E080937C
:10570000A0040E949129882321F08DE090E00E945E
:10571000C20C0C94ED198091490387FF19C0809148
:10572000A204811102C00C94B7230E949129811117
:1057300005C09091A00490FFF6CF089580919F043A
:10574000882321F08091A00486FDEDCF0C94DC220B
:1057500081E0F3CF8091A20481110EC0A091930447
:10576000B0E0119624E234EF0E943832209199047F
:1057700041E554E10C94C40F0E948B2B882371F3F4
:1057800008958091A20481110BC01092A0040E9480
:105790009C07645973428D4F9F4F42E00E9431181D
:1057A0000C948B2B0F931F93CF93DF938091D60193
:1057B00080FF48C084E492E00E949C041092D601CD
:1057C000C091D401CF5FC093D40190E080E00E94EB
:1057D0009131C81729F06C2F90E080E00E94993138
:1057E000109204018091D40180939E018091040164
:1057F00080939F0183E392E00E949C0480919E012C
:1058000090E00E94D50A81E392E00E949C0480917E
:105810009F0190E00E94D50A81E392E00E949C04DF
:1058200085E391E00E94800A8091490390914A03A8
:1058300087FF0EC088E192E0DF91CF911F910F9119
:105840000C94300A809104018F5F80930401CACFC9
:105850008C799927892BD9F400916403C02FD0E06B
:105860008C2F0E944B05882391F0C83080F4FE01F4
:10587000E556FD4FE491EE2351F0EF3008F058C0AB
:10588000FE01E352FD4FE4912196EF3F49F78091ED
:10589000490390914A039C012C793327232BF1F47F
:1058A00020919E0130919F0130936D0320936C03F2
:1058B00010926A0321E02093690322E020936B0396
:1058C0009C01286030934A032093490382FD04C061
:1058D00010929F04109267030E94ED190E949C078A
:1058E00060939A0170939B0180939C0190939D011A
:1058F0004AE00E943C0A85E192E00E949C0487E015
:1059000092E00E94300A81E092E00E949C04609143
:1059100063027091640280916502909166024AE090
:105920000E943C0ADF91CF911F910F910C942C0A99
:105930000C1709F4ACCF60E88C2F0E947805A7CF34
:105940001F920F920FB60F9211242F933F938F93B4
:105950009F93AF93BF938091E7019091E801A0914D
:10596000E901B091EA013091E60126E0230F2D37DD
:1059700058F50296A11DB11D2093E6018093E70121
:105980009093E801A093E901B093EA018091EB01C3
:105990009091EC01A091ED01B091EE010196A11D55
:1059A000B11D8093EB019093EC01A093ED01B093B6
:1059B000EE01BF91AF919F918F913F912F910F90E9
:1059C0000FBE0F901F90189529E8230F0396A11D75
:1059D000B11DD2CF1F920F920FB60F9211242F93A9
:1059E0003F934F935F936F937F938F939F93AF9367
:1059F000BF93EF93FF93E0910201F09103010995AA
:105A0000FF91EF91BF91AF919F918F917F916F9196
:105A10005F914F913F912F910F900FBE0F901F906C
:105A200018951F920F920FB60F9211242F933F9348
:105A30004F935F936F937F938F939F93AF93BF9396
:105A4000EF93FF93E0910001F09101010995FF911F
:105A5000EF91BF91AF919F918F917F916F915F91E6
:105A60004F913F912F910F900FBE0F901F9018955F
:105A70001F920F920FB60F9211242F933F934F93C3
:105A80005F936F937F938F939F93AF93BF93EF93A6
:105A9000FF9389EA95E00E942D04FF91EF91BF9159
:105AA000AF919F918F917F916F915F914F913F91B6
:105AB0002F910F900FBE0F901F9018951F920F926D
:105AC0000FB60F9211242F938F939F93EF93FF9311
:105AD000E091B905F091BA058081E091BF05F091A0
