:100000000C9457020C94942E0C946D2E0C947F0239
:100010000C947F020C947F020C94132F0C947F029B
:100020000C947F020C947F020C947F020C947F024C
:100030000C947F020C947F020C947F020C947F023C
:100040000C94232E0C947F020C94E12E0C94BB2E66
:100050000C947F020C947F020C947F020C947F021C
:100060000C947F020C947F02556E6B6E6F776E203E
:100070006576656E743A200045565F4A4F494E5F7B
:100080005458434F4D504C4554453A206E6F204ACA
:100090006F696E4163636570740045565F545843E1
:1000A000414E43454C45440045565F5458535441D6
:1000B00052540045565F4C494E4B5F414C495645A2
:1000C0000045565F4C494E4B5F4445414400455600
:1000D0005F5258434F4D504C4554450045565F5272
:1000E000455345540045565F4C4F53545F54535944
:1000F0004E4300206279746573206F6620706179C9
:100100006C6F6164005265636569766564200052B6
:10011000656365697665642061636B004469666642
:100120002028736563293A200045565F5458434F91
:100130004D504C4554452028696E636C7564657359
:100140002077616974696E6720666F72205258204B
:1001500077696E646F7773290045565F52454A4F41
:10016000494E5F4641494C45440045565F4A4F4918
:100170004E5F4641494C4544002D004E776B534B32
:1001800065793A20002D00417070534B65793A2013
:1001900000646576616464723A20006E6574696417
:1001A0003A200045565F4A4F494E45440045565F48
:1001B0004A4F494E494E470045565F424541434FDD
:1001C0004E5F545241434B45440045565F424541C2
:1001D000434F4E5F4D49535345440045565F42459A
:1001E00041434F4E5F464F554E440045565F534383
:1001F000414E5F54494D454F5554005D3A20005BD8
:1002000000465245513D005061636B657420717525
:1002100065756564003A20004F505F54585258503D
:10022000454E442C206E6F742073656E64696E6752
:100230000020005061796C6F616420686578203A15
:10024000200053656E64696E67203A2000496E7421
:10025000206F6E2070696E20320A000305020501CE
:10026000060202050000060000010504042020200B
:100270000E11140C0F12090C0F06090C03060900CD
:100280000306100E0C0A08060402D2AECDB1626954
:10029000BDE9000000000000000040404080FFFF7A
:1002A000FFFF0004000000020000000100008000C9
:1002B00000004000000020000000100000000500C9
:1002C0000000A027BE33E034C1332042C433A1274D
:1002D000BE33E134C1332142C433FF0605040302B7
:1002E000010900FFC040008025DB33A191D63350C7
:1002F000CED533C2FDD133C0C8C53341DA8E3353B6
:1003000074617274696E6700310032003400380025
:10031000000000006700CC00B80154039D070A5795
:10032000616B696E67207570202100456E7465727F
:10033000696E6720736C656570206D6F64652E2E25
:100340002E0000000000240027002A00000000000A
:10035000250028002B000000000800020100000317
:100360000407000000000000000006903C0B00564F
:1003700001909A0230FD06C09408637C777BF26B93
:100380006FC53001672BFED7AB76CA82C97DFA599B
:1003900047F0ADD4A2AF9CA472C0B7FD9326363F00
:1003A000F7CC34A5E5F171D8311504C723C31896ED
:1003B000059A071280E2EB27B27509832C1A1B6E8F
:1003C0005AA0523BD6B329E32F8453D100ED20FC31
:1003D000B15B6ACBBE394A4C58CFD0EFAAFB434D34
:1003E000338545F9027F503C9FA851A3408F929DD1
:1003F00038F5BCB6DA2110FFF3D2CD0C13EC5F97C1
:100400004417C4A77E3D645D197360814FDC222AC6
:10041000908846EEB814DE5E0BDBE0323A0A4906FD
:10042000245CC2D3AC629195E479E7C8376D8DD571
:100430004EA96C56F4EA657AAE08BA78252E1CA649
:10044000B4C6E8DD741F4BBD8B8A703EB5664803A9
:10045000F60E613557B986C11D9EE1F8981169D92C
:100460008E949B1E87E9CE5528DF8CA1890DBFE6AF
:10047000426841992D0FB054BB16000000002300C4
:1004800026002900040404040404040402020202F5
:100490000202030303030303010204081020408047
:1004A0000102040810200102040810206F2F1124FB
:1004B0001FBECFEFD8E0DEBFCDBF11E0A0E0B1E0BE
:1004C000ECE3F2E702C005900D92AC3BB107D9F71F
:1004D00026E0ACEBB1E001C01D92A737B207E1F70F
:1004E00012E0C7E5D2E004C02197FE010E94B434B7
:1004F000C635D107C9F70E94A22F0C941C390C9461
:100500000000FC0120E1215008F4089580E0211151
:1005100081819081990F87FD91609193F4CF8091B3
:100520005403909155039C01369527952575357593
:10053000821B930B9C012373337396958795969535
:10054000879583739373820F931F9C01207F307F65
:100550008F709F7064E0880F991F6A95E1F7820F92
:10056000931F9C013327892F9927820F931F08958A
:10057000BC01E2EBF4E090E080E030E020E041916B
:10058000942748E0DC01880F991FB7FF04C051E2AF
:10059000852750E195274150A9F72F5F3F4F261738
:1005A000370769F70895833081F028F4813099F096
:1005B0008230A9F008958730A9F08830C9F08430DE
:1005C000B1F4809180008F7D03C0809180008F778F
:1005D00080938000089584B58F7784BD089584B595
:1005E0008F7DFBCF8091B0008F778093B00008950E
:1005F0008091B0008F7DF9CF1F93CF93DF93282F89
:1006000030E0F901EA5AFC4F8491F901E856FB4FBA
:10061000D491F901EC57FB4FC491CC23A9F0162FCC
:1006200081110E94D302EC2FF0E0EE0FFF1FE45B7C
:10063000FC4FA591B4918FB7F894EC91111108C0BB
:10064000D095DE23DC938FBFDF91CF911F9108956A
:10065000DE2BF8CFCF93DF9390E0FC01E856FB4F01
:1006600024918C579B4FFC0184918823D1F090E01A
:10067000880F991FFC01EE5BFC4FA591B491FC0122
:10068000E45BFC4FC591D49161110EC09FB7F89403
:100690008C91E22FE0958E238C932881E223E883CE
:1006A0009FBFDF91CF9108958FB7F894EC91E22B23
:1006B000EC938FBFF6CF3FB7F89480911A029091D8
:1006C0001B02A0911C02B0911D0226B5A89B05C07B
:1006D0002F3F19F00196A11DB11D3FBFBA2FA92FC1
:1006E000982F8827BC01CD01620F711D811D911DBE
:1006F00043E0660F771F881F991F4A95D1F7089529
:100700008F929F92AF92BF92CF92DF92EF92FF9221
:100710004B015C010E945B036B017C010E945B0347
:100720006C197D098E099F09683E7340810591050A
:10073000A8F321E0821A9108A108B10888EEC80E3A
:1007400083E0D81EE11CF11C81149104A104B104C2
:1007500029F7FF90EF90DF90CF90BF90AF909F90E0
:100760008F9008950895AF92BF92CF92DF92EF924B
:10077000FF920F931F93CF93DF936C017B018B014B
:10078000040F151FEB015E01AE18BF08C017D1079B
:1007900059F06991D601ED91FC910190F081E02D25
:1007A000C6010995892B79F7C501DF91CF911F917A
:1007B0000F91FF90EF90DF90CF90BF90AF90089592
:1007C000FC01538D448D252F30E0842F90E0821B57
:1007D000930B541710F0CF96089501970895FC01DC
:1007E000918D828D981761F0A28DAE0FBF2FB11D34
:1007F0005D968C91928D9F5F9F73928F90E008958C
:100800008FEF9FEF0895FC01918D828D981731F045
:10081000828DE80FF11D858D90E008958FEF9FEF99
:100820000895FC01918D228D892F90E0805C9F4F6F
:10083000821B91098F739927089584ED95E00E949A
:10084000110421E0892B09F420E0822F089580E033
:1008500090E0892B29F00E941D0481110C94000066
:100860000895FC01A48DA80FB92FB11DA35ABF4F45
:100870002C91848D90E001968F739927848FA6899F
:10088000B7892C93A089B1898C91837080648C93F3
:10089000938D848D981306C00288F389E02D8081A2
:1008A0008F7D80830895EF92FF920F931F93CF93D4
:1008B000DF93EC0181E0888F9B8D8C8D98131AC09B
:1008C000E889F989808185FF15C09FB7F894EE8982
:1008D000FF896083E889F9898081837080648083DF
:1008E0009FBF81E090E0DF91CF911F910F91FF902A
:1008F000EF900895F62E0B8D10E00F5F1F4F0F73D2
:100900001127E02E8C8D8E110CC00FB607FCFACF8C
:10091000E889F989808185FFF5CFCE010E943104F5
:10092000F1CFEB8DEC0FFD2FF11DE35AFF4FF0825D
:100930009FB7F8940B8FEA89FB8980818062CFCFC3
:10094000682F84ED95E00C9453040F931F93CF937D
:10095000DF938C01D0E0C0E0F801EC0FFD1F649143
:10096000662341F084ED95E00E945304892B11F039
:100970002196F2CFCE01DF91CF911F910F91089573
:10098000CF93DF93EC01888D8823B9F0AA89BB89C6
:10099000E889F9898C9185FD03C0808186FD0DC0B1
:1009A0000FB607FCF7CF8C9185FFF2CF808185FFD2
:1009B000EDCFCE010E943104E9CFDF91CF910895B0
:1009C000E4ECF5E084819581948396819583978109
:1009D000968387838085928590878287818593859A
:1009E0009187838787859685978795859687948550
:1009F000958784870895CF9324EC35E0BC01605F30
:100A00007F4FDC01F90140E0CD9150815C2750839C
:100A10004F5F34964430C1F72F5F3F4F04968617DF
:100A2000970779F7CF9108950F931F93611571057B
:100A300081059105F9F000915A0210915B02209115
:100A40005C0230915D02DC01CB01800F911FA21F7F
:100A5000B31F80935A0290935B02A0935C02B09301
:100A60005D0280915E0290915F02019690935F0219
:100A700080935E021F910F910895FC0120813181C6
:100A80002115310519F490E080E008952617370705
:100A900049F4FB0120813181FC013183208381E015
:100AA00090E00895C901E9CF60915203709153031A
:100AB00021E030E002C0220F331F8A95E2F790E078
:100AC00080E0A1E0B0E0AD01082E02C0440F551F48
:100AD0000A94E2F746235723452B59F0FC01EE0F09
:100AE000FF1FEE5CFC4F4081518142235323452B75
:100AF00031F401968031910531F780E0089581E06D
:100B00000895982F6038C1F0809172036817A1F0A2
:100B10006093720381E020917303291761F0909331
:100B200073038091580390915903986090935903EF
:100B30008093580381E0089580E0EDCF4F925F925B
:100B40006F927F928F929F92AF92BF92CF92DF92DD
:100B5000EF92FF920F931F93CF93DF936B017C0172
:100B600049015A01E80160912A0270912B02611536
:100B7000710531F0673041E0740710F066E071E014
:100B800090E080E0A70196010E94C834722E032FE6
:100B9000142FB52FF62FE72F582E692EA0E00E94B4
:100BA0000F3684F4215031094F4F5F4F6F4F7F4F05
:100BB0008F4F9F4F722E032F142FB52FF62FE72F35
:100BC000582E692E272D302F412F5B2F6F2F7E2F10
:100BD000852D962D00E10E94F23529013A01A501EB
:100BE0009401220F331F441F551FC301B201660F2A
:100BF000771F881F991F620F731F841F951F6458EA
:100C00007F4F8F4F9F4F0E941D342C0F3D1F63E875
:100C10007FEF8FEF9FEF64197509860997092115FA
:100C200044E0340710F02FEF33E030936A03209351
:100C300069036C0D7D1D8E1D9F1DDF91CF911F914E
:100C40000F91FF90EF90DF90CF90BF90AF909F906B
:100C50008F907F906F905F904F90089520915C03EC
:100C600030915D0320383F4F21F090935D038093D6
:100C70005C030895982F80916F04E0916E0488239F
:100C800061F0EF30A0F481E08E0F80936E04F0E00D
:100C9000E059FB4F908381E00895E33F48F481E001
:100CA0008E0F80936E04F0E0E558FC4FF3CF80E0A8
:100CB0000895CF93DF93C62FD0916E040E943A0619
:100CC000811106C0D0936E0480E0DF91CF9108952A
:100CD0008C2F0E943A068823A9F381E0F6CF109268
:100CE000A7041092A80488E096EEA3EDB3E38093E6
:100CF0008A0290938B02A0938C02B0938D02089588
:100D0000FC01608171818281938108950F931F930B
:100D100001970E948006272F382F492F5527A4E6D8
:100D2000B0E00E943C348B019C01005C15452047DB
:100D30003343013C1F4C2A46310518F060E070E057
:100D4000CB011F910F9108950F931F93CF93809123
:100D5000B104813109F088C0C091B90487E090E006
:100D60000E94B802C81709F47FC082EB94E00E9489
:100D70008006992700917A0210917B0220917C02D3
:100D800030917D02061717072807390709F06EC052
:100D9000C0914702CC7FC093470280916803809343
:100DA0004602809167038093450280916A02909188
:100DB0006B02A0916C02B0916D0280549342A10924
:100DC000B1098093350290933602A0933702B09315
:100DD000380285EB94E00E9480066093390270939C
:100DE0003A0280933B0290933C028C2F8160809367
:100DF00047020091C1041091C2048FE090E00E946C
:100E0000B80280179107A1F58AEB94E00E94800652
:100E1000672F782F892F992787FD9A9560933D0238
:100E200070933E0280933F02909340028DEB94E0DA
:100E30000E948006672F782F892F992787FD9A9522
:100E40006093410270934202809343029093440264
:100E50008091BA0480934802C360C093470281E046
:100E6000CF911F910F9108958EEFFACF8FEFF8CFAA
:100E700080E0F6CFF8948091D2018F5F8093D20109
:100E800008950F931F93AB01BC012091CE01DC01AB
:100E9000CA013CE1B695A795979587953A95D1F704
:100EA00082278870820F8093CE01E4E07695679563
:100EB00057954795EA95D1F79B01382BC901BA019F
:100EC0001F910F9108954F925F926F927F928F9230
:100ED0009F92AF92BF92CF92DF92EF92FF922B013F
:100EE0003C010E945B034B015C01C090CA01D090A1
:100EF000CB01E090CC01F090CD01C701B601680DA7
:100F0000791D8A1D9B1D0E944107C40CD51CE61C3F
:100F1000F71CC092CA01D092CB01E092CC01F092B2
:100F2000CD01C701B601680D791D8A1D9B1DFF907B
:100F3000EF90DF90CF90BF90AF909F908F907F9079
:100F40006F905F904F900C9441070F931F930E94F6
:100F50005B030091CA011091CB012091CC0130912B
:100F6000CD01600F711F821F931F1F910F910C9471
:100F700041078F929F92AF92BF92CF92DF92EF92F2
:100F8000FF92E0911002F0911102309791F06B0105
:100F90007C0182809380A480B5800E94A507861A78
:100FA000970AA80AB90A81E08C149D04AE04BF0414
:100FB0000CF080E0FF90EF90DF90CF90BF90AF906B
:100FC0009F908F900895AF92BF92CF92DF92EF9251
:100FD000FF920F931F93CF93DF938091D2018150A3
:100FE0008093D201811169C078940FEC11E0D0E0B8
:100FF000C0E0BB24B394E0910E02F0910F02EC0F1D
:10100000FD1F23812F3F09F451C0F801D080ED2C42
:10101000F12C30E0F901EA5AFC4F8491F901E856CD
:10102000FB4FC490F901EC57FB4FA490AA2009F4A0
:101030004FC081110E94D302EA2DF0E0EE0FFF1F96
:10104000E658FB4FA591B491EC91CE2231E020E01F
:1010500009F430E0832F922FE816F90639F1DB24EA
:10106000F801D082DD2011F1CE01880F991F880F81
:10107000991F9C012E5F3D4F7901F901808191817B
:10108000A281B381892B8A2B8B2B81F40E94A50727
:10109000611571058105910521F461E070E080E042
:1010A00090E0F701608371838283938321960F5FC1
:1010B0001F4FC330D10509F09ECFDF91CF911F9113
:1010C0000F91FF90EF90DF90CF90BF90AF90089579
:1010D00090E080E0C1CFCF92DF92EF92FF920F932A
:1010E0001F93CF93DF93EC016A017B018901C11447
:1010F000D104E104F10421F4C12CD12C7601C39474
:101100000E943A078A819B81AC81BD81892B8A2B01
:101110008B2B89F582E192E0BE010E943D05198288
:101120001882CA82DB82EC82FD821F830E83E091EB
:101130001002F091110220E132E0309779F08281C3
:101140009381A481B5818C199D09AE09BF09181638
:1011500019061A061B0694F4F983E883F901D18372
:10116000C083DF91CF911F910F91FF90EF90DF909F
:10117000CF900C94E30780E192E0CECF9F010190E5
:10118000F081E02DDACF0F931F93CF93DF93EC0123
:101190008B010E943A078A819B81AC81BD81892B9A
:1011A0008A2B8B2BE9F482E192E0BE010E943D057F
:1011B000198218821A821B821C821D821F830E8351
:1011C000E0911202F0911302A2E1B2E0309759F4DB
:1011D000CD93DC93DF91CF911F910F910C94E30796
:1011E00080E192E0E2CFDF010190F081E02DEECFCF
:1011F000CF93DF93EC010E943A078A819B81AC81F7
:10120000BD81892B8A2B8B2B49F482E192E0BE01B0
:101210000E943D05DF91CF910C94E30780E192E0BD
:10122000F6CFCF92DF92EF92FF926B017C010E948A
:10123000A507A7019601261B370B480B590BDA01AE
:10124000C901B7FF0CC066277727CB01621B730B60
:10125000840B950BFF90EF90DF90CF900895833330
:1012600032E09307A105B1058CF068E070E080E002
:1012700090E00E9480030E94A507A7019601261B0B
:10128000370B480B590BDA01C901E9CF18161906BB
:101290001A061B0654F424E0880F991F2A95E1F7DB
:1012A000880F991F04970197F1F760E070E0CB0178
:1012B000D1CFCF92DF92EF92FF92A091F401B09143
:1012C000F501682F6170ED91FC9111970190F0810B
:1012D000E02DCD0109956B017C01C114D104E1041D
:1012E000F10461F00E94A5076C0D7D1D8E1D9F1DF0
:1012F000FF90EF90DF90CF900C941109FF90EF904A
:10130000DF90CF900895982FE0910E02F0910F0298
:1013100081818F3F39F061E02681291301C060E0AF
:101320000C94FC02089581E0089580E008950895EA
:1013300060E070E0CB0108954115510529F4EAE71A
:10134000F0E080818F7780836A307105B9F0CB013E
:10135000880F991F880F991F807267706860682BCB
:1013600088E10FB6F894A895809360000FBE609353
:101370006000E0E6F0E0808180648083232BD9F474
:1013800083B7817F846083BFF89483B7816083BF14
:1013900085B7806685BF8F7D85BF7894889583B734
:1013A0008E7F83BF7894452B29F4EAE7F0E08081B3
:1013B00080688083089583B7817F846083BFF894B9
:1013C00083B7816083BF7894889583B78E7F83BF0E
:1013D0007894E9CF8091010281608093010286EFC9
:1013E00091E00E94F80864E777E286EF91E00C94C0
:1013F000C30860E070E0CB01089508950F931F9338
:1014000090E0FC01E856FB4F6491FC01EC57FB4F68
:10141000E491F0E0EE0FFF1FE658FB4F85919491A9
:1014200000E211EA27E030E0462F0E942A2F6115E2
:1014300071058105910591F06F5F7F4F8F4F9F4F31
:1014400024E0660F771F881F991F2A95D1F733E094
:1014500096958795779567953A95D1F71F910F9156
:101460000895FC0101900020E9F73197AF01481B76
:10147000590BBC0184ED95E00C94B30384E491E036
:101480000C94310ACF93DF930E94A504EC010E94D3
:101490003E0A8C0F9D1FDF91CF9108958F929F92EE
:1014A000AF92BF920F931F93CF93DF93CDB7DEB769
:1014B000A1970FB6F894DEBF0FBECDBF19A2423080
:1014C00008F44AE08E010F5D1F4F842E912CB12C41
:1014D000A12CA50194010E944F34E62FB901CA0145
:1014E000EA30F4F4E05DD801EE938D01232B242B38
:1014F000252B79F790E080E0109719F0CD010E943C
:10150000310AA1960FB6F894DEBF0FBECDBFDF91B2
:10151000CF911F910F91BF90AF909F908F900895A2
:10152000E95CE1CFCF93DF930E94310AEC010E9486
:101530003E0A8C0F9D1FDF91CF910895CF92DF92CD
:10154000EF92FF92CF93DF9397FF19C06B017C015D
:101550008DE20E94A004EC0166277727CB016C196D
:101560007D098E099F094AE00E944E0A8C0F9D1F3B
:10157000DF91CF91FF90EF90DF90CF9008954AE0F8
:10158000DF91CF91FF90EF90DF90CF900C944E0AB7
:101590008C01EB0187E491E00E94920AC8010E944D
:1015A000310A8AE30E94A004BE0190E080E04AE094
:1015B0000E944E0A0E943E0A84ED95E00E94C004FB
:1015C0000E943A07FFCFCF93DF93EC01409718F4C6
:1015D00080E30E94A004BE0190E080E040E1DF9142
:1015E000CF910C944E0A8F929F92AF92BF92CF925E
:1015F000DF92EF92FF920F931F93CF93DF93CDB7BC
:10160000DEB7A0970FB6F894DEBF0FBECDBF4C017A
:101610000E94A5076093BC017093BD018093BE0139
:101620009093BF010E949E0A8FEF91E00E94A50453
:101630006091BC017091BD018091BE019091BF018C
:1016400028EE33E040E050E00E94C834A4E2AA2E25
:10165000B4EFBB2EC12CD12CE12CF12C00E010E01A
:101660000E940435B901CA010E949E0A8BEF91E0E5
:101670000E94A504F4013197E431F10508F05AC144
:10168000EC5BF44F0C94B434580B6E0B710B740B71
:10169000770B7A0B9A0C0C0C0F0C120C820C850C2D
:1016A000880C8B0C8E0C9A0C910C940CEF0B970CF5
:1016B0008BEE91E0A0960FB6F894DEBF0FBECDBFC3
:1016C000DF91CF911F910F91FF90EF90DF90CF901E
:1016D000BF90AF909F908F900C94420A8BED91E059
:1016E000E9CF8AEC91E0E6CF88EB91E0E3CF8DEA99
:1016F00091E0E0CF83EA91E00E94420AC0907A0232
:10170000D0907B02E0907C02F0907D0280907E027F
:1017100090907F02A0908002B090810280E1EFE87B
:10172000F4E0DE01119601900D928A95E1F780E1D7
:10173000EFE7F4E0DE01519601900D928A95E1F712
:101740008BE991E00E94A5044AE0C701B6010E941E
:101750004E0A0E943E0A81E991E00E94A50440E100
:10176000C501B4010E944E0A0E943E0A87E891E03A
:101770000E94A5048E010F5F1F4F912C812CF80150
:1017800081918F0190E00E94E30AFFEF8F1A9F0A78
:1017900080E188169104B1F586E491E00E94920AF6
:1017A0008BE791E00E94A5044E01E1E18E0E911CB1
:1017B00010E000E0F40181914F0190E00E94E30A03
:1017C0000F5F1F4F0031110511F50E943E0A109264
:1017D000A10480E89FEF90935D0380935C03A09643
:1017E0000FB6F894DEBF0FBECDBFDF91CF911F9132
:1017F0000F91FF90EF90DF90CF90BF90AF909F90B0
:101800008F90089585E891E00E94A504B8CF89E7FC
:1018100091E00E94A504CECF8AE691E04BCF89E506
:1018200091E048CF89E291E00E94420A8CE191E088
:101830000E94A5046091BC017091BD018091BE0120
:101840009091BF010091C0011091C1012091C2018E
:101850003091C301601B710B820B930B28EE33E0B8
:1018600040E050E00E94C834E4E2AE2EF4EFBF2E18
:10187000C12CD12CE12CF12C00E010E00E940435A9
:10188000B901CA0128EE33E040E050E00E941D3467
:10189000CA01B9010E949E0A0E943E0A86E491E0B4
:1018A0000E94920A8091AF0487FF04C08FE091E00C
:1018B0000E94420A8091B104882391F085E091E072
:1018C0000E94420A6091B10470E090E080E04AE03A
:1018D0000E944E0A0E943E0A83EF90E00E94420A54
:1018E0000E94A507AB01BC0140535D4E6C4E7F4F7B
:1018F00024E737E286EF91E00E946B0881E0809355
:1019000014026DCF85EE90E0D5CE8CED90E0D2CE76
:101910008EEC90E0CFCE81EC90E0CCCE83EB90E0EB
:10192000C9CE88EA90E0C6CE8AE990E0C3CE88E7C7
:1019300090E0C0CE88E690E00E94A504B40190E05B
:1019400080E04AE00E944E0AA0960FB6F894DEBFEF
:101950000FBECDBFDF91CF911F910F91FF90EF9000
:10196000DF90CF90BF90AF909F908F900C943E0AE5
:10197000CF92DF92EF92FF92CF93DF93EC01C12CD5
:10198000D12C7601C3940C2E04C0CC0CDD1CEE1CB3
:10199000FF1C0A94D2F7E3FC03C0CE010E94F30AB5
:1019A000D701C60188279472AA27BB27892B8A2BC7
:1019B0008B2B01F1E0912202F09123023097D1F0BC
:1019C0002091B1044091B004211102C0442391F050
:1019D0008091AF0450E060E084FF04C0DA01AF54AE
:1019E000BB4F6C9130E04E545B4F8091240290913C
:1019F00025020995CC2484E0D822E822FF24CD28B2
:101A0000CE28CF2819F1E0912602F09127023097D5
:101A1000E9F01092270210922602C231D10541F15D
:101A20008091AF0483FD24C09091790361E09923F4
:101A300039F0082E000C990B692F661F6627661F68
:101A400070E080912802909129020995E0911E0290
:101A5000F0911F02309771F0BE01809120029091A9
:101A60002102DF91CF91FF90EF90DF90CF9009940A
:101A700060E0E6CFDF91CF91FF90EF90DF90CF90C5
:101A800008954F925F926F927F929F92AF92BF9212
:101A9000CF92DF92EF92FF920F931F93CF93DF933A
:101AA000EC01A8849E8080E591E00E94310A8D813E
:101AB000882321F061E08F810E94FC0284E0B82E2F
:101AC00000E110E061E08A2D0E94FC02C80101974C
:101AD000F1F760E08A2D0E94FC02892D0E94FE0928
:101AE000E881F9810190F081E02DCE010995CB8448
:101AF000DC84ED84FE84A7019601C701B6010E9433
:101B0000E937882381F189E591E00E94310A0E943A
:101B10003E0ABA94BB2061F020E030E040E85FEB81
:101B20006B857C858D859E850E949136882351F238
:101B30008D81882321F060E08F810E94FC026B85FB
:101B40007C858D859E85DF91CF911F910F91FF90B0
:101B5000EF90DF90CF90BF90AF909F907F906F906D
:101B60005F904F90089526013701E89477F82FEFA2
:101B70003FEF4FE75FE7C301B2010E94E9378111F0
:101B80000DC02FEF3FEF4FE75FE7C301B2010E94A7
:101B9000913618161CF48DE591E0B7CF2FEF3FEF8B
:101BA0004FE75FE4C701B6010E94773718161CF4AF
:101BB00081E691E0AACF2FEF3FEF4FE75FECC7013F
:101BC000B6010E94913687FDF3CF20E030E0A901F5
:101BD000C701B6010E94913687FF07C08DE20E94BF
:101BE000A004F7FAF094F7F8F0942AE037ED43EA0E
:101BF0005BE3C701B6010E9425362B013C010E9420
:101C000096366B017C010E94C5369B01AC01C30175
:101C1000B2010E9424362B013C014AE0C701B60103
:101C20000E944E0A8EE20E94A00420E030E040E2D2
:101C300051E4C301B2010E947C372B013C010E9498
:101C400096366B01F12CE12C4AE0C701B6010E94E7
:101C50004E0AC701B6010E94C5369B01AC01C30103
:101C6000B2010E94243620E030E040E251E40E94BC
:101C70007C370E94963690E080E04AE00E944E0A4F
:101C800046CF0F931F93CF93DF9300D000D0CDB7F3
:101C9000DEB7DB011C969C911C971E963C911E970B
:101CA0001F962C911F971D964C911D9749833A833F
:101CB0002B839C83BE016B5F7F4F9E012F5F3F4F45
:101CC000F90111919F01412F42954F70F0E14F9F13
:101CD000A0011124E12FEF70E40FF52FF11DE6585C
:101CE000FC4F9491A90141505109FA0190832617A4
:101CF000370731F791E05BE1813039F0492F440F2C
:101D000097FD45278150942FF7CF89819827998394
:101D10008D0194E0FE013196A801DA018D91AD01AB
:101D200061918627BD0161507109DB018C93BF0170
:101D300061507109DB018C93E217F30771F7915041
:101D40000C5F1F4F9111E6CF0F900F900F900F90E7
:101D5000DF91CF911F910F9108953F924F925F9223
:101D60006F927F928F929F92AF92BF92CF92DF92AB
:101D7000EF92FF920F931F93CF93DF93CDB7DEB710
:101D800068970FB6F894DEBF0FBECDBF8C0124EC70
:101D9000C22E25E0D22EAC01405F5F4FC601780114
:101DA000FC01D70120E03D9130832F5F3496243031
:101DB000D1F724E0E20EF11C01964E155F0581F784
:101DC000A4EBB5E0FE01319684EC95E05E2E6F2E1B
:101DD0002D9121938A179B07D9F7852D962D0E9467
:101DE000FB044424439488ECA82E85E0B82E4E01D1
:101DF00039E1830E911C9BE1392E84EC95E024E0BF
:101E0000DC01712CEC914E2F42954F7030E1439FD5
:101E1000A0011124EF70E40FF52FF11DE658FC4FDF
:101E2000E491EC937394149654E07512EBCF215027
:101E300001962111E5CF0E94E004E4ECF5E0CE012B
:101E40004596BE016F5E7F4F9F01D9015C91DC0119
:101E50005D93CD01452F440F57FD83C0DB014C93AB
:101E60002C5F3F4F6F5F7F4F8816990671F78E8901
:101E7000398938272F89688D9A8992279627432F89
:101E8000492741934D895B899427952793839C89A2
:101E90008627842785278927878324272927322790
:101EA0003387AE16BF0659F6652D762D842D0E9418
:101EB000410E852D962D0E94FB044394BAE04B12EF
:101EC0009CCF84EC95E0DC0140E0EC912E2F229534
:101ED0002F7050E1259F90011124EF70E20FF32F36
:101EE000F11DE658FC4FE491EC934F5F149644309B
:101EF00061F77A9401967110E6CF0E94E004652D97
:101F0000762D8AE00E94410E852D962D0E94FB04BD
:101F1000D801F60180E090819D938F5F34968430E4
:101F2000D1F78FEFC81AD80A0C5F1F4FE016F106E1
:101F300079F768960FB6F894DEBF0FBECDBFDF917C
:101F4000CF911F910F91FF90EF90DF90CF90BF90B6
:101F5000AF909F908F907F906F905F904F903F9049
:101F6000089543257BCFE82FF0E0E652FD4FE49142
:101F7000EF3F09F0815008951092B104E091B1054E
:101F800084E0E89FF0011124EE54FD4F808191819F
:101F9000A281B3818C7F8093720290937302A0938D
:101FA0007402B093750283E891E190935703809394
:101FB000560308958F929F92AF92BF92CF92DF9275
:101FC000EF92FF920F931F93CF93DF93E9019DEF61
:101FD000980F9D3008F06DC06A017B019CEFC9220B
:101FE0000F3FA1F447EE52E0AFEFB2E0FA010591E6
:101FF000159125913491480159016CEF8622C8143E
:10200000D904EA04FB0408F447C00370E82FF0E0A9
:10201000DF01AA0FBB1FAA0FBB1FAE54BD4F002E7E
:10202000000C110B220B330B0C291D292E293F29E3
:102030000D931D932D933C931397209711F4CFE3A9
:10204000D0E0EE0FFF1FEE5CFC4FD183C0834091C8
:1020500052035091530321E030E0B90102C0660FF2
:10206000771F8A95E2F7CB01CD28CE28CF28E1F063
:10207000842B952B909353038093520381E0DF913F
:10208000CF911F910F91FF90EF90DF90CF90BF9075
:10209000AF909F908F9008954C5F5F4FA417B50746
:1020A00009F0A4CF00E0B2CF8095909584239523CA
:1020B000E1CF80E0E4CF94E0899FF0011124EE5558
:1020C000FD4F659175918591949108958F929F929E
:1020D000AF92BF92CF92DF92EF92FF92882379F076
:1020E00010925F0310925E031092630310926203DA
:1020F0001092AC04809147028C608093470283E089
:102100000E945B104B015C016DE273E080E090E0A7
:10211000A50194010E941D34C901059690936503A1
:1021200080936403C0903502D0903602E09037026D
:10213000F090380282E1D80E8AE7E81EF11CD9013E
:102140001397A50194010E943C34C61AD70AE80AE5
:10215000F90AC0928E02D0928F02E0929002F09221
:102160009102FF90EF90DF90CF90BF90AF909F9043
:102170008F9008958F929F92AF92BF92CF92DF92ED
:10218000EF92FF920F931F93CF93DF934B015C016C
:10219000EA01822F0E945B109B01AC01C090660295
:1021A000D0906702E0906802F090690206E010E0CB
:1021B000C501B4010E949E05AB01BC014C0D5D1D23
:1021C0006E1D7F1D40936A0250936B0260936C02F8
:1021D00070936D0241575240610971099E018DE271
:1021E00092E0DF91CF911F910F91FF90EF90DF90E0
:1021F000CF90BF90AF909F908F900C946B088F9270
:102200009F92AF92BF92CF92DF92EF92FF92CF93C5
:10221000C62FA0915E03B0915F036D010B2E000CE1
:10222000EE08FF08E0916003F09161034F010F2E6B
:10223000000CAA08BB088823D1F0482F50E09A016F
:102240000E94C1346B017C0187E0F594E794D79438
:10225000C7948A95D1F7DF010E94C1344B015C011C
:1022600097E0B594A794979487949A95D1F7209185
:10227000AC04A0916203B091630330E00E94C134CA
:10228000860E971EA81EB91E8C2F0E945B109B0104
:10229000AC01C501B4010E941D34DA01C9010596E3
:1022A000A11DB11D811524E09207A105B1053CF0E7
:1022B0008FEF93E090936A038093690306C0B7FFA2
:1022C000F9CF10926A03109269038C2F0E945B1061
:1022D0009B01AC01ADEFBFEF0E943C346C0D7D1D46
:1022E0008E1D9F1DCF91FF90EF90DF90CF90BF90FC
:1022F000AF909F908F900895883040F4E82FF0E0E1
:10230000E552FD4FE49181E0EF3F09F480E008954C
:102310008F929F92AF92BF92DF92EF92FF920F93B4
:102320001F93CF93DF93D82EEB018A01E22EE09129
:102330000E02F0910F02F08080849184A284B38415
:1023400081149104A104B10439F420E4822E22E422
:10235000922E2FE0A22EB12C40E059E06DE370E008
:1023600080E084169506A606B70640F47695679534
:10237000579547958F5F8630A1F787E0982F906A31
:102380009695809581709CBD8DBD60E08F2D0E94DB
:10239000FC02DEBC00000DB407FEFDCF8EB50C0FB5
:1023A0001D1FC017D10771F080E0E11001C08881C6
:1023B0008EBD00000DB407FEFDCF8EB5E110888301
:1023C0002196EFCF61E08F2DDF91CF911F910F917B
:1023D000FF90EF90DF90BF90AF909F908F900C9404
:1023E000FC02CF93DF931F92CDB7DEB721E041E02F
:1023F00050E0BE016F5F7F4F0E94881189810F906E
:10240000DF91CF910895CF93DF931F92CDB7DEB7C1
:10241000698320E041E050E0BE016F5F7F4F80683C
:102420000E9488110F90DF91CF910895CF93C82F0C
:1024300062E082E00E94031260E883E00E940312DF
:1024400061E084E00E94031269E985E00E940312C2
:1024500062E187E20E94031260EDC11168ED80E342
:102460000E94031260E481E30E94031261EC88E29F
:102470000E94031264E989E20E94031261EC8AE27D
:10248000CF910C9403120F931F93CF93DF93C091BE
:102490006D03C4310CF040C0CE30CCF1C2310CF031
:1024A000C1E161E08091F4019091F5010091720227
:1024B000109173022091740230917502DC01ED914C
:1024C000FC910084F185E02D4C2F0995813059F164
:1024D0008230E1F1CF301CF5CC301CF1C067D7E081
:1024E00014E06C2F89E00E9403128DE40E94F11128
:1024F000887F682F612B8DE40E9403126D2F60622C
:102500008BE0DF91CF911F910F910C940312CC3F80
:102510000CF4CCEF60E0C6CF62E0C4E1C3CFCEE004
:10252000DDCFCC5FDCCF80915603877011F4CB30C8
:102530005CF0C2302CF4C2E0C250C068DBE0D0CF07
:10254000C231D4F3C1E1F8CFCBE0F6CFD0E117E050
:10255000CFE8C7CFAF92BF92CF92DF92EF92FF92B8
:102560000F931F93CF93DF93809172029091730228
:10257000A0917402B09175029C01AD0160E070E021
:1025800080E090E003E10E94D935A12CE8E4BE2E62
:10259000F8EECF2EDD24D394E12CF12C00E010E0F6
:1025A0000E943535C22FB32E6A017B01182FD92F17
:1025B00000E10E94F435622F86E00E9403122C2F66
:1025C0003B2DA601B701812F9D2F08E00E94F43515
:1025D000622F87E00E9403126C2F88E0DF91CF9179
:1025E0001F910F91FF90EF90DF90CF90BF90AF9031
:1025F0000C9403121F93CF93DF9360915603709155
:102600005703162F1770CB0133E0969587953A95AF
:10261000E1F7D82FD370D13059F008F466C0D2302A
:1026200009F465C066EC71E085E691E00E94C80A95
:10263000C0E8CB0125E0969587952A95E1F7837050
:10264000823009F458C0833009F457C0813009F44E
:1026500050C0C260672F77276115710521F0C160F6
:1026600082E20E9403126C2F8DE10E94031260919E
:102670006A03637060598FEF810F8295807F680FC6
:102680008091560387FF64608EE10E9403128BEFF6
:10269000810F823010F4DD2391F1163011F4D13026
:1026A00071F164E086E20E940312C0E063E0D23080
:1026B00081F48091720290917302A0917402B091A2
:1026C0007502CFE781349D4DAA44BF4108F0C4E6AE
:1026D00062E086E30E940312CC2399F06C2F8AE318
:1026E000DF91CF911F910C940312C0E7A2CFC0E9F4
:1026F000A0CFC460AFCFC660ADCFC860ABCF6CE039
:10270000D1CFDF91CF911F910895CF93DF93D82F31
:10271000C82FC77019F081E00E9459096D2F81E020
:102720000E940312C11105C080E0DF91CF910C948B
:102730005909DF91CF9108958091720290917302AF
:10274000A0917402B091750281349D4DAA44BF419D
:1027500018F488E00C94851380E0FCCF809172021D
:1027600090917302A0917402B091750281349D4DD5
:10277000AA44BF4118F488E80C94851380E8FCCF84
:10278000CF93C82F81E00E94F111887F8C2BCF91CD
:102790000C948513CF92DF92EF92FF92CF93DF9349
:1027A000D82F0E94AE1381E00E94F11187FD06C070
:1027B0006BE973E085E691E00E94C80A81E00E941F
:1027C000C013D23009F07CC06AE08DE10E94031290
:1027D00060E78EE10E94031263E28CE00E94031224
:1027E0006FEF83E20E9403128091B205882309F4FF
:1027F0006CC083E30E94F111682F6F7B83E30E941A
:102800000312809156039091570323E09695879584
:102810002A95E1F7C82FC37081E30E94F1118877F0
:10282000682F6360C23008F056C081E30E94031233
:1028300060E48FE20E94031260E480E30E940312CE
:10284000609169038FE10E94031264E389E30E94AF
:1028500003126CE080E40E9403126FEF82E10E9499
:102860000312ED2FF0E0EC51FD4F6491609581E192
:102870000E94031280E00E94830960E08DE00E94C4
:10288000031260E08FE00E940312D11128C0609112
:102890006A0270916B0280916C0290916D020E94AD
:1028A00011096B017C0186E00E94C013C701B601CB
:1028B000DF91CF91FF90EF90DF90CF900C941405B3
:1028C0000E94FA120E94AA1287CF83E30E94F1119C
:1028D000682F606493CF682F636881E3AFCF85E092
:1028E000DF91CF91FF90EF90DF90CF900C94C013C9
:1028F000CF92DF92EF92FF92CF93C82F81E00E9498
:10290000F111877069E274E0D1F480915603877009
:1029100009F062C0C13051F41092B10460913302E9
:10292000709134028DE292E00E94C3080E949C13D1
:1029300081E00E94F11187FF06C062E074E085E645
:1029400091E00E94C80A81E00E94C0130E94AA126E
:1029500063E28CE00E9403126EE18DE00E9403129C
:102960006BE082E10E94031262E183E10E940312A4
:102970006AEA8FE10E9403126FEF81E20E94031264
:1029800081E00E94161268E380E40E94031280E056
:102990000E948309C11118C060916A0270916B0294
:1029A00080916C0290916D020E9411096B017C0173
:1029B00085E00E94C013C701B601CF91FF90EF9050
:1029C000DF90CF900C94140585E0CF91FF90EF90AD
:1029D000DF90CF900C94C0138C2FCF91FF90EF908D
:1029E000DF90CF900C94CA1383E190E00E94B80C62
:1029F00080E00C94781484E79DE2909334028093F5
:102A000033020C94F41483ED92E290933402809399
:102A100033020C94F41421E02093AF04E6E5F3E0D4
:102A2000208131812068318320831092B1049093FA
:102A30003402809333020C94F41484EA9DE20C94E3
:102A40000B1589E597E20C940B1582E08093AF0497
:102A5000E091A804F0E0E552FD4FE491F0E0EF775B
:102A6000E068F0935703E093560380918A029091B7
:102A70008B02A0918C02B0918D0280937202909390
:102A80007302A0937402B09375021092B1040C9477
:102A9000F4148BEB9DE290933402809333020C94F8
:102AA00025158CE697E290933402809333020C94C0
:102AB000251540E150E06AE673E084EB95E00C9464
:102AC00014346F927F928F929F92AF92BF92CF9267
:102AD000DF92EF92FF920F931F93CF93DF93CDB7C7
:102AE000DEB760970FB6F894DEBF0FBECDBF7B0197
:102AF0008A01282F30E0277F2230310549F0243029
:102B0000310509F4CBC0232B09F09FC0D12C98C00C
:102B100083FD32C083ED91E00E94AD0E90E1692EFD
:102B2000FE0131966F0123EE822E21E0922E37E8CE
:102B3000732E0115110509F060C06091D3017091E9
:102B4000D4018091D5019091D6010E94BA3460964B
:102B50000FB6F894DEBF0FBECDBFDF91CF911F91AE
:102B60000F91FF90EF90DF90CF90BF90AF909F902C
:102B70008F907F906F900895E3EDF1E080E1DF01A9
:102B80001D928A95E9F7CACF01151105E9F5E62FDF
:102B9000F0E0ED52FE4F80818058808311E0D60135
:102BA000E62D1D92EA95E9F7C6010E94AD0E098156
:102BB000C6010E94810207FF03C088898725888B90
:102BC000112349F01981C6010E94810217FF03C039
:102BD00088898725888BF601D5018D915D019191BA
:102BE000119789278C938A149B04B1F710E000E0B9
:102BF00083ED91E00E94AD0E9CCF83EDA82E81E085
:102C0000B82ED701950160E0F90181919F019D9156
:102C1000AF01415051098927FA0180836F5F7D011F
:102C200001501109603109F0AFCF0115110501F70D
:102C300010E0B5CF8E0D9F1D0E94AD0EB0E1DB0EF2
:102C40008D2D90E080179107A8F360E070E0CB0134
:102C50007ECF80E1E3EDF1E0DE01119601900D926F
:102C60008A95E1F7CE0101960E94AD0EFE013196E4
:102C70009701205F3F4F9191D7018C9189278D93C8
:102C80007D0101501109A217B30719F001151105B3
:102C900091F78091E2018F5F8093E20101151105A8
:102CA000C1F6D3CFCF92DF92EF92FF920F931F9393
:102CB000CF93DF93E4EBF5E080E1DF011D928A958D
:102CC000E9F7EAEBF4E088E0DF011D928A95E9F785
:102CD000CEE1D2E03B8D2C8D9D8D8E8D02EB14E0EC
:102CE000F80130832093B3049093B4048093B50427
:102CF00030917E0220917F0290918002809181022A
:102D00003093B6042093B7049093B8048093B90429
:102D100040E150E0B80180E00E9461154CA587E0D9
:102D200090E0841B91092FEF3FE002C03595279575
:102D30008A95E2F7D8018D919C9128233923A3E548
:102D4000B7E00E947134CF88D88CE98CFA8CB4E952
:102D5000CB0EB5E0DB1EB2E0EB1EF11CC60ED71E9B
:102D6000E81EF91EC8AAD9AAEAAAFBAA1DA681E0F4
:102D700090E001C0880F4A95EAF76BA58E5F0E942C
:102D8000FF10C61AD70AE80AF90ACCAADDAAEEAAE9
:102D9000FFAA8091690390916A039FA78EA7DF9194
:102DA000CF911F910F91FF90EF90DF90CF900895FA
:102DB0008F929F92AF92BF92CF92DF92EF92FF924B
:102DC0000F931F93CF93DF936B017C01EA018091F6
:102DD000580390915903827096708230944059F450
:102DE0000E945216809158039091590392609093DB
:102DF00059038093580380916B03E0916F0394E033
:102E0000E99FF0011124EE50FD4F40815181628114
:102E10007381411551056105710541F040937202BE
:102E20005093730260937402709375029091A7049B
:102E3000963008F095E0891B282F88300CF027E0A9
:102E400027FD20E020936B03E22F022E000CFF0BE6
:102E5000E552FD4FE491F0E0EF77E068F09357031F
:102E6000E09356038730CCF1809066029090670221
:102E7000A0906802B0906902C701B6016A5071095A
:102E80008109910900E410E021E030E040E050E0E9
:102E90000E949E05AB01BC01480D591D6A1D7B1D9A
:102EA00040936A0250936B0260936C0270936D02C0
:102EB00041575240610971099E018DE292E0DF9114
:102EC000CF911F910F91FF90EF90DF90CF90BF9027
:102ED000AF909F908F900C946B08AE01C701B60124
:102EE000DF91CF911F910F91FF90EF90DF90CF90E6
:102EF000BF90AF909F908F900C94BA1041E255E133
:102F000064EB74EC84E090E00C94D8162091A20459
:102F100030E0A4E2B4EF0E9471344DE155E10C942D
:102F2000D8169091E301911106C06CE874E085E633
:102F300091E00E94C80A903141F440E150E063EE14
:102F400071E080E00E94611590E0E92FF0E0ED5122
:102F5000FE4F80819F5F9093E3010895DF92EF928F
:102F6000FF920F931F93CF93DF938C01EB0180911E
:102F7000540390915503F8012081318182239323DA
:102F800090935503809354030E948F027C01892BF8
:102F900009F08DC0F8018081918190935503809351
:102FA00054030E948F027C018FEF9FEFE114F10424
:102FB00009F4D6C0F1E1EF16F10408F478C010E08E
:102FC00000E0CF3FDC0751F1C131D1050CF06FC0FB
:102FD0009E012F70332781E090E002C0880F991F77
:102FE0002A95E2F7FE0144E0F595E7954A95E1F769
:102FF000EE0FFF1FEC5AFC4F208131818C01022320
:1030000013238095909582239323918380830115C8
:10301000110509F44EC070E1E71AF1080E949117FA
:10302000D82E0E9491179D2DB70124E076956795C3
:103030002A95E1F70E948C3434E0880F991F3A9565
:10304000E1F7A4E5B3E0F0E0E0E04D915D914115DA
:10305000510559F19A013695279525753575BA01AF
:10306000621B730B9B0163737373369527953695BB
:10307000279523733373620F731F9B01207F307F6B
:103080006F707F7062957295707F7627607F76276C
:10309000620F731F9B013327672F7727620F731F00
:1030A0008617970778F0861B970B7096CECF10E0A7
:1030B00000E0CFEFDFEFB2CF9A0121503109422378
:1030C000532340970097C1F788279927841B950BB6
:1030D000482359239A012575357581E090E0232B0B
:1030E00011F090E080E09A0123733373232B09F0F1
:1030F0003FC022E030E0280F391FCA018F709F7057
:10310000892BC9F584E090E0280F391F88E090E012
:10311000442311F090E080E0280F391F2E0F3F1F4D
:10312000F90144E0F695E7954A95E1F7EE0FFF1FA8
:10313000EC5AFC4FA9014F70552781E090E0BC018B
:1031400002C0660F771F4A95E2F7AB01808191813B
:103150008627952791838083CF3FDC0779F4C901C7
:10316000DF91CF911F910F91FF90EF90DF90089525
:1031700030E020E0C0CF90E080E0C6CF84E0D5957D
:10318000C7958A95E1F7CC0FDD1FCC5ADC4F8881BB
:103190009981082B192B19830883E1CF0F931F9373
:1031A000CF93DF93C82FD0E08E0183E0000F111F73
:1031B0008A95E1F7025E1D4FF801EA58FF4F6083E0
:1031C0003297518340830E94A50723E0CC0FDD1F77
:1031D0002A95E1F7CA56DD4F688379838A839B83FA
:1031E0000E949117F801E958FF4F8F70808381E0AA
:1031F000DF91CF911F910F910895CF92DF92EF92BF
:10320000FF92CF93C82F0E949117F82E0E9491171A
:103210009F2D6C01853224EF920720F024E2C21A20
:1032200024EFD20AF12CE12CCC2369F06C2F0E9400
:103230008034292F30E0A4E2B4EF0E947134C60E2E
:10324000D71EE81EF91EC701B601CF91FF90EF907F
:10325000DF90CF900895CF92DF92EF92FF926B01B3
:103260007C01842F442331F00E94FD18C60ED71E26
:10327000E81EF91E809170038823A9F080917602E0
:1032800090917702A0917802B0917902A7019601FE
:10329000281B390B4A0B5B0BDA01C90118161906FA
:1032A0001A061B068CF4C0927602D0927702E09246
:1032B0007802F092790280915803909159039160BD
:1032C0009093590380935803FF90EF90DF90CF9035
:1032D0000895CF93DF9390E4E2EBF2E0DF01292F32
:1032E0001D922A95E9F7E2EFF2E0DF011D929A952F
:1032F000E9F790E2E2E3F3E0DF01292F1D922A953E
:10330000E9F7E2E9F2E0DF011D929A95E9F727E09B
:1033100030E03093530320935203811130C083E097
:10332000C2EBD2E0A2E3B3E093E0980F2FE330E0EA
:1033300044E0849FF0011124EE53FD4F45915591D7
:103340006591749149935993699379932D933D9322
:103350008F5F8913EDCF48EE53E06EE080E00E946E
:10336000CE1844E650E06EE081E00E94CE184AE0BC
:1033700050E06BE182E0DF91CF910C94CE1880E0B9
:10338000CFCFCF92DF92EF92FF92CF93DF9300D017
:10339000CDB7DEB780917E0290917F02A09180022E
:1033A000B0918102892B8A2B8B2B09F063C080910D
:1033B000580390915903109270038E7C977A9093E2
:1033C0005903809358031092AE04109275030E9423
:1033D0006F0687E090E09A838983909355038093EA
:1033E00054036FEF7FEFCE0101960E94AE178093DA
:1033F0006F0380E18093720385E08093730381E023
:103400000E946919809158039091590393FF06C057
:103410006CE870E08FE791E00E94C80A0E94A5075F
:103420006B017C0188E00E94FD18C60ED71EE81EC5
:10343000F91EC0926602D0926702E0926802F09292
:1034400069028091580390915903846090935903C5
:103450008093580362E075E28DE292E00E94C30817
:1034600081E00F900F90DF91CF91FF90EF90DF9070
:10347000CF90089580E0F5CFFF920F931F93CF93E5
:10348000DF93CDB7DEB72F970FB6F894DEBF0FBE30
:10349000CDBF80E00E94C0138DE292E00E94F80848
:1034A0008FE0EEE1F2E0DE01119601900D928A9537
:1034B000E1F70EE112E086E993E0F8019C01119238
:1034C00021503040E1F78FE0FE013196D8010190A4
:1034D0000D928A95E1F70E949117F82E0E9491179C
:1034E0009F2D90935B0380935A031092590310927F
:1034F00058031092740380E88093A5040E946F061D
:1035000081E08093A20488E096EEA3EDB3E3F80196
:1035100080AF91AFA2AFB3AF83E083A78FEF84A753
:103520002F960FB6F894DEBF0FBECDBFDF91CF91BF
:103530001F910F91FF900895AF92BF92CF92DF92AB
:10354000EF920F931F93CF93DF93DC011A141B04A8
:10355000A4F590E1E3EDF1E0EF01892F19928A954E
:10356000E9F7F1E0F093E201F093D301E092D801A2
:103570004093D9015093DA016093DB017093DC0131
:103580000093DD011093DE012093DF013093E00111
:10359000FD01A4EBB5E001900D929A95E1F7A5012C
:1035A000B60184E0DF91CF911F910F91EF90DF90F2
:1035B000CF90BF90AF900C946115DF91CF911F9188
:1035C0000F91EF90DF90CF90BF90AF9008952F9222
:1035D0003F924F925F926F927F928F929F92AF92A3
:1035E000BF92CF92DF92EF92FF920F931F93CF93F0
:1035F000DF93CDB7DEB72C970FB6F894DEBF0FBEC2
:10360000CDBF8091660381112CC781E08093660352
:1036100080915803909159031C0101EC202233241E
:103620002114310481F440917E0250917F02609117
:10363000800270918102452B462B472B21F582FD9C
:1036400030C00E94C1198091660381508093660347
:103650008111DECF2C960FB6F894DEBF0FBECDBF22
:10366000DF91CF911F910F91FF90EF90DF90CF905E
:10367000BF90AF909F908F907F906F905F904F9092
:103680003F902F90089596FF0CC09F7B9093590315
:103690008093580369EB72E28DE292E00E94C308C6
:1036A000D2CF0E94A5076B837C838D839E838091FC
:1036B0005803909159039C0122703327812C912C3F
:1036C000540181FF21C080908E0290908F02A090C3
:1036D0009002B090910211E7811A12E0910AA108BC
:1036E000B1084B815C816D817E81481959096A0955
:1036F0007B0977FF09C08D7D997F90935903809353
:1037000058038BE090E0AAC4AC014C735527452BBD
:1037100009F44DC68C010472112718870F8393FF9B
:1037200031C1CB80DC80ED80FE801EE2D11A16EB29
:10373000E10A14E9F10AA0915203B0915303809178
:1037400073038F7021E030E002C0220F331F8A958F
:10375000E2F73C872B8790E080E040E021E030E01A
:10376000082E02C0220F331F0A94E2F7A217B307F4
:1037700008F444C02A233B23232BD9F1FC01EE0F8C
:10378000FF1FEE5CFC4F208131816B857C852623F9
:103790003723232B71F1FC01EE0FFF1FEE0FFF1FEC
:1037A000EE54FD4F50815370252F30E061E070E002
:1037B00001C0660F5A95EAF7542F5623D1F4462BD1
:1037C00053E0220F331F5A95E1F7F901EA56FD4FF6
:1037D000008111812281338126013701401A510A6B
:1037E000620A730A141415041604170414F4680109
:1037F000790101968031910509F0B0CF30E020E0E9
:1038000090E080E041E050E0082E02C0440F551FD8
:103810000A94E2F7A417B507B8F1BD016423752334
:10382000672B69F1FC01EE0FFF1FEE5CFC4F60811E
:103830007181EB85FC856E237F23672B01F1242AA0
:10384000352AFC01EE0FFF1FEE0FFF1FEE54FD4F58
:10385000E081E37008E0E09FF0011124EA56FD4F9B
:1038600040805180628073804C185D086E087F082C
:10387000141415041604170414F0242B352B019688
:103880008031910509F0BECF3A832983009154031A
:103890001091550360916F0370E06F3F11F46FEF6B
:1038A0007FEFCE0101960E94AE1729813A812095C3
:1038B00030950223132320223122009154031091CA
:1038C0005503202A312A309255032092540397FF42
:1038D00080936F03C0926602D0926702E092680202
:1038E000F09269028091580390915903977F9093C9
:1038F0005903809358038091580390915903209164
:103900007003211102C090FF12C0409176025091C5
:103910007702609178027091790297018601041B09
:10392000150B260B370B37FF02C06A017B019C0188
:103930002270332781FF2FC04F80588444E455E91B
:1039400068E070E0452821F448ED58EB65E070E050
:103950004C0D5D1D6E1D7F1D481959096A097B09B3
:103960001416150616061706B4F440E1C501B40195
:103970006C567A4F8D4F9F4F0E942B19C12CD12C22
:103980007601A5C4C0906602D0906702E0906802FC
:10399000F0906902B0CF4B815C816D817E814F5880
:1039A0005D4F6F4F7F4F26013701441A550A660A53
:1039B000770AB301A20177FF81C4709073038F80EF
:1039C0009884892809F462C11091750385FD5BC153
:1039D0001092B20448E050E062E972E083EB94E0B8
:1039E0000E94143448E050E06AE872E08BEB94E007
:1039F0000E94143490915A0380915B039093C30406
:103A00008093C4040E94591543E150E062EB74E0D6
:103A10008AE00E9461156093C8047093C704809384
:103A2000C6049093C50487E18093B10480915A0342
:103A300090915B03019690935B0380935A038EE70A
:103A400097E19093340280933302E72DF0E0E55242
:103A5000FD4F8491E091740300E2E09FF001112496
:103A60008F79E82BF0935703E093560370926B0322
:103A700080915803909159038F76967F8068986063
:103A80009093590380935803A0916F0314E0A19F72
:103A9000D0011124AE54BD4FCD90DD90ED90FC903F
:103AA0008091B1044E2F477090E009F0DAC20B9676
:103AB000DC0103E0AA0FBB1F0A95E1F724E234EF13
:103AC0000E94C13420E533EC40E050E00E941D34F8
:103AD00049015A01B701A601437055276627772788
:103AE0000CEFC022C0927202D0927302E092740274
:103AF000F0927502CA0133E0880F991F3A95E1F7F9
:103B0000825E9D4FFC01EA58FF4F108110936C03B9
:103B1000FA013F9643E0EE0FFF1F4A95E1F79F0140
:103B2000225E3D4F79018C589F4FFC01A081B181ED
:103B3000A50194010E943C344B805C806D807E80A6
:103B4000640D751D861D971DD7016D937D938D9313
:103B50009C93139780917003882399F004C0880C7C
:103B6000991CAA1CBB1C8A95D2F7840C951CA61C18
:103B7000B71C8092760290927702A0927802B0925F
:103B800079028091720318170CF4812F80936D03D2
:103B900081E190E00E94B80C1092660210926702D8
:103BA000109268021092690281E00E94F111877000
:103BB00059F080E00E94C0130E94A507625C7F4F0D
:103BC0008F4F9F4F0E94110980906E0290906F025C
:103BD000A0907002B0907102181419041A041B040A
:103BE0000CF0C7C281E00E94CA13809172029091CA
:103BF0007302A0917402B091750281349D4DAA4464
:103C0000BF4108F4B3C283E69FEFE0910E02F0914A
:103C10000F0227817C01E20EF11C27FDFA940E941D
:103C2000A507615E7F4F8F4F9F4F0E9411090E9431
:103C3000A50710E0860E971EA81EB91E8BE10E94F4
:103C4000F111181708F4182F0E94A50768197909AF
:103C50008A099B0997FDF2CF80E00E94C0138091F2
:103C60006E03082E000C990BE10EF11CE816F90604
:103C70000CF47FC260913302709134020DCD872D18
:103C80000E94B30F782E1150D0F7A2CE409182023D
:103C900050918302609184027091850240385F4F99
:103CA0006F4F7F4F18F06FEA72E2F6CC2091AE04AE
:103CB00021110DC0409186025091870260918802C7
:103CC000709189024F3F5F4F6F4F7F4F61F37C01CF
:103CD00028E1E222FF2430E1E316F10409F457C1A0
:103CE000A0907A0380917803882309F452C18091CF
:103CF0006F04882309F44DC100916E04002309F478
:103D000048C110E0A80160E774E08AEB94E00E94EB
:103D10001339085F1F4F10926E0410926F04809148
:103D2000A904882331F086FF37C190E48927809366
:103D3000A9048091AA04882331F086FF3DC190E454
:103D400089278093AA048091AB04823009F044C192
:103D500081E08093AB04093111050CF061C18091C1
:103D6000A104882361F080915C0390915D0397FF2B
:103D700004C090E080E00E942E061092A1048A2CDC
:103D8000912C25E0820E911CF0E1EF16F10419F45C
:103D9000E4E08E2E912C800E911E3FEF831691044D
:103DA00011F00CF024C191E040E1E416F10409F4B3
:103DB00090E0E0917303E83008F01EC1F0E0E656B1
:103DC000FD4FE491E815190408F42AC180E48093BA
:103DD000B20480919F044091A504482B20915C037C
:103DE00030915D0337FD0AC121523109203B324039
:103DF00008F404C120E488EF800F842B822B809389
:103E0000B70440917E0230917F0220918002809120
:103E100081024093B3043093B4042093B50480939B
:103E2000B6048091AE04811118C02091760321114F
:103E300014C040918602509187026091880270916F
:103E400089024F5F5F4F6F4F7F4F409386025093C1
:103E500087026093880270938902209186023091D4
:103E60008702215031092093B8043093B90410928D
:103E70009F049923D9F190917903992309F4C0C043
:103E800090E89093B204811103C081E08093AE0466
:103E9000F801EE54FB4F809178038083C8018D5464
:103EA0009B4F6C01B12CA5016BE773E00E941339A5
:103EB0000091860210918702209188023091890238
:103EC000015011092109310940917E0250917F0270
:103ED00060918002709181028091780381119DC070
:103EE0008FE794E0F12CE12C0E949C1A840104508D
:103EF00011098091860290918702A0918802B09169
:103F000089020197A109B10960917E0250917F0257
:103F1000409180023091810220E173EDE72E71E043
:103F2000F72EF701422E11924A94E9F779E4709343
:103F3000D3011092D8010093E2016093D90150930C
:103F4000DA014093DB013093DC018093DD01909333
:103F5000DE01A093DF01B093E001EFE7F4E0A4EB12
:103F6000B5E001900D922A95E1F7A80162EB74E0AB
:103F700082E00E946115F801EE54FB4F6383728367
:103F8000818390838092B10486E897E15ACDA12C79
:103F9000AECE08E010E0BFCE9801225E3D4FF901A1
:103FA000EC56FD4F95E090832B563D4F8770D9011D
:103FB0008C930E5F1F4FBDCE9801225E3D4FF901DD
:103FC000EC56FD4F9AE090832B563D4F8370F901DC
:103FD00080830E5F1F4FB7CE882309F4BCCEF80153
:103FE000EE54FB4F88E080830F5F1F4FB4CE480133
:103FF00054E0850E911CDCCEE0E0E4CE20E0FBCE68
:1040000080917103882309F443CF80917603811155
:104010003FCF81E0809376033BCF8FE894E062CF7F
:1040200088E08093AF0480917903811104C080916E
:10403000AE04882319F088E48093AF04809158037C
:104040009091590387769E7F9093590380935803EC
:104050001092B1041092B0048AE090E00E94B80C73
:10406000F2CA66E0640F660F660F58E0453008F448
:1040700050E013E0880F991F1A95E1F7861B91090C
:104080004C9620E130E0E7FF02C030E020E0820FF4
:10409000931F2F2F3327232B09F465C024E130E031
:1040A000821B930B28E030E018161906CCF4651B30
:1040B00070E0860F971F01970E94A034CF01A5E002
:1040C00096958795AA95E1F7837090E00596869F6F
:1040D0009001879F300D969F300D1124285F3F4F30
:1040E000220F331F220F331F2F5C3F4F4F5F73E0B0
:1040F000F695E7957A95E1F7E3704E1BE9E0FDE36D
:10410000453050F04450550BE9E0FDE302C0F59511
:10411000E7954A95E2F744E0C901330FAA0BBB0BC0
:104120002C013D0104C0440C551C661C771C4A95AB
:10413000D2F7A3019201A4E2B4EF0E943C349F01A4
:10414000F7FF02C02F5F3F4F359527958901330F49
:10415000220B330B600F711F821F931F9F01FF0FF4
:10416000440B550BB3CC30E020E09ACF8CE59FEFA9
:104170004CCD80915603877009F06AC00E949C1351
:1041800081E00E94C01380E00E94161260E085E288
:104190000E94031265E086E20E9403120E94AA12A6
:1041A0000E94431269E28AE00E94031264E380E401
:1041B0000E9403126091B1046F5F82E30E940312B8
:1041C0006091B10480E00E9403124091B10450E07C
:1041D00020E062EB74E080E80E94881181E00E9498
:1041E00083096091660270916702809168029091E4
:1041F0006902611571058105910531F10E9411096E
:104200006115710581059105F9F000916002109129
:1042100061022091620230916302DC01CB01800FC8
:10422000911FA21FB31F8093600290936102A0931D
:104230006202B093630280916402909165020196DC
:10424000909365028093640283E00E94C013FBC9CF
:104250000E94AE1381E00E94F11187FD06C061E269
:1042600073E085E691E00E94C80A81E00E94C013D5
:104270000E94FA120E94AA1268E08AE00E940312C9
:104280000E94431264E389E30E9403126CE780E416
:104290000E9403126FEF82E10E94031267EF81E137
:1042A0000E94031260E08EE00E94031260E08DE045
:1042B0000E9403126091B10482E285CF232B09F49E
:1042C000C7C0C114D104E104F10409F474C08091A1
:1042D00058039091590391FF7AC00B811C812D8165
:1042E0003E810F581D4F2F4F3F4F0F83188729874F
:1042F0003A8740915202509153026091540270915A
:104300005502DB01CA014F80588469847A8484197C
:104310009509A609B709B7FFA8C010914B0217FD70
:1043200056C080914A02E1E0F0E001C0EE0F8A95AC
:10433000EAF71E0F10934B0217FD49C0A12FB0E002
:1043400020E030E345E750E00E943C342B013C0183
:1043500097E075946794579447949A95D1F7809114
:104360004E0290914F02A0915002B0915102480E1E
:10437000591E6A1E7B1E82E08E0F60914902810FDA
:104380000E94FF10461A570A680A790A40925202A0
:1043900050925302609254027092550280916903C8
:1043A00090916A0390934D0280934C02A2CF232BED
:1043B00009F0E4CA48C9C12CD12C7601C39487CF37
:1043C0002BEF34E18DE292E00E946B083CC9C114EE
:1043D000D104E104F10441F0D701C601881999091B
:1043E000AA09BB09B7FD34C00E94BC0F80916403C9
:1043F0009091650390936A038093690380918E0284
:1044000090918F02A0919002B091910280936A02E4
:1044100090936B02A0936C02B0936D028B819C8190
:10442000AD81BE8188199909AA09BB09B7FD0BC0E6
:1044300083ED682E82E2782E70923402609233020D
:104440000E94F41400C923E035E1B501A401BACFFC
:10445000B701A60141575240610971092DEC32E2C2
:10446000B1CF82E080936603F5C8C114D104E104A2
:10447000F10441F0D701C601841B950BA60BB70BC5
:10448000B7FDE6CF80914C0290914D0290936A0364
:104490008093690340936A0250936B0260936C02AD
:1044A00070936D028091560290915702A09158022C
:1044B000B09159028093720290937302A093740298
:1044C000B0937502E0914902F0E0E552FD4FE491AE
:1044D000F0E0EF77E068F0935703E0935603109213
:1044E000B10441575240610971098B819C81AD81B2
:1044F000BE81841B950BA60BB70B181619061A065E
:104500001B060CF05DCF8091580390915903F3C8BE
:10451000809158039091590383FF20C010927A0331
:1045200082FF1AC0877E909359038093580382E1DB
:1045300090E00E94B80C80915803909159038570C7
:104540009927892B59F48DE292E00E94F80880E0C7
:104550000E94C0130C94E71A8776E5CF08950E9455
:1045600088220E943C1A8CE090E00E94B80C0C94C7
:10457000C119E8E5F3E0808191818E7D9F7B918375
:10458000808310927E0210927F021092800210921D
:1045900081020E9488220C94C1190C94E71A0E948F
:1045A000B80C0C94E71ACF92DF92EF92FF92CF9360
:1045B000DF938091B104882309F48FC0C090350245
:1045C000D0903602E0903702F0903802C091470256
:1045D0000E94A40687FF81C0C37071F480E00E942E
:1045E0006610C4E0D0E0809158039091590391FD8A
:1045F0000E945216CE01D0C02EEED21A8091350202
:1046000090913602C81AD90A6091AC04662379F0F9
:1046100020915E0330915F03C601821B930B70E013
:104620006F5F7F4F0E94A0346901C60ED71E209194
:10463000470222FD1DC080915E0390915F038C199B
:104640009D0997FF03C0919581959109909361030E
:1046500080936003409162035091630348175907A8
:1046600024F49093630380936203277F209347028F
:10467000D0925F03C0925E03109275031092AC0457
:10468000809147028B7F80934702C4E0D0E0C090C6
:104690003502D0903602E0903702F090380282E185
:1046A000D80E8AE7E81EF11C63E080E00E94FF104C
:1046B000C61AD70AE80AF90AC0928E02D0928F026F
:1046C000E0929002F09291028091690390916A03C6
:1046D000909365038093640386CFC0905E03D0906F
:1046E0005F030D2C000CEE08FF0860E072E18AE722
:1046F00090E06C197D098E099F09C0903502D09019
:104700003602E0903702F09038026C0D7D1D8E1D50
:104710009F1D609335027093360280933702909309
:104720003802C0903902D0903A02E0903B02F090FB
:104730003C0220E8C20ED11CE11CF11CC0923902DF
:10474000D0923A02E0923B02F0923C022091AC04FB
:104750002F5F2093AC046C567A4F8D4F9F4F44E0EF
:104760000E942B198091AC048A3350F48091640329
:1047700090916503C3E0D0E08F35914008F487CF76
:1047800080915803909159038D7D997F909359039F
:10479000809358038BE090E0DF91CF91FF90EF90F2
:1047A000DF90CF900C94CF22CF93809158039091BB
:1047B0005903877790935903809358031092760397
:1047C0001092AE0420916E04222351F030916F04B8
:1047D000332309F471C08061909359038093580387
:1047E0000E94A5076E5E75488F4F9F4F40E00E9464
:1047F0002B198091AF04877079F0809158039091C4
:10480000590394FF09C09F7E9093590380935803E6
:104810008FE090E00E94B80C8AE090E00E94CF22E6
:1048200080915C0390915D0381979CF1809173036B
:104830000E94B30FC82F0E945405909173038111F9
:1048400001C0C92F9C1342C080915C0390915D030D
:10485000813F92404CF080915803909159039064AD
:10486000909359038093580360E18C2F0E94810537
:1048700080915803909159039C0130613093590302
:10488000209358032817390721F08EE090E00E940A
:10489000B80C2091AD04222361F0809158039091CF
:1048A000590381FF1AC082E090E00E94B80C109278
:1048B000AD0481E0CF9108951092790310927803AE
:1048C00020937A0310926E04886086CFCC2361F225
:1048D00090E080E00E942E06C7CF21502093AD04C7
:1048E0002111E7CF40917E0250917F0260918002BA
:1048F00070918102452B462B472BD9F29C012474E1
:104900003327232BB1F61092470210929F04109286
:10491000AE048E77816090935903809358030E9470
:10492000BC0F0E94A507AB01BC014C5D594F644808
:104930007F4F409335025093360260933702709355
:10494000380240936A0250936B0260936C0270933A
:104950006D022DE035E28DE292E00E946B0881E06D
:104960000E947814A6CF8091AE048823B1F18830DC
:1049700020F58F5F8093AE0480FF07C080917303A2
:104980000E94B30F60E80E94810560916A027091F5
:104990006B0280916C0290916D0243E00E942B1992
:1049A00080915803909159038F7790935903809386
:1049B00058030E94E71A81E0089580E68093AF04CF
:1049C00080915C0390915D0301960E942E061092E7
:1049D000B1041092B0040C94D42380917603882300
:1049E00079F090917103891758F48F5F8093760363
:1049F0000E94A5076E5E75488F4F9F4F40E0CECF57
:104A000080E2DCCF80917703811103C081E0809345
:104A1000770385E090E00C94CF2280E00E94C013E1
:104A20008DE292E00E94F8088091B10481110DC0DE
:104A300080915803909159038C7F909359038093F0
:104A4000580381E090E00C94CF220E94A40687FDD9
:104A500013C01092B10481E00E9478144091350295
:104A60005091360260913702709138022DE035E2A4
:104A70008DE292E00C946B0881E00E9466108091B8
:104A80005803909159038E7F8260909359038093CD
:104A9000580382E090E0D7CFCF92DF92EF92FF925F
:104AA0000F931F93CF93DF9300D0CDB7DEB78091E4
:104AB00058039091590382FD24C085FD11C08F7762
:104AC000909359038093580381E00F900F90DF91EA
:104AD000CF911F910F91FF90EF90DF90CF900895AD
:104AE0008F759093590380935803809175038A3092
:104AF00018F48F5F8093750389E090E00E94CF22C5
:104B0000E3CF8F77909359038093580384E190E02B
:104B10000E94B80C87E090E09A83898380915403C7
:104B200090915503892B49F48091730311E08823F8
:104B300029F00E94B30F8093730310E060916F031C
:104B400070E0CE0101960E94AE1797FF80936F032D
:104B50008091580390915903977F909359038093C4
:104B600058030E94A5076B017C01809196029091E9
:104B70009702A0919802B0919902B701A601481B33
:104B8000590B6A0B7B0B77FF02C06C017D012091F2
:104B900073038FEF90E002C0959587952A95E2F711
:104BA0000E94FD18645973428D4F9F4FC60ED71E49
:104BB000E81EF91EC0926602D0926702E092680277
:104BC000F0926902C12ED12CF12CE12C112381F03D
:104BD00002E016E20E94A507AB01BC014C0D5D1D71
:104BE0006E1D7F1D98018DE292E00E946B086CCFD4
:104BF0000DEC12E2EFCF8091AF0480FF0C944C25B6
:104C000080E0089588E090E00C94CF22CF92DF926C
:104C1000EF92FF920F931F93CF93DF938091AF0496
:104C200080FF05C08091B104882309F438C18091C8
:104C300058039091590387FF2BC184729927892BC0
:104C400051F4DF91CF911F910F91FF90EF90DF9082
:104C5000CF900C94FB251091B10411110AC0DF9183
:104C6000CF911F910F91FF90EF90DF90CF900C9418
:104C70004C25113111F0113221F78091B204837E5D
:104C80008032F9F6C12FD0E00E945915AE01415093
:104C9000510963EB74E080E00E9461150E94591590
:104CA0002497AE0162EB74E08AE00E9461156B010B
:104CB0007C01CE54DB4F688179818A819B810E947F
:104CC000BA34C616D706E806F90609F0BACF89EB5A
:104CD00094E00E94800660937E0270937F0280932E
:104CE00080029093810286EB94E00E9480069927CF
:104CF00060937A0270937B0280937C0290937D0292
:104D000080E00E9469191132F9F48091CE0481117A
:104D10001BC08FEBE82E84E0F82EC3E0C7010E9491
:104D20008606AB01BC01411551056105710531F0E5
:104D30000FEF30E020E08C2F0E94DA0FCF5F83E08E
:104D4000E80EF11CC83051F780915A0390915B0333
:104D50000197E7E8F4E028E0DF011D922A95E9F7E2
:104D600021E020937F0426E0E3EBF4E0A0E8B4E048
:104D700001900D922A95E1F7809386049093870421
:104D800080E1EFE7F4E0AFE8B4E001900D928A959E
:104D9000E1F782E080938F040E94591540E150E0D2
:104DA0006FE774E080E00E9461150E94591540E1B0
:104DB00050E06FE874E080E00E9461158091580334
:104DC00085FF09C0C091750380917303C15008F03D
:104DD00061C0809373038091580390915903897542
:104DE0009D7F986090935903809358031092AE046E
:104DF0001092860210928702109288021092890205
:104E00001092820210928302109284021092850204
:104E1000109275031092A1041092A00410929F04A6
:104E200010927103109276031092A9041092AB04B1
:104E30001092AA041092A6040E946F0685E0809347
:104E4000B10588E096EEA3EDB3E38093560290930C
:104E50005702A0935802B093590283E0809349020D
:104E600080EC9FEF0E942E068091BD04982F9F70CA
:104E70009093A804829587708093A7048091BE04C4
:104E8000882359F08093A20486E090E00E94CF220C
:104E900081E006C00E94B30F99CF81E0F3CF80E09C
:104EA000DF91CF911F910F91FF90EF90DF90CF9006
:104EB00008958091B10481110AC02091A80441E5B0
:104EC00055E168ED78EB85E090E00C94BA100E9413
:104ED0000626882391F308958091B104811102C0C0
:104EE0001092AF040C9406260F931F93CF93DF9379
:104EF000E89882EB93E09093010180930001809108
:104F0000010280FF6EC08DE492E00E94A50489E456
:104F10008093C401D0E0C0E0A091FE01B091FF01F8
:104F200014968C911497811105C01A968C911A973A
:104F30008823A9F012968C9112978093C501ED9168
:104F4000FC9111970280F381E02DCD0109956093CA
:104F5000C6017093C7018093C8019093C90182E490
:104F600092E00E94A504CE018C539E4F009711F051
:104F70000E94310A86E491E00E94920A83E392E063
:104F80000E94A504C4ECD1E0899190E00E94E30A5C
:104F900081E392E00E94A50481E0CA3CD807A1F712
:104FA00086E491E00E94920A8091580390915903FF
:104FB00087FF1CC088E192E00E94420A1092010221
:104FC0008AEE99E09093010180930001809169003D
:104FD000836080936900E89ADF91CF911F910F91D0
:104FE00008951092C401C1E0D0E096CF8C79992742
:104FF000892BD9F400917303C02FD0E08C2F0E942D
:105000005405882391F0C83080F4FE01E656FD4F28
:10501000E491EE2351F0E33108F056C0FE01E45272
:10502000FD4FE4912196EF3F49F78091580390910D
:1050300059039C012C793327232BF9F426E0E4EC67
:10504000F1E0ABE7B3E001900D922A95E1F7109201
:10505000790321E02093780326E020937A039C01D2
:105060002860309359032093580382FD04C01092A6
:10507000AE04109276030E94E71A0E94A50760937F
:10508000C0017093C1018093C2019093C3014AE0B3
:105090000E944E0A85E192E00E94A50487E092E01A
:1050A0000E94420A81E092E00E94A504609172028F
:1050B0007091730280917402909175024AE00E948F
:1050C0004E0A0E943E0A7ACF0C1709F4AECF60E870
:1050D0008C2F0E948105A9CF2F923F924F925F9211
:1050E0006F927F928F929F92AF92BF92CF92DF92F8
:1050F000EF92FF920F931F93CF93DF93CDB7DEB75D
:10510000C754D1090FB6F894DEBF0FBECDBF2C0136
:105110003B0110926E04452B11F510926F04F12C97
:10512000E12CE614F704FCF0C701C95BDF4F0FB6B2
:10513000F894DEBF0FBECDBFDF91CF911F910F91CD
:10514000FF90EF90DF90CF90BF90AF909F908F90A7
:105150007F906F905F904F903F902F90089581E0E7
:1051600080936F04DCCF6201CE0CDF1CF6018081DE
:10517000823008F434C0282F2250330BF901223139
:10518000310508F02CC0E55AFD4FE4912E2F30E098
:1051900028963FAF2EAF28972115310529F25301EC
:1051A000AE18BF08A216B3060CF4BECF82508031F1
:1051B000C0F4E82FF0E0E152F74D0C94B434F2283B
:1051C000FC28AD2A572A2B2ABE2A9E2AF1280E2B0C
:1051D000F128F128F128F128F128F1284D2BE0E001
:1051E000D5CF37012896EEADFFAD2897EE0DFF1D08
:1051F000730137017F0195CF460107E025961FAE69
:105200001EAE2597C5012596EEADFFAD25978E1BE9
:105210009F0B05970CF49CC0F4011181312E329440
:10522000AFE03A229481907749F0903661F10E7F99
:105230002AC025963FAF2EAF2597E4CF62817381B8
:105240004EE152E030E020E0E1E0F0E0022E02C06A
:10525000EE0FFF1F0A94E2F7E623F723EF2B61F02E
:10526000FA01EC56FF4F80819181A281B3818C7F3E
:10527000892B8A2B8B2BD9F22F5F3F4F4C5F5F4FCF
:105280002031310509F7832D0E947C11811101C065
:105290000D7F1F70183038F4E12FF0E0EE57FD4F0E
:1052A000E491E03809F40B7F25962EAD3FAD2597AC
:1052B0002B5F3F4FF5E08F0E911CF401808183300E
:1052C00009F4B7CF25968EAC9FAC2597F5E08F0EED
:1052D000911C80E4E2EBF2E0DE01119601900D9268
:1052E0008A95E1F7A0905203B0905303073009F07C
:1052F000ADC01401F60141E026961FAE269710E0DE
:1053000025E0221631040CF44EC01181348126961A
:105310003FAF2697832F8077E9F0803611F1809197
:1053200052039091530325E0221A3108359641E04B
:10533000009709F440E09F012C193D092815390513
:10534000FCF2892B91F1312E32948FE0382234C057
:1053500000E0B8CF828193819093530380935203EE
:10536000DECFA2EBB2E090E080E030E020E04D91B3
:105370005D916D917D914C7F452B462B472B51F0D4
:1053800041E050E0082E02C0440F551F0A94E2F796
:10539000242B352B01968031910549F73093530327
:1053A00020935203BCCF411101C006E0312E32944C
:1053B000EFE03E22073039F4832D0E94540507E0C8
:1053C00081110EC005E080E4FE013196A2EBB2E04F
:1053D00001900D928A95E1F7B0925303A092520387
:1053E000AA24A394D12CC12CC4018C199D09059722
:1053F0006CF0602F83E00E945906A82E35E0C30EA2
:10540000D11CC814D90414F48111EECF0730A9F4CB
:1054100026968FAD26978F70909171038913809394
:1054200071031F7060E8183028F4E12FF0E0EE57A8
:10543000FD4F6491832D0E94810525968EAD9FAD11
:105440002597E80EF91EAA2029F1CCCE26961FAE8C
:10545000269710E0ABCF20916803022E000C330B8F
:10546000C901029697FD0396959587959595879521
:10547000182F1F734F970CF01FE11093A404D090C6
:105480002C0200916E0486E00E943A06811104C04D
:1054900000936E04F701ADCE8D2D0E943A0688234D
:1054A000B9F3812F0E943A06882391F39BCEF6012F
:1054B0008181082F0F7090E064E0959587956A953B
:1054C000E1F7182F1770C7010296840D951D0E94F1
:1054D00086064B015C0180EC8093A904802F0E941A
:1054E0007C11882329F08091A90482608093A9040B
:1054F00081149104A104B10429F08091A904816070
:105500008093A904143028F48091A90484608093C6
:10551000A9046091A904673C61F40093A8048092F7
:105520008A0290928B02A0928C02B0928D0210930C
:10553000A704677085E00E9459060DC0F6018181BD
:105540008F7009F481E08093A204F2E0F093AB0441
:1055500088E00E943A06A82E76CFF60181818F70EE
:10556000809370030E94A507609376027093770280
:10557000809378029093790284E0EBCFC701029682
:10558000840D951DFC011081F601238034800E945A
:1055900086064B015C01F601058181149104A1048A
:1055A000B10421F41229312A12E009F413E0302E5B
:1055B00032945FE035220F70301620F41D7F612F8A
:1055C00087E0B9CFF601D180832D0E947C1188231A
:1055D000A9F3802F0E947C11882381F31330E1F41A
:1055E0008FE090E0831991092FEF3FEF02C03695CD
:1055F00027958A95E2F78FEF9FEF02C0880F991FDA
:105600000A95E2F7282339230FEFB501A4018D2D68
:105610000E94DA0F8111D3CF12E0D1CFF6010181C0
:10562000C7010296840D951D0E94860613E0611540
:1056300071058105910509F412E0013150F5E02F63
:10564000F0E041E050E002C0440F551F0A95E2F738
:10565000209152033091530324233523232B51F4FB
:105660001D7F612F8AE00E945906A82E106C1093AE
:10567000AA04E9CE133079F49F01220F331F220FC1
:10568000331FF901EE50FD4F608371838283938352
:10569000E8CF10E0E6CF12E0E4CFC7010196840D19
:1056A000951DF6011281FC012081122BF601238148
:1056B000122B0E9486064B015C01F60104810F70DB
:1056C000112341F013E081149104A104B10459F4B1
:1056D00012E009C013E098E0892E96EE992E93ED22
:1056E000A92E93E3B92E802F0E947C11811104C052
:1056F0001D7F612F81E11FCF133059F48092560234
:1057000090925702A0925802B09259020093490217
:10571000F0CF12E0EECF2F923F924F925F926F92B6
:105720007F928F929F92AF92BF92CF92DF92EF9231
:10573000FF920F931F93CF93DF93CDB7DEB72997D7
:105740000FB6F894DEBF0FBECDBFE090B1042E2D92
:1057500030E0398728872C303105E4F41092B10409
:1057600080E029960FB6F894DEBF0FBECDBFDF9163
:10577000CF911F910F91FF90EF90DF90CF90BF904E
:10578000AF909F908F907F906F905F904F903F90E1
:105790002F9008958091B204982F9370F9F6807E2F
:1057A0008D83803611F0803AC9F683EB94E00E9435
:1057B000800620917E0230917F02409180025091BC
:1057C000810229833A834B835C8326173707480776
:1057D000590721F63091B7043E833F70F32EC32E54
:1057E000D12C160148E0240E311C88859985049738
:1057F00099878887821593050CF4B0CF88248A9402
:10580000982C281639064CF4F101EE54FB4F2081F8
:10581000822E912CD60119961D0140908202509043
:10582000830260908402709085020091B804109108
:10583000B904041915090F3F100709F07CC021E0D5
:10584000421A51086108710820E1E3EDF1E0DF013F
:10585000322F1D923A95E9F739E43093D30131E0C4
:105860003093D8014CEF4E0D4F834093E2015981A4
:105870005093D9018A818093DA019B819093DB0157
:10588000AC81A093DC014092DD015092DE01609278
:10589000DF017092E001EFE7F4E0A4EBB5E00190E6
:1058A0000D922A95E1F74885598562EB74E082E014
:1058B0000E9461159B01AC01E885F985EE54FB4F10
:1058C00060817181828193810E94BA3426173707E3
:1058D0004807590709F042CF8091820290918302D4
:1058E000A0918402B0918502481659066A067B068B
:1058F00038F584159505A605B7050CF42FCF01974B
:10590000A109B10984159505A605B70509F026CFAB
:105910008091A004882309F421CFBD81B03A09F019
:105920001DCF80E280939F048114910409F4D6C0B6
:1059300001E010E033C0400E511E611C711C84CF89
:105940000130104408F00ACFD301C2010196A11D15
:10595000B11D8093820290938302A0938402B0933E
:1059600085023D8180E2303A09F080E08093A00416
:1059700080939F0410E000E08114910441F4FF2023
:1059800031F048855985241635060CF4E7CE809110
:105990009F04811103C05E8154FF09C080915803A8
:1059A000909159038061909359038093580310920A
:1059B00075031092A10480EC9FEF0E942E061092B6
:1059C000A9041092AB041092AA04E0915603F0913E
:1059D00057038E2F877033E0F695E7953A95E1F7F8
:1059E000E370F0E093E0899FE00DF11D1124E3598D
:1059F000FD4FE49180916703082E000C990B8054B1
:105A00009109ED58FF0B8E1B9F0B97FD80E0809353
:105A1000A304A401B6018AEB94E00E946C28012B38
:105A200009F09CCEAFEF8A169A0699F12885398540
:105A300022193309398728871216130654F5A10154
:105A40004E545B4F5A83498340917E0250917F02AE
:105A500060918002709181028FE794E0811491043B
:105A600011F08FE894E0A884B984C980DA80EE242C
:105A7000E394F12C930182010E949C1A81149104F9
:105A800041F450E040E06885798589819A810E94DF
:105A90006C288091AE04882349F05E8190E855FF20
:105AA00090E48091AF04892B8093AF048091AF0480
:105AB000181419044CF080628093AF042092B00453
:105AC0001092B10481E04DCE80618093AF042092AA
:105AD000B004EF80E218E092B104F4CFFF2009F4A3
